:020000040801F1
:1000000008FF0120218D01080D0301080F030108DD
:1000100017030108190301081B0301080000000071
:100020000000000000000000000000001D030108A7
:100030001F030108000000005596020801C60108D0
:100040003B8D01083B8D01083B8D01083B8D01086C
:100050003B8D01083B8D01083B8D01083B8D01085C
:100060003B8D01083B8D01083B8D01083B8D01084C
:100070003B8D01083B8D01083B8D01083B8D01083C
:100080003B8D01083B8D01083B8D01083B8D01082C
:100090003B8D01083B8D01083B8D0108A30501083C
:1000A0003B8D01083B8D01083B8D01083B8D01080C
:1000B0003B8D0108352901083B8D01083B8D010866
:1000C0003B8D01083B8D01083B8D01083B8D0108EC
:1000D0003B8D0108F30401083B8D01082103010851
:1000E0003B8D01083B8D01083B8D01083B8D0108CC
:1000F0003B8D01083B8D01083B8D01083B8D0108BC
:100100003B8D01080F6601083B8D01083B8D0108FE
:100110003B8D01083B8D01083B8D01083B8D01089B
:100120003B8D01083B8D01083B8D01083B8D01088B
:100130003B8D0108092B01083B8D01083B8D01080F
:100140003B8D01083B8D01083B8D01083B8D01086B
:100150003B8D01083B8D01083B8D01083B8D01085B
:100160003B8D01083B8D01083B8D01083B8D01084B
:100170003B8D01083B8D01083B8D01083B8D01083B
:100180003B8D01083B8D0108DFF80CD01FF08AFD84
:1001900000480047AD01010808FF012030BF72B6DA
:1001A000704762B6704780F3088870473C4910B5C5
:1001B0003A4808604FF4A06008F0C4FD02F0BEFEAB
:1001C00019F026FB012137481AF095F936490860E5
:1001D000022136481AF08FF9354908600321354865
:1001E0001AF089F934490860022134481AF083F979
:1001F00033490860012133481AF07DF9324908601B
:10020000012130481AF077F93049086001201AF0CE
:10021000E8FB2F49086001201AF0E3FB2D49086034
:1002200001201AF0DEFB2C49086001201AF0D9FBEE
:100230002A4908600CF0C7FB0028FBD12848007849
:1002400020B10CF095FD0028FBD103E00EF022FA5E
:100250000028FBD10DF0DEFB0F23224A00212248AB
:100260001AF0D6FD1223214A002121481AF0D0FDB0
:100270001923204A002120481AF0CAFD08231F4AEA
:1002800000211F481AF0C4FD17231E4A00211E48F2
:100290001AF0BEFD19F096FB002010BD0000010809
:1002A00008ED00E0A0000020A40000209400002041
:1002B0009C00002078F70020D0000020B80000202B
:1002C000C0000020A8000020AC000020B0000020EA
:1002D000C4000020B4000020C8000020CC00002092
:1002E00088000020D84300202B100108D88E002061
:1002F0004D1A010848BF00206F230108580500204F
:100300002F08010848C70020BD0801087047B9A0A0
:100310001FF0D2FEFEE7FEE7FEE7FEE770477047FC
:100320002DE9F04719F06EF9B44A1178491C1170A3
:1003300019F06CF9B24F40F225552946384609F0BC
:1003400042FF01260024002812D02946384609F031
:1003500037FF2946384609F055FF381D0088DFF879
:10036000A482A94DB0F5807F03D0A978012927D0B8
:1003700079E02C706C70A878012806D1AC700D2043
:10038000E96810F0E1FCAC60EC60D8F8000040686F
:10039000C18A808A814266D20D2010F0AFFCA8602D
:1003A00040B19A49AE70E86009788170C01CA860BD
:1003B000EC8058E0AC700121384609F079FE52E03B
:1003C0002978022221B1012921D002294BD12BE029
:1003D000A96801F8010BA960E8680B1A082B0FD176
:1003E00011F801CC11F8028C0CEB082C1FFA8CFCD4
:1003F000BCF1000FA5F804C001D02E7000E02A70F7
:10040000062B30D1C078824A097811542BE0A968B4
:1004100001F8010BA960E888401C80B2E880A98837
:10042000884220D12A701EE0A96801F8010BA9605A
:100430006878401CC0B26870042814D17548AC704C
:1004400004706C70E868091A891E01800121384621
:1004500009F02EFEE968D8F800001AF09DF910B1F5
:100460006DA01FF029FE40F227752946384609F095
:10047000AAFE40F2266850B3A9462946384609F03C
:10048000C1FE684C684D2088B5F90010884208DA32
:100490006649B0B10968095C401C2080384609F003
:1004A000F7FD2088B5F9001088421EDB002249467E
:1004B000384609F066FE01224146384609F061FEE1
:1004C00013E008680078268040F48071E6E745462E
:1004D0004146384609F077FE38B1002229463846B1
:1004E00009F04FFE5248C0F8A042BDE8F04719F0AD
:1004F000F3B92DE9F04119F0E5F94E4D10212846E8
:1005000009F057FE90B32888A888DFF82C81404670
:100510000BF0A7FE494F42F2080538680078022820
:1005200037D10D2010F0EAFB02460120107002F1D5
:100530000800506000213B6801E0491C89B213F8B3
:1005400001C0BCF1030F01D0A942F6D3491C1FFA28
:1005500081FCAC451DD2002111E03B685B5C1B2B8C
:100560000AD0012C03D000F8013B06E015E01B3354
:1005700000F8013B002400E00124491C89B26145D8
:10058000EBD39188401A50802D48114600681AF02C
:1005900003F92946404607F033F9BDE8F04119F068
:1005A0009BB910B519F02EF814490A78521C0A703C
:1005B00019F02CF8C8200CF055F840200BF0CAFCBC
:1005C00080B120490878401CC0B20870082801D9C1
:1005D000012008701C49FF2008701C480021006899
:1005E0001AF0DAF840200BF0BEFCBDE8104019F01C
:1005F00073B900006572726F720D0A00DA02002092
:1006000000480040C0000020000000205B000020E7
:1006100084F7002010010020343835206572720DF7
:100620000A0000006C0000206E0000207000002016
:10063000000043420010014040640240900000204E
:100640009C0000205700002038000020D00000202F
:100650000CB50022544900920192086840F48030A1
:1006600008604FF4A043086800F40030019000983F
:10067000401C0090019810B900989842F3D1086886
:10068000800334D50120019047484030026842F091
:10069000805202604548026842F44042026042488B
:1006A000083002680260026842F400420260026898
:1006B00042F4A0520260031F3D4A1A600A6842F0E9
:1006C00080720A600A689201FCD53A4940F20572CC
:1006D0000A60016821F003010160016841F0020134
:1006E00001600168C1F381010229FAD10CBD0192B8
:1006F0000CBD314810B5016841F4700101602A4811
:10070000016841F001010160274A002108321160AF
:1007100002682A4B1A400260031D294A1A600268C7
:1007200022F48022026020480C300160FFF790FF25
:1007300021494FF000608039086010BD70B51A4D36
:10074000083528681F4B204910F00C0004D05E10BB
:10075000042803D0082803D00B601BE00E6019E0CA
:10076000114A121D1068C0F38054106800F03F0059
:1007700014B1B6FBF0F001E0B3FBF0F013681268BF
:10078000C3F388135843C2F30142521C5200B0FB1A
:10079000F2F0086028680C4AC0F30310121D105CC8
:1007A0000A68C2400A6070BD003802400070004014
:1007B00008544007003C024088ED00E0FFFFF6FED1
:1007C000103000240024F400100000202DE9F04136
:1007D000454DC020A821287069700127434EAF7095
:1007E0000522EA7030707170414CB770F77041F6B5
:1007F000417020801F218C2008F0DBF821788D20AB
:1008000008F0D7F8002404F18E00315DC0B208F082
:10081000D0F804F18700295DC0B208F0CAF8641C62
:10082000E4B2042CEFD333480770BDE8F081002612
:1008300035463446304F0BF0C8FE64201AF0A6FD52
:100840000A2E0CD0761CF6B23C2D03D32B49012086
:1008500000250870D7F82C0288B100241EE06D1C1A
:10086000EDB206F0AAFCD7F89002002628B10020CD
:10087000C7F8900206F0BAFEE6E70120F8E7641C2C
:10088000E4B2322C0AD3FFF7A1FF0020C7F8900290
:10089000C7F88C02D7F82C020028FBD01548007846
:1008A0000128C8D1BFF34F8F15480168154A01F4DC
:1008B000E06111430160BFF34F8FFEE7002508F0B0
:1008C00078F9044664201AF061FD08F072F93CB131
:1008D000A04205D1AC4203D0204608F048F9254695
:1008E00064201AF053FDEAE7240000202A000020CB
:1008F000280000202E00002000004042DA000020E6
:100900000CED00E00400FA0570B505460C460846FB
:100910001EF009FC002804D0214628461DF06FFD7A
:10092000006970BD70B50446F7A1FFF7EDFF0178CF
:100930008278303901EBC10303EB011102EB810135
:100940004078F44A00EB8000F34D02EB400008448D
:10095000286020461CF0F9FDF0A029681FF0ACFBD0
:10096000F04C0120F04920700020087029785320B5
:1009700008F01FF82178BDE87040522008F019B83F
:100980002DE9F0410D4604461DF0F4FE07462A46C7
:10099000E6A11DF0ADFEE6A2E6A138461DF0A8FED8
:1009A000E6A2E7A138461DF0A3FE38461DF08DFCF7
:1009B00005461EF0B8FB0246294660681EF073FB30
:1009C00028461EF0B0FB608038461CF0BEFDDD4DB1
:1009D0002078082804D12146286819F0DDFE064653
:1009E0001E2EF5D0C8201AF0D1FCD749012008707E
:1009F000BDE8F0812DE9F0471446884681461DF098
:100A0000B9FE07462246C9A11DF072FECF4C2078E0
:100A10001EF0BAFE41EC100BCDA138461DF032FE9F
:100A2000CD4D28681EF09FFE41EC100BCBA138463F
:100A30001DF028FE38461DF048FC06461EF073FBEC
:100A40000246314648461EF02EFB30461EF06BFB38
:100A5000A8F8000038461CF078FDC24821782A68C2
:100A60000388BDE8F047C0A01FF026BB70B505465F
:100A70000C4608461EF057FB002804D021462846A5
:100A80001DF0BDFC406970BD70B50646B0A1FFF712
:100A9000EDFF0546B1A13046FFF7E8FFAE4C6528F3
:100AA000206001D3FF2070BD30461CF04EFD15F0D4
:100AB000FF00A64DAB4E287005D02068C001642110
:100AC00090FBF1F03080308806F03DFB33882978C8
:100AD000A5A022681FF0F0FA002070BD70B50D00CF
:100AE00010D0846809E0AAA0216A1FF0E5FA29461F
:100AF000206A1EF01FFB38B12468002CF3D1204679
:100B00001CF023FD002070BD012070BD10B5A2A116
:100B1000FFF7FAFE04007DD00146A1A01FF0CCFA39
:100B200020461EF000FB02462146A1A01EF026FB37
:100B3000002870D020461EF0F6FA02462146A0A0FA
:100B40001EF01CFB00287CD020461EF0ECFA02466A
:100B50002146A0A01EF012FB002874D020461EF0F3
:100B6000E2FA02462146A2A01EF008FB00286CD043
:100B700020461EF0D8FA02462146A3A01EF0FEFA37
:100B8000002864D020461EF0CEFA02462146A2A0DC
:100B90001EF0F4FA00285CD020461EF0C4FA02468B
:100BA0002146A1A01EF0EAFA002854D020461EF0EB
:100BB000BAFA02462146A0A01EF0E0FA00284ED064
:100BC00020461EF0B0FA024621469FA01EF0D6FA3B
:100BD000002846D020461EF0A6FA024621469EA0D6
:100BE0001EF0CCFA00283ED020461EF09CFA0246A9
:100BF00021469EA01EF0C2FA78B320461EF093FA5A
:100C0000024621469DA01EF0B9FA38B320461EF0D8
:100C10008AFA02E010E012E013E0024621469CA0AE
:100C20001EF0ACFA28B320461EF07DFA024621469B
:100C30009CA01EF0A3FAF0B1FF2010BD03E0A3209A
:100C4000FBE75520F9E76220F7E70520F5E70620E6
:100C5000F3E79220F1E79120EFE706E007E0972025
:100C6000EBE71220E9E71020E7E71920E5E711207C
:100C7000E3E71320E1E71420DFE72DE9F04705461D
:100C80004FF000090D2010F039F88A4C0028606000
:100C900031D0A060297801700027478000F1080159
:100CA000416068681DF0BAF98246FFF72FFF0646DB
:100CB0001EA15046FFF712FF01280FD0FF26DFF8D4
:100CC0008480192E18D018DC112E17D00CDC052EBC
:100CD00015D0062E14D0102E13D142E113A1504688
:100CE000FFF712FE8146EAE7122E0BD0132E0AD030
:100CF000142E06D192E15CE137E1DDE074E1F7E02A
:100D0000FCE0E7E024E181E166696C654E616D65B8
:100D100000000000F0FDFFFF6000002025640D0AC8
:100D2000000000005D000020570000206964000002
:100D3000323030007374617475730000200000005D
:100D40006D736700A40000202E00002074000020B6
:100D500074797065000000007800002076616C7581
:100D6000650000007C0000204272696768744D6F66
:100D7000643D2564202076616C75653D25642020E6
:100D800042726967687450776D3D25640D0A0000F2
:100D900025730D0A000000006D73675479706500BB
:100DA0006D7367547965703D25730D0A000000006E
:100DB000636F6E74726F6C537769746368000000C0
:100DC000636F6E74726F6C446576696365526562B9
:100DD0006F6F7400636F6E74726F6C506C617953D7
:100DE000706563696679506C61796C697374000031
:100DF000636F6E74726F6C4C69676874436F6E7466
:100E0000726F6C547970650071756572794C6967A1
:100E10006874536574000000636F6E74726F6C4485
:100E200061746553657400007175657279537973E7
:100E300074656D54696D650071756572795363727F
:100E400065656E53686F740071756572794661757A
:100E50006C74496E666F000075706C6F61644465F8
:100E60007669636546696C6500000000646F776EA3
:100E700044657669636546696C65000064656C6508
:100E8000746544657669636546696C6500000000B9
:100E9000717565727944657669636546696C654408
:100EA000697200007175657279506978656C457278
:100EB000726F7200DC000020922E37D006DC552EB7
:100EC00023D0622E26D0912E04D133E0972E38D035
:100ED000A32E27D050461CF038FBA168D8F800009C
:100EE00019F05AFC2946BDE8F0470D200FF02CBF41
:100EF0005046FFF7C9FD002813D079E0A1684A46A3
:100F00004868891CFFF776FDE7E74946A068FFF7C8
:100F100037FDE2E75046FFF705FD01F010F9012823
:100F200066D06CE0504606F0DBFA68E0504606F00A
:100F3000BCFB64E0A1684A464868891C06F073FB64
:100F4000CBE7A1684A464868891C02F058FEC4E70E
:100F500000F05DFEA1684A464868891C02F0ABFFBC
:100F6000BBE7504603F0CDF849E04FF40076A268A5
:100F70004B4650465168921C03F03FFA6080B042E5
:100F80001DD12078401C2070A168D8F8000019F00D
:100F900003FC0D200FF0B2FE606050B1A060297814
:100FA0000170478000F1080141606088B042DED0E6
:100FB00093E729460D200FF0C7FE00F079FA80B2C2
:100FC000411EB1F5FF7F05D8A168D8F8000019F0DF
:100FD000E3FB01E0002880D129460D200FF0B4FE8C
:100FE00027706780BDE8F087504603F031FA30B1D2
:100FF000A1684A464868891C02F03AF86DE7A16882
:101000004A464868891C02F009F866E7A2684B4620
:1010100050465168921C03F057FA5EE7A1684A46B1
:101020004868891C03F01FFF57E708B5FD4C6A4666
:101030000021206819F013FBFFF71FFEF7E72DE9E9
:10104000F04F4FF0000AADF27C4D0C460546574676
:10105000AFF2C820CDF870A40068CDF87404DFF8B2
:10106000C8834E880DF58F625146D8F8000019F0FC
:101070003CFD6FF02F09012D02D0022D34D172E01A
:101080006068183EB5B2427AC17A837A0091E7A1CE
:101090000DF58B601FF020F88AA900201BF018FACC
:1010A0000020616801E0401C80B20A5C2B2AFAD162
:1010B000021D8B5C421C8A5C03EB0263821C8A5C0F
:1010C0001204C01C085C02EB00201844C0F3C720C7
:1010D00058B112220DF58B6101A81BF006FA30B150
:1010E000002108461BF0F4F91EE10A22F2E700266F
:1010F0004FF4FF7B25E05D4504D9A5F5FF75D94682
:10110000ADB201E0A946012701A804991BF048FCF3
:101110007EB1C6EB0621152202EB410160680DF598
:101120008E6301444A4601A81BF01BFB002871D1C5
:1011300006E061680DF58E634A4601A81531F3E7B4
:10114000761C002FD7D001A81BF021FC00210846F7
:101150001BF0BEF900200DF58B6251461154401C66
:101160001828FBD3E0E0B64E5546514686F800A05D
:10117000002007F01EFC60684179502901D07029D9
:101180002BD181794C2901D06C2926D1C1794129F3
:1011900001D0612921D1017A592901D079291CD1A5
:1011A000417A4C2901D06C2917D1817A492901D083
:1011B000692912D1C17A532901D073290DD1017B3C
:1011C000542901D0742908D1C17B2B2914D0027C69
:1011D0002B2A11D0427C2B2A1DD09AA10DF58B60B1
:1011E0001EF07AFF8AA900201BF072F99848006867
:1011F00048B3002061682FE0427C2B2A0BD0027C90
:101200002B2A18D0827B303A92A10DF58B601EF00C
:1012100063FFE7E73AE0027C807B01EB8101303835
:1012200000EBC00303EB001002EB80008D4A02EBE1
:1012300041014218E8E7807B303800EB800209EB7F
:1012400042000A18E0E70A220DF58B6101A81BF0A5
:101250004CF90EE0401C80B20A5C2B2AFAD1022223
:101260000DF58B6101A81BF040F901A804991BF052
:1012700097FB00287FF434AF628861680DF58E63B8
:1012800001A81231153A1BF06CFA18B101A81BF035
:101290007EFB25E701A81BF07AFB002108461BF026
:1012A00017F960880124704FB0F5006F30D265A146
:1012B0000DF58B601EF010FF8AA900201BF008F9C5
:1012C00003220DF58B6101A81BF00FF940B100213D
:1012D00008461BF0FDF8D8F8000019F092FC23E056
:1012E00001A804991BF05CFB0DF58E630222191D09
:1012F00001A81BF036FA01A81BF049FB2146347007
:10130000002007F056FB29463D70052007F051FBF1
:1013100021463470002007F04CFB00F010FF2946F6
:101320003D70052007F045FBD8F8000019F069FC76
:101330000DF27C4DBDE8F08F2DE9F0410546406887
:10134000401D01F0BFFE012802D002280DD104E0AB
:1013500029460120FFF773FE07E029460220FFF728
:101360006EFE3748007801280AD02946BDE8F041D2
:101370000D200FF0E9BC3E7032201AF007F802E0B1
:101380003A4F3B4C012620780028F4D12946394CAD
:1013900003E0206819F055F92946206819F0FCF996
:1013A0001E28F6D0BDE8F0810021406806E014292F
:1013B00002D94FF6FF707047491CC9B2425C2B2A14
:1013C000F5D10A1D835C4A1C825C03EB02638A1C14
:1013D000825C1204C91C405C02EB0020184480B2FD
:1013E000704770B541682448FF224B790270C87974
:1013F000204D303810F0FF01204801700FD000213F
:10140000286819F0C9F904461E2C39D1286819F04A
:1014100018F92868BDE87040002119F0BDB900F046
:101420008EFEF1E79C000020C8000020303A2F62B9
:101430006D702F2563256325632E626D700000009B
:1014400039000020303A2F504C41592E4C53540053
:10145000D4000020303A2F706C61796C6973742F5E
:1014600025640000F0FDFFFF3A000020800000200E
:1014700081000020D000002038000020570000200C
:1014800070BD70B51546FFF73FFA04000CD0284632
:101490001DF049FE40B928461DF045FE024629468A
:1014A00020461DF06BFE08B1002070BD012070BD0C
:1014B000BFF34F8F04480168044A01F4E06111430F
:1014C0000160BFF34F8FFEE70CED00E00400FA056A
:1014D000F0B50646ADF50B7D0020FC4C0F461546D9
:1014E000014689908AAA206819F0FFFA0A22394633
:1014F00068461AF0FAFF68B989AB2946684632682F
:101500001BF02FF9054668461BF041FA206819F0D8
:1015100078FB1DB100200DF50B7DF0BD0120FAE731
:101520002DE9FC5FDFF8A893044630F802AB0127F1
:101530000E46C9F8A072514605F06CFD014604EB59
:101540000A004FF0000BC0F80210BAF1320F7AD93E
:101550000AF10400CA460025B9460190019881B2FB
:10156000A01C05F0FDF8012240F22771D94808F0CF
:1015700008FED9486A464FF4FA71006819F06FF80E
:10158000D64907002AD081F800B0B7F80080B81C0F
:10159000A8F1040105F03EFD07EB080151F8021C1B
:1015A000884201D1787948B1CAF8A09239460D2015
:1015B0000FF0CAFB1E200BF048F83EE0CAF8A092DC
:1015C000A2783188521E09FA02F001433180F8886E
:1015D00010B13846BDE8FC9F394691E00878401CC0
:1015E000C0B2821E0870022A0ED2BD4F0022042112
:1015F000384607F0D4FC012019F0C8FE012204216E
:10160000384607F0CCFC02E0052800D10870CAF883
:10161000A0920027DFF8CC820CE0C8F894924FF437
:10162000967019F0B3FEC8F894B2962019F0AEFE89
:101630007F1CFFB2A078B842EFD86D1CEDB2032D2D
:101640008CD3D0E0FFE70AF104004FF000080190CE
:1016500081B2A01C05F084F8012240F227719D4858
:1016600008F08FFD0A200AF0FDFF9F489F4900887F
:10167000B1F900108842FDDB64200AF0F3FF9648C0
:101680006A464FF4FA71006818F0E9FF05005CD073
:101690009249A81C81F800B0954981F800B0B5F8CE
:1016A00000A0AAF1040105F0B5FC05EB0A0151F810
:1016B000021C884205D16879A8B1062824D00728E1
:1016C00030D0C9F8A07229460D200FF03DFB1E2036
:1016D0000AF0BBFFA078401E07FA00F185480268B7
:1016E0008A43026076E0C9F8A072A1783088491E6A
:1016F0008F4038433080E88808B128466AE7294699
:101700000D200FF021FB6EE0C9F8A072A17830889F
:10171000491E8F403843308077482946006819F0C9
:101720003BF860E0C9F8A072A1783088491E07FA3A
:1017300001F10843308071482946006819F02CF8FF
:101740008DF800000028D9D0C4E7A178491E07FA17
:1017500001F068490A681043086060490878401C35
:10176000C0B2821E0870032A11D25D4D00220421EE
:10177000284607F014FC052019F008FE0122042178
:10178000284607F00CFC1E200AF05FFF03E0052846
:1017900001D305200870C9F8A0720025DFF844A124
:1017A00015E057490878401CC0B20870052801D3DD
:1017B00005200870CAF894724FF4967019F0E6FD8F
:1017C000CAF894B2962019F0E1FD6D1CEDB2A07834
:1017D000A842E6D808F1010000F0FF08B8F1030FB5
:1017E00001D2019834E70020F4E62DE9F34F464991
:1017F00083B0444CB1F8070089794FF0000A4843A0
:10180000011DC90A4005009110F5000F01D04FF0ED
:10181000010A3C4841F20401461842F204014FF02B
:10182000000800F1040900EB010B8FE03748017854
:10183000491C01700D200FF061FA002509E06D1CB4
:10184000ADB2012D02D1052019F0A0FD0D200FF041
:1018500055FA0028F3D00746C01C002100F8011BF0
:10186000012100F8011B40F6040120F8031B039935
:1018700000F8011C049900F8011B0099224B514407
:1018800000F8011B002100F8018B4FF4006514F8EB
:10189000012B00F8012BB3F8072002EB090CA4453B
:1018A00001D1344603E03244A24200D15C46491CD7
:1018B00089B2A942EBD3C01B801E3880144801AA0C
:1018C0000021006819F011F901252FE0C80000205F
:1018D0000000434200480040C00000202F000020CC
:1018E00000100240000040426C0000206E0000200A
:1018F0005A00002034000020AC000020B00000207E
:101900005C00002060C7002064F700203B0000203E
:10191000C4000020BD7002A93846FFF701FE010097
:1019200002D00D200FF010FA6D1CEDB2F9480078CE
:101930008542EFD9F848006819F063F939460D205F
:101940000FF002FA08F1010000F0FF080099884545
:10195000FFF46CAFBAF1000F75D0F0480178491C64
:1019600001700D200FF0CAF9002509E06D1CADB221
:10197000012D02D1052019F009FD0D200FF0BEF94F
:101980000028F3D00546801C002100F8011BE44F1D
:1019900000F8011B012100F8011BB7F80710BA7904
:1019A0005143091DC1F30A01091D20F8031B0399C6
:1019B00000F8011C049900F8011B0099514400F83B
:1019C000011B491E00F8011BB7F80710BA795143F3
:1019D000091DC1F30A03002111E014F8012B00F8DE
:1019E000012BB7F8072002EB090CA44501D13446BE
:1019F00003E03244A24200D15C46491C89B29942BC
:101A0000EBD3401BC44E801E288001AA0021306801
:101A100019F06BF80124BF4F0BE0AC7002A9284607
:101A2000FFF77EFD010002D00D200FF08DF9641C40
:101A3000E4B238788442F0D9306819F0E2F82946E7
:101A40000D200FF081F905B0BDE8F08F2DE9F04FC2
:101A5000ADF27C4D0027DFF8CC82DFF8CCB2CDF8B8
:101A60006C744FF00109CDF87074B04888F80070BC
:101A70000DF274420021006818F0F1FD0646AC48F2
:101A8000007801287ED1AB480078401E082802D299
:101A90009BF8000010B10025726805E0802005F079
:101AA00052FBA2E06D1CADB2505D3D28FAD18DF81D
:101AB000687401206FF02F040AE09DF86814401C40
:101AC00001EB810104EB410119448DF8681480B2E7
:101AD0002918535CA3F130010929EED9002426E02E
:101AE00088F8009002F069F80AF06FFD7088401BDA
:101AF00081B27068284401F0F8FF82460AF065FD63
:101B00008D498E480A7800F8242000EB84004A783A
:101B100042708A788270C978C170E1B29DF8680419
:101B2000FFF763FE05EB0A00641C85B2A4B29DF8C2
:101B300068048442D4D382A10DF254401EF0CCFA42
:101B400089A900201AF0C4FC0A220DF2544168460B
:101B50001AF0CBFCD8B9A2000DF58E637749684620
:101B60001AF0FFFD68461AF012FF79A10DF25440F9
:101B70001EF0B2FA89A900201AF0AAFC0A220DF27E
:101B8000544100E03AE068461AF0AFFC30B1002161
:101B900008461AF09DFC0DF27C4D55E70DF58E635D
:101BA00001220DF58D6168461AF0DBFD68461AF0DA
:101BB000EEFE6B4807706B480078012815D19BF842
:101BC000000090B97088CDF86C0489A900201AF043
:101BD0007FFC65A10DF26C407268FFF779FC8DF80F
:101BE0007404002108461AF073FC4C4849460770FB
:101BF000604880F80090052006F0DBFE5E48314624
:101C000007700D200FF0A0F80AF0DFFC2DE72DE99A
:101C1000FC41002406E0641CA4B2012C02D1052082
:101C200019F0B4FB0D200FF069F80028F3D0054639
:101C3000C01C002200F8012B06210170411C364E09
:101C400021F8022B491B891E29806A460021306831
:101C500018F04BFF01242F4F0BE0AC7001A9284670
:101C6000FFF75EFC010002D00D200FF06DF8641C40
:101C7000E4B238788442F0D9306818F0C2FF2946BF
:101C80000D200FF061F8BDE8FC812DE9FC4106460E
:101C9000002406E0641CA4B2012C02D1052019F036
:101CA00075FB0D200FF02AF80028F3D00546C11C63
:101CB000002001F8010B072001F8010B012021F899
:101CC000020B6A4601F8016B491B891E124E2980DE
:101CD0000021306818F009FF01240E4F0FE0AC70AE
:101CE00001A92846FFF71CFC010002D00D200FF0CF
:101CF0002BF8214621A01EF0DFF9641CE4B23878ED
:101D00008442ECD9306818F07CFF29460D200FF092
:101D10001BF8B8E756000020C40000203B0000205C
:101D200064F70020810000203D000020D00000204A
:101D3000580000205700002060C700208EF70020C8
:101D4000303A2F4954454D4C4953542E4C5354006E
:101D5000303A2F4954454D5F4E554D2E4C5354004B
:101D6000590000205D000020706C61792E6C737446
:101D7000000000003A0000203C000020B4D3BBFA71
:101D8000B5D8D6B72025640D0A0000002DE9F34F21
:101D900087B0044608990020DFF838B408708DF841
:101DA00000408DF8010005218DF80210ADF8030008
:101DB000014605AADBF8000018F097FEDFF818943A
:101DC0004FF00108C9F8A0820521684605F022F904
:101DD0000126641ECDF805004FF44877A640DFF8D1
:101DE000FCA353E0FE480078002853D00921684640
:101DF00004F0B6FC012240F22771FA4808F0C1F95C
:101E000002200AF02FFCF848F8490088B1F90010C8
:101E10008842FDDB01200AF025FCF54805A9006891
:101E200018F042FB040026D02588A01C291F05F0CD
:101E3000F1F8611951F8021C884219D16079C9F88A
:101E4000A08238B921460D200EF07EFF08990020AF
:101E500008701FE021460D200EF076FF40F6B830E6
:101E60000AF0F3FBDAF80010B143CAF800100DE0F5
:101E7000C9F8A082EEE7DAF800203243CAF8002061
:101E8000C9F8A08240F6B8300AF0DFFB7F1E3F049D
:101E90003F0CA7D1DBF8000018F0B3FE09B0BDE895
:101EA000F08F2DE9F04188B00822ADF80020002223
:101EB0008DF8032002228DF804200322ADF80520BE
:101EC000C44DADF808108DF8070005AA0021286858
:101ED00018F00BFE01244FF4C878C64E10E08DF8C0
:101EE000024006A96846FFF71BFB074640460AF07A
:101EF000ACFB1FB139460D200EF026FF641CE4B286
:101F000030788442EBD9286818F07BFE08B0BDE831
:101F1000F0812DE9F34F83B0002500958DF8045032
:101F2000044681780A20B1FBF0F2B34FA946398804
:101F3000B7F80300491E401E092A12D2DFE802F05A
:101F4000111105070B0B0D0D0F008DB209E00120DB
:101F50008DB2009005E085B203E0072501E04FF067
:101F6000010900264FF00F0BDFF87482DFF88CA216
:101F700031E020783146FFF794FFE07800EB8001F4
:101F80000BEB81000AF06EFB052019F0FFF9994870
:101F900001A90078FFF7FAFE994839880088081AE5
:101FA000B04202DD00980AF05DFB98F800000028BE
:101FB0007AD001221021504606F0F1FF0A200AF0E3
:101FC00049FB00221021504606F0E9FF0A200AF0E2
:101FD00041FB761CB6B2AE42CBD98A4900200090B4
:101FE0000870894908708948007808B1607878B12C
:101FF000B9F1000F19D00020E2786178642311FB59
:1020000003F1521C02EB8202D20098F8006006E055
:10201000642019F0BBF92AE04EB3401C80B2B1FB3A
:10202000F2F39B1C8342F7D821E077480121002678
:102030000170DFF8DC9114E0642019F0A7F999F839
:10204000000048B1A2780A3A0A2A05D2401CC0B260
:1020500089F8000005280AD398F8000038B1761CEA
:10206000B6B2607800EB8000B6EB400FE4D3664870
:102070000021017040780499401E814206DA6548CB
:1020800000EB810081788079814256D098F8000079
:10209000C146002851D0A1780A20B1FBF0F200FB24
:1020A0001210082849D200E047E0DFE800F0464679
:1020B00004080A0A10103F880320009003E03F88BC
:1020C00001E0B7F80370012F37D0012633E008276D
:1020D000FBE7701981B22078FFF7E3FEE07800EBB0
:1020E00080010BEB81000AF0BDFA02200AF0BAFA77
:1020F000404801A90078FFF749FE41480088B042F6
:1021000002D800980AF0AEFA99F80000002814D01E
:1021100001221021D046504606F041FF14200AF05B
:1021200099FA00221021404606F039FF14200AF0E7
:1021300091FA761CB6B2BE42CBD905B0AFE670B507
:10214000ADF5906D0020CDF878048DF874040D2065
:102150000EF0D4FD04000ED02F4E0DF2744200217B
:10216000306818F0C2FC2D480078012808D0284DAE
:10217000287888B117E001460D200EF0E5FD74E0E7
:10218000274802680A2A01D226A100E02AA10DF2FE
:1021900054401DF0A1FF0BE02BA10DF254401DF0A7
:1021A0009BFF287820B12BA10DF254401DF094FF25
:1021B00089A900201AF08CF901220DF254416846D9
:1021C0001AF093F920B1002108461AF081F949E08C
:1021D0004FE00000C4000020000043423400002013
:1021E0003C000020004800406C0000206E000020F1
:1021F000C00000205600002064F7002000100240BC
:102200006DF700205C000020EA000020570000204D
:102210003D000020AEFA0020C80000205D00002034
:1022200060000020303A2F706C61796C6973742FF4
:102230003030256400000000303A2F706C61796CFA
:102240006973742F30256400303A2F504C41592E59
:102250006C737400303A2F504C41594C2E4C5354EF
:1022600000000000306818F0CCFC01200DF5906DE6
:1022700070BD04F1080161600DF58F636846039A33
:102280001AF0CDF90398608068461AF080FB0021AF
:1022900008461AF01DF92146A34D06E0012019F069
:1022A00075F8286818F0CDF92146286818F074FAF6
:1022B0008DF87404C0B21E28F0D0306818F0A1FC6C
:1022C0000020D3E7F0B59FB0642168461CF004FFFE
:1022D00096486A4681798DF864100188ADF86510DA
:1022E000B0F80300ADF8670091480188ADF86910B7
:1022F000B0F80300ADF86B008E4819A900788DF88E
:102300006D000F20ADF8000000208DF803000320C1
:102310008DF804000A20ADF80500002014180B5CAD
:10232000401CC0B2E3710A28F8D3834D1CAA0021D7
:10233000286818F0DAFB0124804E10E08DF8024086
:102340001DA96846FFF7ECF80746C8200AF07DF99A
:102350001FB139460D200EF0F7FC641CE4B2307852
:102360008442EBD9286818F04CFC1FB0F0BDADF5E5
:102370008E6D734C0025CDF868542078012801D16A
:10238000FFF7A0FFDFF8BCA19AF80000012804D1F4
:102390002078012801D1FFF7D2FE6B4F6B4DDFF89B
:1023A000B0B16C4E4FF001096B48002101706448D8
:1023B000007801280ED12A7862B99AF80020012A03
:1023C00008D1664A1278012A04D1654A12780AB9FE
:1023D0003A781AB1634A1278002A57D062A10DF2F6
:1023E00054401DF079FE644C0DF26C4200212068CF
:1023F00018F07BFB89A900201AF06AF801220DF27F
:10240000544168461AF071F808BB52490DF58D63C6
:102410000122491C68461AF002F968461AF0B7FA18
:10242000002108461AF054F854A10DF254401DF052
:1024300053FE7078642826D289A900201AF048F843
:1024400001220DF2544168461AF04FF838B10021CC
:1024500008461AF03DF8206818F0D3FBA4E770781E
:102460000DF58D6382003A4968461AF0D8F868463F
:102470001AF08DFA002108461AF02AF8206818F0A0
:10248000C0FB85F8009087F8009003E0012801D197
:10249000287818B1287801282DD041E09AF800005A
:1024A00001283DD12D480078012839D12C480078E9
:1024B000A8BB3878012833D17478642C30D2DFF887
:1024C000CC80DC460846CDF8681410E018F82010DF
:1024D0000CF8201008EB80010CEB80024B78537055
:1024E0008B789370C978D170401CCDF86804A042F5
:1024F000ECD385F80090707888B10024D8460AE0C3
:10250000B47008EB84002146FFF703FD287800280B
:10251000A4D0641CE4B2707884429FD2F0E7FFE755
:10252000322018F033FF3FE7D000002064F700208E
:102530006DF7002041000020C4000020560000205C
:102540005800002039000020590000203C000020E5
:10255000AEFA0020EA000020400000203A000020EF
:102560003B0000203D000020303A2F4954454D5F8C
:102570004E554D2E4C535400C8000020303A2F4980
:1025800054454D4C4953542E4C5354008EF7002063
:102590000321801CB0FBF1F08000401C70472DE946
:1025A000F0410F0084464FF0000808D00846FFF7BE
:1025B000EFFF10F1020F05D90020BDE8F08182F88D
:1025C0000080F9E700242346264625E01CF8031086
:1025D000002541EA04245B1C07E01CF803105B1C87
:1025E0006D1C41EA0424032D01DABB42F5D39B495B
:1025F000C4F385454D5D9555C4F30535761C4D5D99
:102600009555C4F38515761C4D5D955504F03F0531
:10261000761C495D9155761CBB42D7D30321B7FB8D
:10262000F1F301FB13713D23012902D0022905D0EA
:1026300007E0111801F8023D4B7002E0111801F893
:10264000013C0244401E02F8018CB6E72DE9F0433C
:10265000ADF5017D894606461D4614464FF4FE71D0
:10266000E84601A81CF038FD7C487D49001F006841
:102670000090096800200A5C48F82200401C4028AD
:10268000F9DBFF220020014626E0735C18F8237076
:102690007318BF0093F801C058F82CC047EA2C17F4
:1026A00017402754401CA84218DA9F784FEA0C1CA8
:1026B00058F827704CEAA70C0CEA020C04F800C08A
:1026C000401CA8420ADADB7818F8233043EA871363
:1026D00013402354401C091D4945D6DB0DF5017DEF
:1026E0002046BDE8F083A0F13001092901D8084651
:1026F0007047A0F16101052901D857387047A0F152
:102700004101052901D8373870474FF0FF30704735
:10271000092801D8303004E0A0F10A01052902D8C7
:102720003730C0B27047FF207047F0B5ADF6040DEA
:10273000074600241CF0F7FC064600226B4626E004
:10274000395DA1F1300009282CD93138192829D94F
:102750002030192826D92F2924D02E2922D000292B
:1027600001DA01F58071C81701EB107000114542C4
:1027700001EB051525219954521CFFF7C9FF985408
:102780002846521CFFF7C4FF9854521C641CB442E4
:10279000D6DB00209854694638461CF0E6FC0DF65E
:1027A000040DF0BD9954F0E72DE9F04116460546B9
:1027B00000241CF0B8FC0246002305E0285D252813
:1027C00008D0F0545B1C641C9442F7DB0020F054EA
:1027D00098B2F2E6641C2F5D641C285DFFF783FF4E
:1027E00084463846FFF77FFF0CEB0010E9E7002234
:1027F00012E0A1F141031A2B0DD3203B1A2B0AD36F
:1028000031330A2B07D32B2905D02F2903D03D299B
:1028100001D000207047521C815C0029E9D10120C1
:10282000704770B50546002414E0252811D11CF02E
:1028300027FC026828194178515C81EA8101090668
:1028400007D58078105C80EA8000000601D5012061
:1028500070BD641C285D0028E7D170BD940B03088F
:10286000F00000207CB50121084606F032FD012170
:10287000102006F02EFD01248DF80440002538209C
:102880008DF8065000908DF8075003268DF80560EE
:1028900069460F4806F01AFB0E48C0F88C42C0F893
:1028A0009042C0F894428DF8044008208DF80650FC
:1028B000094C00908DF807508DF805606946204658
:1028C00006F004FB0821204606F065FB7CBD0000F5
:1028D0000000024000004042001002407FB50D465B
:1028E00004460121022006F012FD00210194ADF8FA
:1028F00000501C4CADF80210ADF808106946204697
:1029000006F08AFE01221146204607F00EFA002149
:10291000204606F0F9FE1D208DF80C0001208DF8F0
:102920000D0003218DF80E108DF80F0003A806F09E
:102930000EFA7FBD10B50B4C0121204607F009FAB5
:10294000012807D116F05EFE07490A78521C0A706A
:1029500016F05CFE0121204607F007FABDE81040A2
:1029600016F0BABF00040040DA02002010B5B0B083
:1029700001214FF0606006F0ACFC07F059FC08F054
:1029800055F808F059F80128FBD0684607F05CFCC0
:102990000120009000204FF40071CDE90A100E9044
:1029A000139049000991C90307901190CDE92001C6
:1029B000149015900A112590269023920420CDE9B9
:1029C000280180032A9080012B9040122C90400017
:1029D0002E900121684607F0C9FCC4B2012C03D136
:1029E0000121944808F03AF830B0204610BDFEB5F9
:1029F0000121452006F06DFC0121880306F091FCC1
:102A0000012006F064FD8620032500908DF8055016
:102A100002208DF804000024874E8DF806408DF8C2
:102A200007406946304606F051FA0B220121304634
:102A300006F0C0FA0B220221304606F0BBFA0B2248
:102A40000721304606F0B6FA32207C4E00906946E7
:102A5000304606F03BFA0B220121304606F0AAFA76
:102A60000B220421304606F0A5FA0B220521304640
:102A700006F0A0FA4FF4D040714E009069463046FF
:102A800006F024FA0B221146304606F093FA0B2288
:102A90000D21304606F08EFA0B220E21304606F04C
:102AA00089FA8DF80550012508208DF80450009012
:102AB0008DF806408DF807406946624806F006FA30
:102AC000614EC6F88C42322006F5237609F0CAFD25
:102AD00035603D208DF808008DF809408DF80A40DA
:102AE0008DF80B5002A806F032F9FFF73FFF08B14E
:102AF0000020FEBD0120FEBD10B51F21002007F003
:102B00000DFCC0F3820010BD10B5504C01E009F07F
:102B1000EBFE206807F070FF0028F8D1402007F096
:102B2000AEFFBDE810404FF4803007F0A8BF70B58D
:102B3000464C00231A4621680D68002D0BDA4449E3
:102B400016464B691B0602D580234B618E600260DE
:102B50004260826070BD0D682D040AD40D68ED05D9
:102B600007D50D68AD0504D50A68C2F30D438A6820
:102B70001B1FCD6825600360C0E9012170BD354A87
:102B800011680B68002B01DA00207047C0F30C00BD
:102B90004860086840F040500860086840F0004015
:102BA00008602B4843695B0703D504234361002376
:102BB0004360C8681060012070472648006880683C
:102BC000704710B5244C0020216816F015FC002039
:102BD000616816F011FC0020A16816F00DFCE16898
:102BE000BDE81040002016F007BC70B5A021002001
:102BF00016F00BFC184CA0212060002016F005FCFC
:102C000041F6C45560602946002016F0FEFBA06026
:102C10002946002016F0F9FBE060216831B16168B7
:102C200021B1A16811B108B1002070BDFFF7C9FF43
:102C3000012070BD40000100000002400008024079
:102C400000180240000C0240008041426001002058
:102C5000009002405C010020F40000202DE9F047C4
:102C600098B001217A2006F034FB0121084606F0D5
:102C700044FB01258DF8045000244FF400408DF8EA
:102C80000640022600908DF805608DF807506946D1
:102C9000A54806F01BF98DF804604FF633708DF8E7
:102CA00006400327DFF884A200908DF805708DF8A8
:102CB00007506946504606F009F98DF804604FF652
:102CC00083708DF80640DFF8689200908DF80570EB
:102CD0008DF807506946484606F0F8F88DF804600C
:102CE0004FF23F008DF80640DFF8488200908DF8E3
:102CF00005708DF807506946404606F0E7F88DF8F4
:102D000004608DF806408DF805708DF8075040F28C
:102D10003F40894D00906946284606F0D7F80C22BE
:102D20000021504606F046F90C220121504606F0DB
:102D300041F90C220421504606F03CF90C220521F1
:102D4000504606F037F90C220821504606F032F9B9
:102D50000C220921504606F02DF90C220A2150467A
:102D600006F028F90C220B21504606F023F90C221C
:102D70001146504606F01EF90C220D21504606F071
:102D800019F90C220E21504606F014F90C220F21DD
:102D9000504606F00FF90C220021484606F00AF9C9
:102DA0000C220121484606F005F90C22072148466D
:102DB00006F000F90C220821484606F0FBF80C2228
:102DC0000921484606F0F6F80C220A21484606F08A
:102DD000F1F80C220B21484606F0ECF80C221146C3
:102DE000484606F0E7F80C220D21484606F0E2F8C6
:102DF0000C220E21484606F0DDF80C220F21484631
:102E000006F0D8F80C220021404606F0D3F80C2238
:102E10000121404606F0CEF80C220221404606F081
:102E2000C9F80C220321404606F0C4F80C22042104
:102E3000404606F0BFF80C220521404606F0BAF8DD
:102E40000C221146404606F0B5F80C220D214046F2
:102E500006F0B0F80C220E21404606F0ABF80C222A
:102E60000F21404606F0A6F80C220021284606F065
:102E7000A1F80C220121284606F09CF80C22022120
:102E8000284606F097F80C220321284606F092F80F
:102E90000C220421284606F08DF80C220521284634
:102EA00006F088F80C220A21284606F083F808204C
:102EB000CDE912401194169404201794CDE9020430
:102EC00014941020CDE90440159406940002CDE935
:102ED0000A4011A80994CDE90E4008940794109077
:102EE0000C940D9402A808F0A0F80121042008F029
:102EF00015F918B0BDE8F08710B5002A07D04FF0DB
:102F0000D04310F8014B5C54491C521EF7D110BD40
:102F1000002A07D04FF0D0435B5C491C00F8013B0E
:102F2000521EF7D17047000000040240000C02401E
:102F300000100240001402400018024038B5A820DA
:102F400009F06CFB04F056FA4FF4165009F06FFCD0
:102F50002448007809F000FC42F2080421460120D0
:102F600016F053FA204A03461060204A20485106C2
:102F7000009404F05AFCFFF775FC05F032FCFFF7F3
:102F80006DFE012016F09CF9002016F099F902F070
:102F900096FC002280217F2004F068F80A2009F0C6
:102FA00061FB03F0E5FB03F065FD05F04BFE04F06B
:102FB0002DF804F02DFD052018F0E8F90D48006803
:102FC00009F078FB012204210B4805F0E8FF0B49CA
:102FD0000120C1F8A00204F0C5FABDE8384001F0B4
:102FE000E3BF00005B0000209000002004100140BF
:102FF00040640240440000200010024000004342B0
:1030000000210170418081808171C1710172FF22B4
:1030100042728272C2720173417370472DE9F041AE
:1030200014460E4607461BF0A5FB05462246FAA1AC
:103030001BF05EFBF9A2FAA128461BF059FBFAA28D
:10304000FAA128461BF054FB28461BF03EF9044623
:103050001CF069F80246214638461CF024F8204648
:103060001CF061F830802846BDE8F0411AF06DBAD6
:103070002DE9F04114460E4607461BF07BFB054642
:103080002246E5A11BF034FBE9A2E5A128461BF08E
:103090002FFBE5A2E5A128461BF02AFB28461BF0E2
:1030A00014F904461CF03FF80246214638461BF04E
:1030B000FAFF20461CF037F830802846BDE8F04182
:1030C0001AF043BA0178622906D0422904D0702947
:1030D00026D0502924D051E041786D2901D04D29C6
:1030E0004CD18178702901D0502947D1C1785C2911
:1030F00044D1C1792E2941D1017A622901D04229D6
:103100003CD1417A6D2901D04D2937D1817A70297E
:1031100001D0502932D1C07A2B282FD101207047FD
:1031200041786C2901D04C2928D18178612901D0BE
:10313000412923D1C178792901D059291ED101799A
:103140002E2903D04C2901D06C2917D141796C2943
:1031500005D04C2903D0692901D049290ED18179A4
:10316000732901D0532909D1C179742901D0542977
:1031700004D1007A2B2803D05C2801D000207047AE
:1031800002207047F0B50746059800240AE03D5C30
:10319000165DB54202D02036B5420BD1401C641CEE
:1031A00080B2A4B2884201D29C42F0D39C4200D0AB
:1031B0000020F0BD001B401C80B2E6E710B50023E4
:1031C0001A4607E0845C303C0A2C05D25B1C521C7A
:1031D000DBB2D2B28A42F5D34FF6FF71062B58D23A
:1031E000DFE803F05703060E2037007830384EE052
:1031F000417800786FF02F02303800EB80000DE04E
:1032000001788278303901EBC10303EB011140787A
:1032100002EB810100EB80004FF6F05202EB400020
:10322000084434E00178C278303901EB4103C3EB44
:10323000C11102EBC1014278642312FB03F28078D2
:1032400000EB800002EB40000844A0F5A050D0380D
:103250001DE0017842F21072303911FB02F2417820
:1032600001EB4103C3EBC11102EBC102817801EB19
:10327000C10303EB011102EB8102C178007901EB7C
:10328000810102EB41010844A0F55040503880B262
:1032900010BD084610BDF0B500242546064623465D
:1032A00022460BE012B907782D2F10D0B75C303FC3
:1032B000092F05D8641CE4B2521CD2B28A42F1D361
:1032C000062C40D2DFE804F006080B16284401253E
:1032D000401CF1E70020F0BD0378303B33E041783B
:1032E00000786FF02F02303800EB800002EB4000D6
:1032F0000B1828E001788278303901EBC10303EB29
:103300000111407802EB810100EB80004FF6F05292
:1033100002EB4000084415E00178C278303901EB37
:103320004103C3EBC11102EBC1014278642312FBDC
:1033300003F2807800EB800002EB40000844A0F527
:10334000A050D03803B20DB1584203B21846F0BDB8
:10335000017842F21072303911FB02F2417801EB30
:103360004103C3EBC11102EBC102817801EBC10340
:1033700003EB011102EB8102C178007901EB8101BD
:1033800002EB41010844A0F550405038DAE718B587
:103390000446002000900823264A2046FFF7F2FE4C
:1033A000002808D020440321FFF708FFA0F57F4143
:1033B000FF3900D1002018BD0A2801D20120704732
:1033C000642801D202207047B0F57A7F01D2032031
:1033D000704742F21071884201D2042070470520E4
:1033E00070472DE9FF4FADF6B42D04460020CDF80F
:1033F000A80ACDF8A40ACDF8940AE07914281BD0C5
:10340000122824D0C10810FB01F1CDF8901A182819
:1034100018D0142816D020E0696400003230300043
:103420007374617475730000200000006D73670091
:1034300031303000080100204820CDF8900A1420D7
:10344000CDF8940A0120CDF8A80A302008E04821E0
:10345000CDF8901A1221CDF8941A010910FB01F051
:10346000CDF8980AB4F802A0A088CDF89C0AFC48D0
:103470000DF6AC220021006817F037FB0DF648016D
:10348000002019F025F8A379682B16D06B2B14D0E7
:10349000732B12D0662B10D06C2B0ED0E279F1A1D9
:1034A0000DF678201CF018FE01220DF678210DF59E
:1034B000806019F01AF8A8B906E0E279EEA10DF6DD
:1034C00078201CF009FEEFE7E279F0A10DF67820F4
:1034D0001CF002FE01220DF678210DF2246019F095
:1034E00004F858B10021084618F0F2FFDC480068E3
:1034F00017F087FB0DF6C42DBDE8F08FE079142896
:1035000001D11820E071002628E1DDF8B80ADDF8C5
:103510009C1A805DA0287CD98946DDF8941A14296C
:1035200027D0122925D0761CDDF8B81AB6B2A038FB
:10353000C0B2895D401EA039C0EB0012C9B202EBD7
:10354000401001EB4001DDF8900A491E41430DF5A2
:10355000806019F025FA0DF6A42369460DF5806008
:10356000DDF8902A19F05BF8E07900254FEAD00BDE
:103570004EE0761CDDF8B81AA138B6B2C0B2895D4B
:10358000C0EB0012A139C9B202EB401001EB4001BF
:10359000DDF8900ADAE75046002230E0C0490B8897
:1035A00083422ED9B1F803704F452AD9DDF8C03ACD
:1035B0008F7803EBD00309FB073110F0070334D0F9
:1035C00005EB020E91F800801DF80E70DFF8D0C2F6
:1035D000DF4048EA070881F80080C71ABCF800C03D
:1035E000083767450DDA1DF80E70C3F108039F40D8
:1035F0004B781F434F700830521C80B2D2B25A45EC
:10360000CCD309F101001FFA80F905EB0B0085B25C
:1036100000E00FE0DDF8900A8542BCD3E07994F930
:103620000810014401EB0A0094E0AF181DF80730C0
:103630000B70E0E78B46DDF8B81A314449786E2903
:103640001FD0DDF8941A142926D05C2829D0DDF883
:10365000981A10FB01F10DF2246019F0A1F90DF692
:10366000A42369460DF22460DDF8982A18F0D7FFEC
:10367000DDF8A80A0028E07917D0012101EB10102D
:1036800014E0E179B4F802A001EB0B0080B2761CE3
:10369000B6B2CDF89C0A5FE0203800EB4000010193
:1036A000D9E75C21DDF8980AD3E70009CDF8A00A34
:1036B000002044E05546002734E079480188A942BB
:1036C00034D9B0F803205A4530D9DDF8C01A8278D1
:1036D00001EBD50186460BFB021015F007014BD01C
:1036E00009EB070290F800C01DF802806B4628FA2B
:1036F00001F84CEA080C80F800C0A5EB010CBEF8FC
:1037000000800CF1080CC44510DA9A5CC1F1080184
:103710008A4041780A4342700835ADB208F055FF3F
:103720007F1CFFB2DDF8A00A8742C6D30BF101006F
:10373000DDF8A01A1FFA80FB09EB010080B2DDF86A
:10374000981A81468842B5D3E27994F908100AEBB9
:10375000520008441FFA80FA761CB6B2DDF8BC0AA3
:103760008642FFF4D2AE0DF5806019F010F90DF22B
:10377000246019F00CF9B5E609EB07021DF80210F8
:103780000170C9E730B5437B827BA1B004460A2BA8
:1037900001D244A100E048A117A81CF09DFC0DAA8D
:1037A0001DA917A804F0A7FF00281CD1BDF84200EE
:1037B00010AD182819D0042801D0082813D1A188E9
:1037C0006088CDE90B010E221DA907A81BF06BFC38
:1037D0001C22294668461BF066FC0DA890E80E00E6
:1037E00017A804F0D9FD21B030BDA1886088CDE9CB
:1037F0000B010E221DA907A81BF055FC1C2229460F
:1038000068461BF050FC0DA890E80E0017A804F0C5
:1038100011FDE8E770B50446007815460E4601280C
:1038200058D002285AD1607A20B1EAB2264B2046FD
:10383000FFF7D7FDA07A28B1EAB2244B31462046E3
:10384000FFF7CFFD16488079032847D1E07A00289A
:1038500044D0EAB231462046BDE870401C4BC0E57A
:10386000C8000020303A2F666F6E742F485A4B25DF
:1038700064732E62696E0000303A2F666F6E742F8B
:10388000485A4B256425632E62696E00303A2F66D4
:103890006F6E742F41534325642E62696E000000E1
:1038A00064F70020303A2F626D702F256330256455
:1038B0002E626D7000000000303A2F626D702F256F
:1038C0006325642E626D700064C7002064D70020F9
:1038D00064E700202046BDE8704053E770BD2DE945
:1038E000F04304460646ADF2144D0D4600204FF459
:1038F000806301466A4689461154401C80B2904656
:103900009842F8D30DF58060FFF77AFBE2E00422DD
:10391000FEA120461BF01CFC00287CD00422FDA147
:1039200020461BF015FC0028F7D00422FBA12046FE
:103930001BF00EFC0028F0D0A01BA8426BDA207808
:103940005C2801D00027A1E014F8010F63284FD0B4
:103950000CDC4E2870D004DC42281FD04328D5D17F
:103960000DE053283BD0622838D167E066282AD082
:10397000722869D0732861D079282FD136E0641C71
:1039800003212046FFF71AFCADF80204E41C0321D2
:103990002046FFF713FCADF804044DE001208DF83C
:1039A000000460788DF80E04A41C02212046FFF765
:1039B00005FC8DF80D04002211460DF58060A41C55
:1039C000FFF728FF9EE760788DF80604A41C02210B
:1039D0002046FFF7F3FB8DF80704241D7AE0641CF2
:1039E00002212046FFF757FC8DF80804A41C71E063
:1039F00002208DF8000414F8010F742826D003214A
:103A00002046FFF7DBFB8DF80904E41C0321204668
:103A1000FFF7D4FB00E063E08DF80A04E41C032107
:103A20002046FFF7CBFB8DF80B04E41C0321204656
:103A3000FFF7C4FB8DF80C04E41C4BE014F8010FF5
:103A4000742803D00C3445E00D3443E0641C41E09D
:103A50000422AEA120461BF07BFBE0B10422ADA105
:103A600020461BF075FBB0B10422ACA120461BF030
:103A70006FFB80B1A01BA8420DDA14F8011B08F8F7
:103A800007107F1C2078BFB25C2812D0C0B20D286E
:103A900001D00A28DCD13A4669460DF58060FFF76F
:103AA000B9FE0DF58060FFF7ABFA002049464246AB
:103AB0000EE060786628EED04228ECD04328EAD0A9
:103AC0005328E8D06328C3D1E5E71154401C80B2E5
:103AD000B842FAD320780D2802D00A287FF417AF15
:103AE0000DF2144D2046BDE8F083F8B505460020E0
:103AF00000900F4604238B4A2846FFF743FB2C18FF
:103B0000002857D003212046FFF758FB4FF6FF7CD3
:103B1000604550D0844E3070FFF74EFC0444641C66
:103B200005212046FFF74AFB604544D06421B0FBE5
:103B3000F1F17170FFF740FC044414F8010F0D28F7
:103B4000FBD00A28F9D02028F7D002212046FFF721
:103B500035FB60452FD00A2805D200EB400101EB70
:103B6000C001B17000E0B070FFF726FC044414F807
:103B7000010F0D28FBD00A28F9D02028F7D0022108
:103B80002046FFF71BFB604515D0F070FFF714FCD3
:103B9000204410F8011F0D29FBD00A29F9D0202953
:103BA000F7D0411B791A89B2FFF799FE002801D09E
:103BB000401B80B2F8BD0020F8BD70B504225A4900
:103BC00000200446401C80B201F8014B9042F9D31A
:103BD0000022564B544D0EE005EB02310020091D2A
:103BE00003E0401C01F8014B80B2B3F80760864245
:103BF000F7D8521C92B298799042EDD870BD2DE959
:103C0000F74FADF5596D00268A46054634464FF408
:103C1000006101A8CDF8806D1BF05EFACDF8845DDF
:103C20001AF0A8FD424DCDF87C0D287810B341A1C3
:103C30000DF668501CF050FA424F0DF688520021E4
:103C4000386816F052FF0DF62831002018F040FCBD
:103C500001220DF668510DF6040018F046FC58B12B
:103C60000021084618F034FC386816F0CAFF0DF63B
:103C70009C5D41E434A1DBE728780DF5586301A988
:103C80000DF60400DDF8102818F0C9FCDDF8100866
:103C900085B20DF6040018F07AFE0021084618F0EF
:103CA00017FC386816F0ADFFDFF8A8C04921742270
:103CB0009CF8000065236D274FF00A0B0A280FD2ED
:103CC0008DF8601D8DF8612D8DF8623D30308DF8D6
:103CD000637D8DF8640D05230DF55662009641E075
:103CE0008DF8581D8DF8592D5946B0FBF1F2303240
:103CF0008DF85C2DB0FBFBF200F101080BFB12000C
:103D00008DF85A3D8DF85B7D303025E04954454DA6
:103D1000000000006974656D000000004974656D65
:103D2000000000000401002060C7002064F70020AC
:103D30003D000020303A2F504C41594C2E4C5354EA
:103D400000000000C8000020303A2F504C41592E8E
:103D50004C535400EC0000208DF85D0D06230DF649
:103D600058520096294601A8FFF70CFAFC4907466D
:103D70009CF8000009780DF1040C0DF628290A289A
:103D8000A1F1010126D2884218DA9DF8640D0523BD
:103D9000401C8DF8640D0DF556622946604600966C
:103DA000FFF7F0F9C11B4846891F04E03A19624445
:103DB00052780255641CA142F8D837E0E91B484606
:103DC000491E04E0E219624452780255641CA14283
:103DD000F8D82BE0884220DA5846B8FBF0F1B8FB5F
:103DE000FBF20BFB128030318DF85C1D30308DF80A
:103DF0005D0D06230DF65852294660460096FFF7E2
:103E0000C1F9C11B4846891F04E03A19624452783F
:103E10000255641CA142F8D808E0484604E00CEBC7
:103E2000040149780155641CAC42F8D30DF62822F0
:103E3000CCA1DDF87C0D1AF05BFC2046FEF7A8FB58
:103E40001CF0AAF90546024621460DF62820FEF789
:103E5000A6FBAAF80000AFF64021DDF8982DDDF8AA
:103E60007C0D1AF045FCAFF64C22AFF64C21DDF884
:103E70007C0D1AF03DFC2A46BCA1DDF87C0D1AF041
:103E800037FC28461CF03CF9DDF87C0D1AF01DFAD1
:103E900004461BF048F902462146DDF8840D1BF06C
:103EA00002F920461BF03FF9AAF80000DDF87C0D6E
:103EB00019F04BFBDBE62DE9F04114462DED048BA8
:103EC00082B00D4606461AF055FC80462246AFF6F3
:103ED000B8211AF00DFCA6486A466421006816F065
:103EE000BEFB04469DF80000E8B1AFF6BC22AFF679
:103EF000D02140461AF0FCFB40461AF0E6F9044691
:103F00001BF011F90246214630461BF0CCF8204642
:103F10001BF009F92880404619F017FB02B0BDECF0
:103F2000048BBDE8F081AFF60C32AFF60C314046A1
:103F30001AF0DEFB207A9FED8F8B9FED909B462839
:103F400004D9B0EE480AF0EE680A03E0B0EE490A80
:103F5000F0EE690A8BA140461AF094FBA07A012882
:103F600060D0B0EE490AF0EE690A89A140461AF025
:103F700089FBE07A01285AD0B0EE490AF0EE690ACE
:103F800087A140461AF07EFB207B012854D0B0EE7A
:103F9000490AF0EE690A85A140461AF073FB607B7E
:103FA00001284ED0B0EE490AF0EE690A82A14046DF
:103FB0001AF068FBA07B012848D0B0EE490AF0EE69
:103FC000690A80A140461AF05DFBE07B012842D0DF
:103FD000B0EE490AF0EE690A7FA140461AF052FBA2
:103FE000207C01283CD0B0EE490AF0EE690A7DA1A0
:103FF00040461AF047FB40461AF067F907461BF0A7
:1040000092F80246394630461BF04DF838461BF010
:104010008AF82880404619F098FA21460D200CF0C5
:1040200093FE7BE7B0EE480AF0EE680A9DE7B0EE3B
:10403000480AF0EE680AA3E7B0EE480AF0EE680A14
:10404000A9E7B0EE480AF0EE680AAFE7B0EE480A1A
:10405000F0EE680AB5E7B0EE480AF0EE680ABBE792
:10406000B0EE480AF0EE680AC1E72DE9F041ADF57F
:104070008F6D054600200E46CDF86C041F46904615
:1040800018210DF254401BF027F85A4C0DF58E62A2
:104090000021206816F029FD89A9002018F018FADF
:1040A000B8B935B1012D07D0022D1CD0032D17D181
:1040B00008E0324650A101E0324653A10DF25440CF
:1040C0001CF00AF80A220DF25441684618F00DFA65
:1040D00060B10021084618F0FBF9206816F091FD48
:1040E0000DF58F6D1DE732464BA1E7E70DF26C43EE
:1040F0003A464146684618F034FB684618F047FCDB
:10410000E7E72DE9F04100240546274646A1FCF7E4
:10411000FBFB804647A12846FCF7A8FC064648A1C1
:104120002846FCF7F1FB05464046FEF760FB0028F9
:10413000404613D01AF0F7FF800800EB400084B22D
:1041400020461CF029F8074640461AF0ECFF0146CD
:1041500023463A464046FEF779FA87E076E00000CB
:10416000EB00002073637265656E00007069630088
:10417000AC000020000000000000F03F0000000044
:104180000000000074656D70657261747572650081
:10419000696E7465726E616C4661756C74000000C6
:1041A0006D6F64756C654661756C7400706F7765D2
:1041B000724661756C740000706978656C46617553
:1041C0006C740000636865636B53797374656D4646
:1041D00061756C74000000007370644661756C74E6
:1041E000000000006163506F7765724661756C7402
:1041F00000000000C8000020303A2F706C61796C1C
:104200006973742F25730000303A2F626D2F257368
:104210002E626D7000000000303A2F666F6E742FB2
:1042200025732E62696E000066696C65436F6E745B
:104230006578740066696C655479706500000000EB
:1042400066696C654E616D6500000000FEF7E9FA75
:1042500060B140461AF067FF84B220461BF09CFF15
:104260000746024621464046FEF79EFA23463A4656
:1042700029463046FFF7F9FE3846BDE8F0411BF00D
:104280003FBF2DE9F04786B08A46DDE90E78054646
:1042900099461446182168461AF01EFF1AF06AFA69
:1042A00006462A46F7A168461BF016FF4246AFF6BF
:1042B000986130461AF01CFA9FEDF40BAFF6A0613E
:1042C00030461AF0DFF9F3A2AFF6A06130461AF0DB
:1042D0000FFA4A46AFF2741130461AF009FA38461E
:1042E000FEF756F91BF058FF054602463946484688
:1042F000FEF755F920802A46AFF2D40130461AF075
:10430000F7F928461BF0FCFE304619F0DEFF0546A3
:104310001AF009FF0246294650461AF0C4FE284604
:104320001AF001FF2080304619F00FF906B0BDE801
:10433000F08730B5ADF2744D15460022CDF86824F3
:1043400020B1012806D0022844D11CE00A46AFF271
:10435000581101E00A46D1A10DF254401BF0BCFEF9
:10436000D24C0DF26C420021206816F0BEFB89A9E8
:10437000002018F0ADF801220DF25441684618F003
:10438000B4F820B90BE00A46AFF27411E4E700215B
:10439000084618F09DF8206816F033FC1AE0C4486F
:1043A00000784102684618F0FBFA0028EFD10DF5BD
:1043B0008D634FF400722946684618F030F968B1F1
:1043C0000021084618F084F8206816F01AFCB9A0FD
:1043D0001BF072FE00200DF2744D30BDDDF8680454
:1043E00085B2684618F0D3FA0021084618F070F834
:1043F000206816F006FC2846EDE72DE9F041ADF502
:10440000027D884605461E4617464FF4007102A8F5
:104410001AF062FEAFF2E4112846FCF727FB0446CF
:10442000AFF2E4112846FCF76FFA0546014602AAEE
:104430002046FFF77EFF0446CDE9004602AB3A4630
:1044400041462846FFF71DFF20460DF5027D68E531
:1044500030B5ADF50D7D0546AFF22821FCF706FB22
:104460000446AFF224212846FCF74EFA024624B156
:10447000012C05D0022C1ED121E0AFF2842101E0F5
:10448000AFF27C2128461BF027FE884C8CAA002125
:10449000206816F02AFB6946002018F019F8284613
:1044A00018F02FFC05460021084618F011F8206886
:1044B00016F0A7FB35B100200DF50D7D30BDAFF234
:1044C000A821DFE70120F7E72DE9F047ADF51E7DD4
:1044D000044600201E46154688468C908D908E908E
:1044E0008F901AF047F982461AF062F98146AFF2CE
:1044F000BC212046FCF7BAFA28B1012805D00228D1
:1045000058D16FA102E070A100E072A18CA81AF04E
:104510002CFE664C9DAA0021206816F0E6FA69463A
:10452000002017F0D5FFB0B98CA996A818F0D1FAE1
:1045300088B90DF2492790A996A818F0F1FA50B958
:104540009DF8490238B138461AF0BCF80146484691
:1045500019F08DFFEFE70021084617F0B9FF20683A
:1045600016F04FFB32465DA150461AF0C1F89FEDA0
:10457000470B5B4950461AF085F8594959A20C314E
:1045800050461AF0B5F84A4657A1504619F09BFF1D
:10459000504619F09AFE04461AF0C5FD024621461F
:1045A00040461AF080FD20461AF0BDFD2880504696
:1045B00018F0CBFF0DF51E7DB9E62DE9F74F044647
:1045C0002DED0C8B98B04FF000094D4614210BA82F
:1045D0001AF082FD182101A81AF07EFDAFF6C40082
:1045E000D0E90010CDE907101AF0C4F812901AF0C3
:1045F000DFF816901AF0DCF8159021463DA01BF06C
:104600005BFD3FA2AFF2D43112981AF071F83FA2CD
:104610003FA112981AF06CF83FA120461AF067FDEE
:104620009FED3E8B9FED3FAB4FF03D0A00276FF0B3
:104630002F069FED3EBB9FED3FCB9FED40DB9FEDF7
:10464000419B00281DD00020009008233FA2204657
:104650002599FEF797FDB34608E009EB89030BEBBC
:1046600043021144401C1FFA81F980B2215CA1F180
:104670003002092AF1D9494637A01BF01DFD002060
:10468000CFE1D3E1303A2F25730000000000000095
:10469000000069404241534536340000303A2F62F1
:1046A0006D702F25732E424D50000000C800002071
:1046B000DC000020B6C1C8A1CAA7B0DC0D0A00000A
:1046C000303A2F666F6E7400303A2F706C61796CDF
:1046D00069737400303A2F626D70000069640000E5
:1046E000203401082000000066696C654C69737411
:1046F000000000006C6973742025730D0A0000002F
:10470000706C61795461626C6500000031000000DA
:1047100076657273696F6E005C43000000000000F4
:104720000000F03F000000000000594000000000C1
:1047300000405F400000000000805F40000000007B
:1047400000C05F4000000000000000004974656D7B
:104750005F6E6F3D00000000D6A1CAFD25640D0A02
:10476000000000001AF024F814901AF003F80A90E0
:104770001AF000F8109019F0FDFF179019F0FAFFE9
:10478000119019F0F7FF139019F0F4FF0990B8F1A8
:104790000A0F06D208F130008DF820008DF821A014
:1047A0000EE00A20B8FBF0F1B8FBF0F2303100FB6C
:1047B00012808DF8201030308DF821008DF822A065
:1047C00007A81AF0B0FC024607A9FCA01BF074FC75
:1047D00007A81AF0A8FCC3B20020009007AA204640
:1047E0002599FEF7CFFC06465F4607E005EB8501FD
:1047F00007EB41010844761C85B2B6B2A05DA0F17A
:1048000030010929F2D92946F0A01BF055FC2846B1
:104810001AF0BAFF41EC100BEFA1109819F032FF1B
:104820000025761CB6B2BB4607E005EB85020BEB14
:1048300042010844761C85B2B6B2A05DA0F13001F9
:104840000929F2D92946E6A01BF036FC28461AF0C1
:104850009BFF41EC100BE5A1119819F013FF002507
:10486000761CB7B25A4607E005EB850102EB410121
:1048700008447F1C85B2BFB2E05DA0F13001092978
:10488000F2D92946DBA01BF017FC28461AF07CFF62
:1048900041EC100BDAA1119819F0F4FE0026E01992
:1048A000D9A11AF024FC001B801C87B20BA92E2270
:1048B0000DE08855761CF6B2032E03D0072E01D0EA
:1048C0000B2E02D18A55761CF6B27F1CBFB2E05D7A
:1048D000A0F13003092BECD9CCA01BF0EDFB0BAA07
:1048E000CEA1179819F004FF002001AA04E011548A
:1048F000401C7F1CC0B2BFB2E15D0D29F7D111464B
:10490000C9A01BF0D9FB01AACAA1139819F0F0FEA7
:10491000AFF23822AFF23C21099819F0E9FEB0EE6F
:10492000480AF0EE680AC5A1099819F0ABFEB0EE8E
:104930004A0AF0EE6A0AC3A1099819F0A3FEB0EE84
:104940004B0AF0EE6B0AC0A1099819F09BFEB0EE7D
:104950004C0AF0EE6C0ABDA1099819F093FEB0EE76
:104960004D0AF0EE6D0ABBA1099819F08BFEB0EE6E
:10497000480AF0EE680AB9A1099819F083FEB0EE72
:10498000490AF0EE690A99A10A9819F07BFEB0EE87
:10499000490AF0EE690AB4A10A9819F073FEB0EE64
:1049A000490AF0EE690AB2A10A9819F06BFEB0EE5E
:1049B000490AF0EE690AB0A10A9819F063FE19F0ED
:1049C000B3FD0246AEA1109819F07DFD19F0ACFDC3
:1049D0000246ADA1109819F076FDAEA1109A0A9882
:1049E00019F071FDAEA1179A0A9819F06CFDAFA1EC
:1049F000119A0A9819F067FDAFA1139A0A9819F055
:104A000062FD0A99149819F032FDADA1149A099823
:104A100019F059FD0999159819F029FD08F10100BF
:104A200080B280464845FFF49DAEF3E1AFF2183105
:104A300020461AF05CFB00287DD000200823AFF24E
:104A4000F422009020462599FEF79CFBB34608E02F
:104A500009EB89030BEB43021144401C1FFA81F957
:104A600080B2215CA1F13002092AF1D94946AFF2A6
:104A700018301BF021FB0026C9E119F099FE1490B3
:104A800019F078FE0A9019F075FE109019F072FE78
:104A900019F070FE119019F06DFE139019F06AFE76
:104AA00009900A2E06D206F130008DF820008DF80C
:104AB00021A00EE00A20B6FBF0F130318DF8201075
:104AC000B6FBF0F100FB116030308DF821008DF85D
:104AD00022A007A81AF027FB024607A937A01BF05F
:104AE000EBFA07A81AF01FFBC3B20020009007AA38
:104AF00020462599FEF746FB0746D84607E005EB1A
:104B0000850208EB420108447F1C85B2BFB2E05D1C
:104B1000A0F130010929F2D929462CA01BF0CCFACA
:104B200028461AF031FE41EC100B2BA1109819F019
:104B3000A9FD002506E08EE105EB850208EB4201A8
:104B4000084485B27F1CBFB2E05DA0F130010929A5
:104B5000F2D9294622A01BF0AFFA28461AF014FE1B
:104B600041EC100B21A1119819F08CFD00257F1C40
:104B7000BFB2414607E005EB850201EB420210445B
:104B80007F1C85B2BFB2E05DA0F13002092AF2D9E4
:104B9000294618A01BF090FA28461AF0F5FD41ECC2
:104BA000100B17A1119819F06DFD4FF00008E019D6
:104BB00045A11AF09CFA01AA90E0000074616220FD
:104BC00025732C2025640D0A0000000064656C61CB
:104BD000792025640D0A0000746F74616C00000078
:104BE000747970652025640D0A0000007479706581
:104BF0000000000073706565642025640D0A0000E4
:104C000073706565640000005C6300006261636B43
:104C1000436F6C6F722025730D0A00006261636B35
:104C2000436F6C6F72000000746578742025730DFB
:104C30000A00000074657874000000006C617965FA
:104C40007200000078000000790000007769647449
:104C500068000000686569677468000072656769CC
:104C60006F6E4C6F6F700000616C69676E000000C2
:104C700066737061636500006C737061636500004A
:104C800064656C6179000000706C6179436F756ECA
:104C9000740000006475726174696F6E000000003A
:104CA0006261636B47726F756E6400007472616E4F
:104CB000736974696F6E0000636F6E74656E740063
:104CC0006974656D730000005C42000002F8080022
:104CD00008F101007F1C00F0FF08BFB2E05D0D2865
:104CE000F4D11146A1A01BF0E7F901AAA2A11398E3
:104CF00019F0FEFCAFF21C62AFF22061099819F0C6
:104D0000F7FCB0EE480AF0EE680AAFF2D00109985D
:104D100019F0B8FCB0EE4A0AF0EE6A0AAFF2DC0114
:104D2000099819F0AFFCB0EE4B0AF0EE6B0AAFF247
:104D3000E801099819F0A6FCB0EE4C0AF0EE6C0AF6
:104D4000AFF2F801099819F09DFCB0EE4D0AF0EEB3
:104D50006D0AAFF20011099819F094FCB0EE480A00
:104D6000F0EE680AAFF20C11099819F08BFCB0EE66
:104D7000490AF0EE690AAFF28C110A9819F082FC28
:104D8000B0EE490AF0EE690AAFF224110A9819F060
:104D900079FCB0EE490AF0EE690AAFF22C110A98DC
:104DA00019F070FCB0EE490AF0EE690AAFF2381162
:104DB0000A9819F067FC19F0B7FB0246AFF24011F0
:104DC000109819F080FB19F0AFFB0246AFF24811C2
:104DD000109819F078FBAFF24411109A0A9819F064
:104DE00072FBAFF23811119A0A9819F06CFBAFF20E
:104DF0003811139A0A9819F066FB1499099819F05A
:104E000036FB0999159819F032FB761CB6B24E455F
:104E1000FFF433AEDDE9151019F029FB58A1169AFD
:104E2000129819F050FB129819F04FFA0446129894
:104E300018F08BFB20461AF076F902462146269898
:104E40001AF031F9214650A01BF036F918B0BDEC2C
:104E50000C8BBDE8FE8F02234DA2009720462599BA
:104E6000FEF790F9F2E72DE9F84F1446884681469F
:104E700019F080FC824600252246AFF2A07119F09D
:104E800037FC0120FCF701FF424F6A466421386875
:104E900015F0E5FB06469DF800004FF4807458B10C
:104EA0003D4A5046A2F1100119F022FC33A23BA169
:104EB000504619F01DFC16E0374A5046143A111DB1
:104EC00019F016FC4FF4C8701BF066F90546002077
:104ED0003118097A2954401C80B2A042F8D33146D7
:104EE0000D200BF031FF0220FCF7CFFE6A46642153
:104EF000386815F0B4FB06469DF8000058B1264A04
:104F00005046A2F1100119F0F3FB1CA223A1504658
:104F100019F0EEFB15E04FF4C070311911F8F81CD0
:104F20002955641CA4B28442F7D32A461BA15046DB
:104F300019F0DEFB28461BF0E3F831460D200BF09C
:104F400003FF504619F0C1F904461AF0ECF8024686
:104F5000214648461AF0A7F820461AF0E4F8A8F8C7
:104F60000000504618F0F1FABDE8F88F66696C65EC
:104F70002025730D0A00000066696C6500000000C2
:104F80007363656E7365000025730D0A00000000F1
:104F90005C560000B00000203034010862616450AB
:104FA0006978656C4D61700010B545F2555007F099
:104FB00003FB062007F003FB40F2E73007F002FB9B
:104FC00007F003FBBDE8104007F004BB07F0FDBA93
:104FD000FE4900200860091D0860091D0860091DC0
:104FE0000860FA4924310860091D0860091D08603D
:104FF000F64AF74938321160111D086070470021E8
:10500000012803D010B1262108467047F14A50709C
:10501000FAE7EE4A121D116821F0FF010143116009
:10502000704710B50446E9483430016811F0450F67
:10503000FBD0042007F07FFA20B1042007F084FAA7
:10504000032010BD012007F076FA20B1012007F0FF
:105050007BFA012010BDDD4810300068A04201D06D
:10506000102010BD40F2FF5007F06EFAD748143000
:10507000006800F0080010BD2DE9FC5F0024D64F49
:1050800000944FF4806801944025C7F81080C7E968
:1050900002540E464FF0080B1021C7E900B1A1469B
:1050A000384607F0C3F91020FFF7BBFF002855D1A1
:1050B000C848AA464D460089000438603720C7E931
:1050C000010AC7E90398384607F0B0F93720FFF71F
:1050D000A8FF002842D1411E07F11400C0E9001BBF
:1050E000302181600221C0E903150121416107F0EF
:1050F000C3F93320C7F808A0C7E90050C7E903582F
:10510000384607F093F93320FFF78BFF050025D1D0
:10511000DFF8B882DFF8B4924FF4001B6F4608F155
:10512000800809F1340940F22A6AD9F8000010EA2F
:105130000A0F0BD1584607F0FEF90028F5D0D8F831
:10514000000047F82400641C022CEED3082007F06E
:10515000F2F928B1082007F0F7F90420BDE8FC9F18
:10516000022007F0E8F920B1022007F0EDF9022053
:10517000F4E7202007F0DFF920B1202007F0E4F960
:105180000620EBE74FF40074204607F0D4F920B175
:10519000204607F0D9F90720E0E740F2FF5007F07A
:1051A000D3F9009800BA7060019800BA30602846C0
:1051B000D4E72DE9FC41002600963546019600B162
:1051C0000225824814300068800102D50E20BDE817
:1051D000FC81804C6946208980B2FFF74DFF002892
:1051E000F5D10198400322D520897B4C00044FF073
:1051F000400820603720C4E901084FF4806720464A
:10520000C4E9036707F012F93720FFF70AFF002807
:10521000DDD10620C4F80880C4E90050C4E9036762
:10522000204607F003F90620FFF7FBFECFE7252015
:10523000CDE710B56749044600200978032918D046
:1052400019B1012901D0022912D1B4F5805F10D023
:10525000E0B2FFF7AEFF00280AD15C49091D0A68D9
:1052600022F4C0520A600A6822430A600A680A608F
:1052700010BD272010BD584910B5086007204860B0
:10528000402088600020C8604FF4806008610846B4
:1052900007F0CCF8BDE810400720C2E62DE9F04742
:1052A0004C49DFF834A14FF0000C0B7880F85630F1
:1052B00009890AF12C0AA0F85410DAF800104FF00E
:1052C00001090A0E95090570C2F38305457002F0C5
:1052D000030282700A0CC2700A0A02714171DAF884
:1052E0000420110E0C01C2F3074144EA111401F02D
:1052F0000F08C480C2F3072180F80880CC094472EB
:10530000C1F380148472C1F34014C472C1F3001459
:105310000473544680F80DC0A468260EC4F30745F4
:10532000C4F3072733B1012B04D0032B02D0022B87
:1053300030D03EE08907090DD2B241EA820141EA4C
:105340009612C6F3C2010261017506F007014175AC
:1053500069098175C5F38201C175A9074B0F3946EB
:1053600043EAD1150576AD1C09FA05F3DE17521C88
:10537000A2FB03570CFB037302FB063309FA08F286
:10538000A5FB0267026503FB027205FB0C22C0E964
:1053900012620EE09106890A41EA06222A4302615E
:1053A000521C530BD204C0E912234FF40072394649
:1053B0000265C1F38012427689064A0EE1B242EAE2
:1053C000D11200F81A2F01F07F0107E0002C0140F4
:1053D000FF07C0001401002058FC00204170DAF8DB
:1053E0000C20110ECB098370C1F34113C370C1F3BC
:1053F0008203037189070B0FC2F3074143EA91133C
:105400004371C1F34013837180F807C001F00101BB
:105410000172C2F30721CB094372C1F38013837277
:10542000C1F34013C372C1F300130373C1F38103CB
:10543000437301F003018173C2F34601C1734B460C
:1054400080F81090FE4A11680C0E84740C0CC1F3A5
:10545000072545EA042484820C0651680D0E44EAAF
:105460000544C1F3074544EA0524C1F307252C434D
:10547000C0F8164000F81A1F91680C0E44700C0C0E
:10548000C1F30725240644EA0544C9B244EA0124CD
:10549000D16844EA11644460047AC1F3074244EAE3
:1054A00012140472C1F30724120744EA1252428113
:1054B000C1F34601017343736046BDE8F08710B540
:1054C00000244FF48031DF4809E0026812F0450FF4
:1054D00005D009B1500705D5032404200CE0491E6E
:1054E000F3D2F7E7012007F026F818B1012420468F
:1054F00007F02AF840F2FF5007F026F8204610BDCA
:1055000070B50646CF480D460024026812F0450FDC
:10551000FBD0042007F00FF820B1042007F014F8A6
:10552000032070BD012007F006F820B1012007F02C
:105530000BF8012070BDC34824380068B04212D176
:1055400040F2FF5007F000F8BE482038026812F41D
:10555000604F03D0900404D5132070BD100C288038
:1055600007E0500401D5102070BD100401D50F20B4
:1055700070BD204670BD2DE9F84F0120ADF8000048
:1055800006F04EFFC8B3B04F387804287ED0AC4C3C
:1055900000253C3C0220E4E80250C0204FF4806625
:1055A00084E86100A648083C3C3806F03FFFFFF75E
:1055B00086FF002823D1DFF88CA2AAF1200ADAF8AE
:1055C00000109F480AF1040B0160DBF800104160F5
:1055D0000BF10401096881609A4914390968C160B6
:1055E00038784FF003084FF0400950B1012808D037
:1055F000062806D0022804D011E0FFE72520BDE8E8
:10560000F88F84E820038E48C4E903563C3806F03E
:105610000DFF69460320FFF773FF0028EFD13878AC
:1056200003280ED1BDF80000000484E8010384487B
:10563000C4E903563C3806F0F9FEFFF740FF0028A6
:10564000DDD13878042823D0BDF80000B86000040C
:1056500001C4092001C4C02084E8610078483C38B6
:1056600006F0E4FEFFF72BFF0028C8D1DAF800109F
:10567000734810380160DBF8001041607149183937
:10568000096881606F491439096800E000E0C16071
:105690000020B4E710B56B49086810F0450FFBD047
:1056A000042006F048FF20B1042006F04DFF03203F
:1056B00010BD40F2FF5006F047FF002010BD10B5AE
:1056C00000244FF480325F4809E0016811F0450F73
:1056D00005D00AB1480705D50324042006E0521E70
:1056E000F3D2F7E7480603D50024402006F02CFF4C
:1056F000204610BD70B500254FF4803405E08020B1
:1057000006F019FF08B144B101E0641EF7D240F27F
:10571000FF5006F019FF284670BD032070BD2DE92B
:10572000F05F00274648762154383E4601750760F1
:1057300047608760C7603C463D46B946B84607614A
:1057400006F04AFE032006F067FE3E483038016846
:1057500041F480710160DFF8E8A04FF4806BAAF19A
:105760003C0A3748CAF80080CAF80480CAF80880A2
:10577000CAE9038B3C3806F059FEFFF7BBFF28B19E
:105780007F1CFFB24A2FECD3BDE8F09F4FF4D570D9
:10579000CAF8000008205746CAF804004020C7E9AC
:1057A00002080001CAF8100025483C3806F03EFE09
:1057B000FFF785FF20B9244901204FF08049087088
:1057C000BA46384641463722402780E88600C0F86E
:1057D0000C801B483901C3463C38CAF8101006F04B
:1057E00025FE3720FFF71DFC4FF6FF7880B35646A5
:1057F000DFF85090BA464FF4806B0127A9F12009D9
:105800003DB354E055463720C5E900B04FF48068F9
:10581000CAF810800A48C5E9027B5E463C3806F0AB
:1058200005FE3720FFF7FDFB0028ADD1074949EA07
:10583000010028602920C5E90107C5E9036809E0DE
:1058400094FC0020342C0140140100200000108042
:105850000BE02AE0FB4806F0E9FDFFF71BFF0028FC
:1058600092D1F9490E68F50F641C1DB94FF6FF710E
:105870008C42C7D34FF6FF718C421AD216F0804F7C
:1058800082D0022218E0F14886E881040020C6E9AF
:10589000030BEC4806F0CAFDFFF7FCFE0028C4D15C
:1058A000D9F80010CD0F641CAAE74445EBD344455A
:1058B00001D31B2068E70322E5490A7064E72DE95C
:1058C000FE4300250121E34803F003FD0121CE0240
:1058D000304603F026FD0121304603F054FD4FF41D
:1058E000F850009002208DF8040003208DF8050088
:1058F0000024DFF864938DF8064001278DF80770C7
:105900006946484603F0E2FA0420DFF8508300902D
:105910006946404603F0DAFA0C220821484603F0B3
:1059200049FB0C220921484603F044FB0C220A21C2
:10593000484603F03FFB0C220B21484603F03AFB9C
:105940000C221146484603F035FB0C22022140464A
:1059500003F030FB0021304603F015FDFFF738FB64
:1059600031208DF808008DF809408DF80A408DF837
:105970000B7002A803F0EBF9FFF7D1FEB14C5034E5
:1059800080B9FFF7F8FD68B92046FFF787FC48B9F2
:10599000B4F854000004FFF76EFC18B93046FFF766
:1059A00048FC18B1AA49097803290BD194F856008C
:1059B00008B1012800D102252846FFF72AFB002064
:1059C000FFF71DFBBDE8FE8310B5002006F024FDA7
:1059D000002010BD70B5A24E90B01546044630466A
:1059E00006F063FC0028FAD1304606F059FB4FF070
:1059F00000600090944801A96C3081E831000020DB
:105A00004FF480610490CDE9050189000791890078
:105A1000CDE908104FF440300A9004200B90032089
:105A20000C9048020D9080100E906946304606F0AA
:105A3000BFFB2021304606F008FC0121304606F06D
:105A4000F0FB10B070BD002102E04008491CC9B253
:105A50000128FAD1084670472DE9F84F17460A9EEB
:105A600005004FF0FF3466D0DFF8DCA100200AF11A
:105A7000180ACAF80000DFF8D89199F80010022936
:105A800003D10E02570A47EAC35701466D48012267
:105A90001430A0468160C0E90041C160C0E9041231
:105AA00006F0EAFC68480068800101D50E20A6E5F2
:105AB000701EB0F5006F3ED206423CD13046FFF773
:105AC000C2FF00905F4810214FF4806BC0E9006175
:105AD000402181600021C0E9031B06F0A7FC1020D3
