:0800030025302E32660D0A00C3
:060DC6000414000000000F
:100C3900E4F522120C87120E22120DDFD2AF120E2A
:100C49006D120BE88F22E522B4011C120D3F8F179C
:100C59008E168D158C147BFF7A0079038F298E28C7
:100C69008D278C26120665D3E509950BE508950AAB
:0E0C790040CFA284B39284E4F508F50980C34D
:100C87005393CF43943043930F5394F043910853B6
:100C970092F75391EF4392105391DF5392DF53959D
:100CA700EF4396105395DF5396DF5395FE43960116
:070CB70053B3E043B41F2218
:100DCC000410000000000408000001F4040C0000F2
:020DDC0001F420
:03000B00020CBE26
:100CBE00C0E0C0D0E5132401F513E43512F512E4BB
:100CCE003511F511E43510F5100509E50970020529
:0E0CDE0008050DE50D7002050CD0D0D0E032F7
:100CEC00EF2513F527EE3512F526E43511F525E43D
:100CFC003510F524AF13AE12AD11AC10AB27AA26EC
:0A0D0C00A925A824D31205BC50EA63
:010D160022BA
:100E2200438E805389F0758A40758CA2C28DD28C14
:030E3200D2A92220
:100DDF00759850438E40538EFE53890F758B8F75C8
:090DEF008DFDC2ABD28EC2AC2214
:080E47008F993099FDC2992238
:080E4F008F993099FDC2992230
:100D17008B188A19891AED1DAE0470011C4E6017D5
:100D2700AB18051AE51AAA197002051914F9120564
:080D370056FF120E4780DF2277
:100BE800E4F52320800F7F0AFE120CEC20800675A6
:100BF80023013080FD2081107F0A7E00120CEC203A
:100C080081067523023081FD2082107F0A7E001242
:100C18000CEC2082067523033082FD2083107F0AA6
:100C28007E00120CEC2083067523043083FDAF236D
:010C38002299
:040086007F26DFFEF4
:01008A002253
:040E5E007F0EDFFE26
:010E6200226D
:040E63007F16DFFE19
:010E67002268
:040E68007F2EDFFEFC
:010E6C002263
:100E0E00D2A5120086D2A4120086C2A5120086C2F6
:040E1E00A4020086A4
:100E3500C2A4120086C2A5120086D2A4120086D2D0
:020E4500A522E4
:020D88008F2FAB
:100D8A00753008E52F30E7057531018003E4F53148
:100D9A00AF31120DF8E52F25E0F52FD530E5020D1C
:010DAA00AB9D
:100DF800EF7004C2A58002D2A5120E5ED2A4120E14
:060E080068C2A4020E63A3
:100DAB00D2A5120E5ED2A412008630A5047E01805D
:0A0DBB0002E4FEC2A4120E63AF06AC
:010DC500220B
:020D6400AC07DA
:100D66007B08120DABEF6009ED25E0FD4305018020
:100D760007ED25E0FD5305FEDBE8AF04120DF8AFE5
:010D86000567
:010D87002249
:050E6D00D2A4D2A52271
:04000E008F238D248B
:10001200E4F526F527F52EE52325E0F523120E3526
:10002200152EE52E6057120E0EAF23120D88EF70BB
:10003200ECAF24120D88EF70E4120E0EE52304FFDC
:10004200120D88EF70D7FF120D648F26E4FF120D98
:10005200648F277F01120D648F25120E3585232DA3
:1000620085242CE52304F52B85262A852729E4F50A
:1000720028FB7A007928120A72EFB525A0E527FE3F
:03008200E526FF71
:010085002258
:060A72008B2F8A30893150
:100A780075382FE4F537F536F535F53475330175E6
:100A8800320775382FF539753A05F53BAB2FAA3083
:100A9800A931853A8275830012056FFD7C007E00BE
:100AA8007480A83B088006CEA2E713CE13D8F8FFBF
:100AB800EE5CFEEF5D4E701AE53AD39400401315D4
:100AC80038E53B94075004053B80C1E4F53B153AF3
:100AD80080BAE53824F8F539E5396040753A05E516
:100AE8003AC394FF50327431253AF8E630E70CE502
:100AF8003AD394004005753C018003E4F53C743218
:100B0800253AF8C000E625E0D000F67432253AF818
:100B1800E53C26F6153A80C7153980BCE4F53AABB2
:100B28002FE531253AF9E43530FA120556FF7432CB
:100B3800253AF8E66F12059C053AE53AB406E0E571
:100B480038D394084003020A7BAB2FAA30A931128C
:030B58000556FF40
:010B5B002277
:100D3F007D07E4FF12000EAC06AD07E41202917BB3
:100D4F000A7AD779A3783C1201867B337A93798814
:050D5F0078C3020095BD
:03008B00020E76EC
:010E76003249
:070E570053BAFD43AF08226E
:040E7200438702228E
:03000000020B5C94
:0C0B5C0078EFE4F6D8FD75813E020BA393
:10008E000202FFE86480F8E933E83360110460F09F
:10009E00ED33EC337009E8FCE9FDEAFEEBFF2204D8
:1000AE0060DED3EB9FEA9EE99DE8C2E78CF0C2F7D3
:1000BE0095F0400CE8CCF8E9CDF9EACEFAEBCFFB9F
:1000CE001202CA85D0F05804700320D5B3E804702C
:1000DE00075002B2D502030992D5EC0460F7E4CCC6
:1000EE00C0E0C398F8603B94186008400DD0E0FB68
:1000FE000202E1E4FBFAC9FC8028E830E406E4C918
:10010E00FBE4CAFCE830E305E4C9CACBFCE85407BB
:10011E006010F8C3E913F9EA13FAEB13FBEC13FCC6
:10012E00D8F130F52FC3E49CFCEF9BFFEE9AFEED69
:10013E0099FDD0E0FBEF4E4D4C701222DB03020313
:10014E0006EC2CFCEF33FFEE33FEED33FDED30E726
:10015E00EB0202E1EF2BFFEE3AFEED39FDD0E0FBB4
:10016E0050130BBB0003020309ED13FDEE13FEEF5C
:08017E0013FFEC13FC0202E187
:10018600EC4D6011E8497017ED33EC3304600DE473
:10019600FCFFFEFD22E933E8330470F80202FF1289
:1001A60002CA58046009E4CC24815006285009028A
:1001B6000309284003020306C0E0EB4A7044B980F5
:1001C60006D0E0FB0202F5EF4E701CBD8008EBFF87
:1001D600EAFEE9FD80EBE98DF0A4FEE5F002026F90
:1001E600E9CDF9EAFEEBFFEF89F0A4FCE5F0CE8954
:1001F600F0A42EFFE435F0CD89F0A42DFEE435F011
:100206008067EF4E7005BD80D780C3EF8BF0A4AC3E
:10021600F0EE8BF0A42CFCE435F0F8EF8AF0A42C79
:10022600E5F038FCE433CB8DF0A42CFCE5F03BF88C
:10023600EE8AF0A42CFCE5F038F8E433CF89F0A47C
:100246002CFCE5F038CF3400CE89F0A42FFFE5F082
:100256003EFEE433C98DF0A42EFEE5F039CD8AF0DA
:10026600A42FFFE5F03EFEE43DFD33D0E0FB500752
:100276000BBB000F020309EC2CFCEF33FFEE33FE41
:06028600ED33FD0202E170
:10028C0075F020800E75F010800575F0087D007EED
:10029C00007F003392D530D5031205AEEC334010FD
:1002AC00EF33FFEE33FEED33FDEC33FCD5F0ED22F6
:0E02BC00E5F0247EA2D513CC92E7CDCEFF2232
:10060300E53A2426F8E6053A2278233007027826CD
:10061300E475F0011205CD0205562000EB7F2ED2C2
:10062300008018EF540F2490D43440D4FF30040BCF
:10063300EF24BFB41A0050032461FFE53B600215A9
:100643003B053EE53E7002053D30070D7823E4751A
:10065300F0011205CDEF02059C020E4F7403D20781
:100663008003E4C207F53A8B238A248925E4F53B0A
:10067300F53DF53EE53B60077F2012063E80F575AC
:100683003CFFC201C200C202C203C205C206C208C5
:1006930012060CFF700D3007057F0012064FAF3EA8
:1006A300AE3D22B4255FC2D5C20412060CFF24D08E
:1006B300B40A00501A75F00A783B30D50508B6FF26
:1006C3000106C6A426F620D5047002D20380D924DD
:1006D300CFB41A00EF5004C2E5D20402093CD201A0
:1006E30080C6D20080C0D20280BCD2D580BAD205E7
:1006F30080B47F2012063E2002077401B53B004000
:10070300F1120603FF12063E020677D208D20680D4
:1007130095120603FB120603FA120603F94A4B70FD
:100723000679337A0A7BFF20022EE53B602A7E009E
:100733008E8275830012056F60060EEE653C70F0C5
:10074300C2D5EBC0E0EAC0E0E9C0E0EE12099CD0FC
:10075300E0F9D0E0FAD0E0FB120556FF60AAEBC047
:10076300E0EAC0E0E9C0E012063ED0E02401F9D09F
:10077300E03400FAD0E0FBE53C0460DCD53CD980F2
:1007830087D20280A212097F60F7E53C7001041250
:100793000314A93C600DE53C600914F53C120A26DC
:1007A300EF60F3EA30E702F404C3995077EAF425E3
:1007B3003C0430E701E404F53C800D12097F60C17D
:1007C300EA053C253C120314EA7839F630E701E4E4
:1007D300253C04D53C042005011412099CE4C0E027
:1007E300120A267839E6601320E70714F612062664
:1007F300802204F6D0E014C0E07F00120626E53C18
:10080300600712061D153C800B30050312061DD030
:10081300E0020677D0E00480C512097F60A0E53CC2
:10082300041203147839EAF6E53C2005026001045A
:05083300240412099CE1
:1008380074FF04C0E0120A26120626E53C200502D1
:10084800600312061DD0E0B53CE87F4512063078FB
:1008580039E67F2B30E7047F2DF404C0E012063E12
:10086800D0E075F00A84C0F0120627D0E0120627FF
:10087800020677791080027908C206C2088008D279
:10088800D5790A8004790AC2D5E53C047002F53CA2
:10089800E4FAFDFEFF120603FC7B08200113120692
:1008A80003FD7B1030000A120603FE120603FF7BCD
:1008B80020EC3382D592D55013C3E43000069FFF55
:1008C800E49EFEE42001039DFDE49CFCE4CBF8C219
:1008D80001EC700CCFCECDCCE824F8F870F380177B
:1008E800C3EF33FFEE33FEED33FDEC33FCEB33FBAC
:1008F800994002FB0FD8E9EB300105F8D0E0C44875
:10090800B201C0E00AEC4D4E4F78207B0070C2EA7D
:10091800B53C0040BCC0E012099ED0F0D0E02001F8
:1009280004C4C0E0C4B201C0F0120627D0F0D5F06C
:10093800EB0206771205DD071453087B5806E54CD1
:1009480006E142087F4F08874408874906FA4308AA
:100958008D5507BE46081C450788470A535006E9C7
:100968002D06ED2E07102B06F123070E200A3C2A30
:1009780006A94800000708E53CB4FF03753C0612C9
:100988000603FC120603FD120603FE120603FF7897
:1009980032020343790AA2D5200314300509B9109D
:1009A800020404B9080104A2D5200602500104205B
:1009B80002689202B53B005034C0E07F2030031932
:1009C8007F30A20272067205500F1209F5C202C2E8
:1009D80006C205C2087F30800F300503E9C0E01267
:1009E800063E300503D0E0F9D0E0B53BCC30051722
:1009F8007F30B9100C12063E7F583004077F78808C
:100A080003B9080312063E3002057F2D02063E7F19
:100A1800202008F87F2B2006F322920280CF7F0047
:100A2800B4070050052432F8E6FF22286E756C6C76
:100A38002900D2011206033001F8C201783B30D5F3
:100A48000108F60206A92D5043495812060324034B
:100A5800B405004001E4900A4E9312062F743A122E
:0A0A6800062FD203753B0402087B41
:1002CA00E9D2E7C933E833F892D5EDD2E7CD33EC7A
:0702DA0033FC5002B2D522F3
:1002E100EC30E7100FBF000C0EBE00080DBD00047E
:1002F1000BEB6014A2D5EB13FCED92E7FD2274FF2A
:10030100FCFDFEFF22E480F8A2D574FF13FC7D8082
:03031100E480EF96
:10031400F920E72824F950037907E4F42402FB18B0
:10032400DBFDE624FB5014E9600DE4F618E604F660
:0F033400B40A08E4F6D9F57401F60A22C2D522FC
:10034300ED33EC3392D5FA602AB4FF33EDC2E77B89
:10035300FF60067A037968E4227A03797120D50471
:100363007A03796C224E614E002B494E46002D498B
:100373004E4600E47A08F608DAFC7B00740722E8AC
:10038300C0E0ECC0E0EDC0E0EEC0E0EFC0E0EA7535
:10039300F010A4CAABF075F04DA42BFBE435F0FCD0
:1003A300EA2410FAEB34C5FBEC34D9FCEDC2E7FFC9
:1003B30075F056A4F42411C5F0F434C58FF0A42AC3
:1003C300E5F03BE43CF620E714120516D0E0FFD03D
:1003D300E0FED0E0FDD0E0FC1204498014F40412E6
:1003E3000516D0E0FFD0E0FED0E0FDD0E0FC120126
:1003F30086D0E0F8E6FAEDD2E7CD33EC332482FB86
:10040300E4C3CF33CFCE33CECD33CD33DBF37B0752
:1004130075F00A846004F6081B0AE5F0F6088FF00D
:10042300740AA4FFACF08EF0740AA42CFEACF05056
:10043300010C8DF0740AA42CFDE435F0F608DBDE24
:0304430074072219
:10044600020309EC5D046005E8590470030202FF2B
:100456001202CA580460F6EC4860F2EC7004FDFE25
:10046600FF22C860DB2481C85009C3986002500689
:100476000203069850CAF582E9294B4A7005AB82F9
:100486000202F575F0007C1A7880C3EF9BEE9AEDB8
:1004960099400DC3EF9BFFEE9AFEED99FDE842F001
:1004A600DC23ACF0D0E0FFD0E0FED0E0FDAB822054
:1004B600E7101BEB60BAEC2CFCEF33FFEE33FEEDDE
:1004C60033FD0202E1E803F830E705C0F075F000FD
:1004D600EF2FFFEE33FEED33FD40B830E7C280AAC2
:1004E6003F8000004120000042C80000447A00001E
:1004F600461C400047C35000497424004B189680A0
:100506004CBEBC205A0E1BCA6753C21C749DC5AE96
:10051600FB60065407601C2323120544EB54386025
:100526000912053012053F120186ECF8EDF9EEFAD4
:10053600EFCB22EB12053F80F1543803241C9004C4
:10054600E6FE93FC0EEE93FD0EEE930ECE93FF2287
:100B6800020C39E493A3F8E493A34003F68001F25E
:100B780008DFF48029E493A3F85407240CC8C3338E
:100B8800C4540F4420C8834004F456800146F6DF5D
:100B9800E4800B0102040810204080900DC6E47E1A
:100BA800019360BCA3FF543F30E509541FFEE49352
:100BB800A360010ECF54C025E060A840B8E493A319
:100BC800FAE493A3F8E493A3C8C582C8CAC583CA44
:100BD800F0A3C8C582C8CAC583CADFE9DEE780BEFC
:010DDE000014
:10055600BB010689828A83E0225002E722BBFE02A3
:09056600E32289828A83E49322D6
:10056F00BB010CE58229F582E5833AF583E0225041
:10057F0006E92582F8E622BBFE06E92582F8E2228B
:0D058F00E58229F582E5833AF583E49322A5
:10059C00BB010689828A83F0225002F722BBFE013E
:0205AC00F32238
:0E05AE00C3E49FFFE49EFEE49DFDE49CFC225E
:1005BC00EB9FF5F0EA9E42F0E99D42F0E89C45F095
:0105CC00220C
:1005CD00FAE6FB0808E6F925F0F618E6CA3AF6222F
:1005DD00D083D082F8E4937012740193700DA3A3AD
:1005ED0093F8740193F5828883E4737402936860C1
:0605FD00EFA3A3A380DFC1
:00000001FF
