:020000040800F2
:1000000020CB01207D100008510300085303000895
:1000100055030008570300085903000800000000BA
:100020000000000000000000000000008F10000829
:100030005B030008000000006D120108C9360008CB
:1000400097100008971000089710000897100008F4
:1000500097100008971000089710000897100008E4
:1000600097100008971000089710000897100008D4
:1000700097100008971000089710000897100008C4
:1000800097100008971000089710000897100008B4
:1000900097100008971000089710000897100008A4
:1000A0009710000897100008971000089710000894
:1000B0009710000897100008971000089710000884
:1000C0009710000897100008971000089710000874
:1000D0009710000897100008913A00080B3B0008A1
:1000E0009710000897100008971000089710000854
:1000F0009710000897100008971000089710000844
:100100009710000897100008971000089710000833
:100110009710000897100008971000089710000823
:100120009710000897100008971000089710000813
:1001300097100008AD0600089710000897100008F7
:1001400097100008971000089710000897100008F3
:1001500097100008971000089710000897100008E3
:1001600097100008971000089710000897100008D3
:1001700097100008971000089710000897100008C3
:10018000971000089710000800F002F800F06DF8D2
:100190000AA090E8000C82448344AAF10107DA45E2
:1001A00001D100F062F8AFF2090EBAE80F0013F0C7
:1001B000010F18BFFB1A43F001031847CC350100AB
:1001C000EC3501000A444FF0000C10F8013B13F02D
:1001D000070408BF10F8014B1D1108BF10F8015BA0
:1001E000641E05D010F8016B641E01F8016BF9D193
:1001F00013F0080F1EBF10F8014BAD1C0C1B09D1EA
:100200006D1E58BF01F801CBFAD505E014F8016B5B
:1002100001F8016B6D1EF9D59142D6D370470000ED
:100220000023002400250026103A28BF78C1FBD8FF
:10023000520728BF30C148BF0B607047642912F0D5
:100240004786732913F00D80002070471FB513F007
:10025000B5F812F097FF04000020002113F098F881
:10026000401C60601FBD10B510BD13F063F811464F
:10027000FFF7ECFF00F02EF813F081F803B4FFF75E
:10028000F2FF03BC03F08AFA10B50EF0EAFE10F09C
:10029000C5FF04460F23244A0021244810F0F0F83B
:1002A0000923234A0021234810F0EAF80723224AB1
:1002B0000021224810F0E4F80823214A00212148B7
:1002C00010F0DEF8FF2010F0EEFA2046BDE81040F6
:1002D00010F0A8BF10B512F029FD0EF0D5FD18489A
:1002E0000421001D0FF041FC174C0421206014482C
:1002F00014300FF03AFC606001200FF0AAFEA060FD
:1003000003F0EBFC0028FBD103F0E2FE0028FBD158
:100310000B230E4A0021AFF28F0010F0B1F80EF05F
:100320008DFE002010BD0000441C00209116010825
:10033000544500204B1E0108441A0020B128010832
:10034000544D00202B16010800000020441E002000
:100350007047FEE7FEE7FEE7FEE770470CB50022B8
:10036000544900920192086840F4803008604FF4CC
:10037000A043086800F4003001900098401C0090F1
:10038000019810B900989842F3D10868800334D5D9
:100390000120019047484030026842F080520260DC
:1003A0004548026842F44042026042480830026810
:1003B0000260026842F400420260026842F4A05205
:1003C0000260031F3D4A1A600A6842F080720A60A8
:1003D0000A689201FCD53A4940F205720A60016848
:1003E00021F003010160016841F002010160016830
:1003F000C1F381010229FAD10CBD01920CBD314833
:1004000010B5016841F4700101602A48016841F0AB
:1004100001010160274A00210832116002682A4B5D
:100420001A400260031D294A1A60026822F48022E1
:10043000026020480C300160FFF790FF21494FF027
:1004400000608039086010BD70B51A4D0835286805
:100450001F4B204910F00C0004D05E10042803D07C
:10046000082803D00B601BE00E6019E0114A121D32
:100470001068C0F38054106800F03F0014B1B6FB60
:10048000F0F001E0B3FBF0F013681268C3F38813D7
:100490005843C2F30142521C5200B0FBF2F0086014
:1004A00028680C4AC0F30310121D105C0A68C24091
:1004B0000A6070BD003802400070004008544007D8
:1004C000003C024088ED00E0FFFFF6FE1030002403
:1004D0000024F4000C0000201CB50121084601F0A6
:1004E000B4F80820009001208DF8040000208DF859
:1004F00006008DF807000320054C8DF805006946BD
:10050000204600F09FFE0821204600F002FF1CBD9F
:100510000000024010B5B0B001214FF0606001F062
:1005200094F802F041F802F043FC02F047FC012885
:10053000FBD0684602F044F80120009000204FF400
:100540000071CDE90A10090407901190CDE920014E
:100550000E90149013900A111590259026902392D6
:100560000420CDE9280180032A9080012B904012BD
:100570002C9040002E900121684602F0B3F8C4B2DE
:10058000012C03D10121944802F02AFC30B020460E
:1005900010BDFEB501214D2001F057F8012188035F
:1005A00001F07BF8012001F04EF986200325009030
:1005B0008DF8055002208DF804000024874E8DF838
:1005C00006408DF807406946304600F03BFE0B229E
:1005D0000121304600F0AAFE0B220221304600F035
:1005E000A5FE0B220721304600F0A0FE32207C4EF3
:1005F00000906946304600F025FE0B22012130466E
:1006000000F094FE0B220421304600F08FFE0B22F6
:100610000521304600F08AFE4FF4D040714E009024
:100620006946304600F00EFE0B221146304600F0BF
:100630007DFE0B220D21304600F078FE0B220E21AC
:10064000304600F073FE8DF80550012508208DF826
:10065000045000908DF806408DF8074069466248C6
:1006600000F0F0FD614EC6F88C42322006F523768C
:1006700003F072F835603D208DF808008DF80940D0
:100680008DF80A408DF80B5002A800F01CFDFFF712
:1006900041FF08B10020FEBD0120FEBD10B51F21A5
:1006A000012001F0F7FFC0F3820010BD10B5504CDF
:1006B00001E003F07DFA206802F060FB0028F8D129
:1006C000402002F09EFBBDE810404FF4803002F065
:1006D00098BB70B5464C00231A4621680D68002D62
:1006E0000BDA444916464B691B0602D580234B6141
:1006F0008E6002604260826070BD0D682D040AD475
:100700000D68ED0507D50D68AD0504D50A68C2F37F
:100710000D438A681B1FCD6825600360C0E9012175
:1007200070BD354A11680B68002B01DA0020704754
:10073000C0F30C004860086840F04050086008684A
:1007400040F0004008602B4843695B0703D5042351
:10075000436100234360C868106001207047264849
:1007600000688068704710B5244C0020216810F0A4
:1007700066FE0020616810F062FE0020A16810F0A3
:100780005EFEE168BDE81040002010F058BE70B574
:10079000A021002010F05CFE184CA0212060002059
:1007A00010F056FE41F6C45560602946002010F056
:1007B0004FFEA0602946002010F04AFEE06021684C
:1007C00031B1616821B1A16811B108B1002070BDDB
:1007D000FFF7C9FF012070BD40000100000002408A
:1007E0000008024000180240000C02400080414214
:1007F0004400002000900240400000202000002023
:1008000042F6DE6206E01146491E0904090CFBD1DE
:10081000401E80B20028F6D1704700E0401E00283C
:10082000FCD170471CB54FF40070009002208DF889
:10083000050000208DF804008DF807006946A648E1
:1008400000F000FD1CBD1CB54FF4007000900220AC
:100850008DF8050001208DF804008DF8060069462A
:100860009D4800F0EFFC1CBD1CB50121022000F0EA
:10087000ECFE4FF48070009002208DF805000120FE
:100880008DF804008DF806006946934800F0DAFC04
:10089000FFF7D9FF1CBD70B58F4D4FF40074214692
:1008A000284600F034FD1922521EFDD14FF480710C
:1008B000284600F02CFD1922521EFDD12146284663
:1008C00000F027FD1920401EFDD170BD70B5824D8E
:1008D0004FF400742146284600F01BFD1922521ED9
:1008E000FDD14FF48071284600F011FD1922521EEF
:1008F000FDD12146284600F00AFD1920401EFDD1F9
:1009000070BD2DE9F041FFF78DFF734E4FF48078F5
:100910004146304600F0FBFC1921491EFDD142F250
:1009200010744FF4007708E03946304600F0DBFCE5
:10093000012801D0012502E00025641EF4D24146C1
:10094000304600F0E6FC1921491EFDD1FFF77BFF80
:100950002846BDE8F0812DE9F0415F4E05460024B0
:100960004FF400784FF480773946304600F0D1FCE0
:100970001920401EFDD128064146304602D500F020
:10098000C6FC01E000F0C5FC6806050E1920401EFB
:10099000FDD13946304600F0BAFC1920401EFDD189
:1009A000641CE4B2082CDFD33946304600F0B1FCB9
:1009B0001921491EFDD14146304600F0A8FC1920FE
:1009C000401EFDD1C5E72DE9F041434E4FF480773D
:1009D00000253946304600F09CFC1920401EFDD110
:1009E000FFF720FF00244FF400783946304600F02E
:1009F0008EFC1920401EFDD14146304600F073FCAC
:100A0000012800D0002040EA4500C5B239463046F2
:100A100000F07FFC1920401EFDD1641CE4B2082CBC
:100A2000E3D3FFF710FF4146304600F070FC192079
:100A3000401EFDD128468CE770B50C46054610F0E7
:100A4000EDFB0646FFF727FFA020FFF784FFFFF727
:100A500058FF002816D02846FFF77DFFFFF751FF0B
:100A600000280FD02046FFF776FFFFF74AFF002847
:100A700008D0FFF72BFF304610F0D4FB1120FFF712
:100A8000BFFE012070BD70B5054610F0C7FB0446DF
:100A9000FFF701FFA020FFF75EFFFFF732FF0028FE
:100AA00018D02846FFF757FFFFF72BFF002811D07B
:100AB000FFF7F1FEA120FFF74EFFFFF722FF00280E
:100AC00008D0FFF780FF0546FFF700FF204610F033
:100AD000A9FB284670BD00000004024010B545F295
:100AE000555002F0A7FA062002F0A7FA40F2E730CC
:100AF00002F0A6FA02F0A7FABDE8104002F0A8BA88
:100B000002F0A1BA0146AC48028822F03802028005
:100B100002880A430280012102F074BBF0B587B05D
:100B20000121022000F091FD01210E03304600F06A
:100B3000B4FD02208DF8180000248DF81A4003201F
:100B40008DF8190001209D4F38258DF81B00059563
:100B500005A9384600F076FB05220321384600F04F
:100B6000E5FB05220421384600F0E0FB0522114692
:100B7000384600F0DBFB0121304600F0C0FD0021CB
:100B8000304600F0BCFDADF800404FF48270ADF887
:100B90000200ADF80840ADF80440F010ADF80C507C
:100BA000ADF80640ADF80A00ADF80E400720824CC3
:100BB000ADF810006946204602F090FA0121204667
:100BC00002F020FB07B0F0BD1CB50121022000F0AF
:100BD0003CFD4020012400908DF8044000208DF859
:100BE000060003218DF805108DF80700694673484B
:100BF00000F028FB7248C0F89842FFF78FFF3020C2
:100C0000FFF780FF1CBD70B56B4C054602212046E6
:100C100002F08BFB0028F9D02946204602F058FB51
:100C20000121204602F081FB0028F9D0204602F085
:100C30004DFBC0B270BD70B5C0F30745C0F30724CB
:100C4000C6B20320FFF7DFFF2846FFF7DCFF204690
:100C5000FFF7D9FF3046BDE87040D4E770B5594A78
:100C6000A0F120030D465E2B03D80001A0F5007013
:100C70008118534E0020C6F898020846FFF7DBFFA4
:100C80000024FF20FFF7BFFF2855641CE4B2102C9E
:100C9000F7D30120C6F8980270BD70B515464A4AD0
:100CA000A0F1A103082B0BD8A12909D3C3EB031092
:100CB00000EB431001EB40004001A0F5A1500FE014
:100CC000B038472820D8A1291ED3C0EB001303EB6E
:100CD000401001EB4000400140F2AD2100EB41101B
:100CE000374E00211044C6F89812FFF7A4FF0024E5
:100CF000FF20FFF788FF2855641CE4B2202CF7D3AF
:100D00000120C6F8980270BD002070BD70B50D4678
:100D10002E4920385E2803D800EB400001EB00127A
:100D2000274E0020C6F898021046FFF784FF0024E3
:100D3000FF20FFF768FF2855641CE4B2302CF7D37E
:100D40000120C6F8980270BD70B51546204AA0F182
:100D5000A103082B09D8A12907D3C3EB031000EB8B
:100D6000431001EB4000A1380CE0B038472821D8EF
:100D7000A1291FD3C0EB001303EB401001EB40008F
:100D800000F2AD200E4E00EBC000002102EBC000CF
:100D9000C6F89812FFF74FFF0024FF20FFF733FF3C
:100DA0002855641CE4B2482CF7D30120C6F89802F9
:100DB000002070BD012070BD0030014000040240E1
:100DC0000080404280D71D00D0C9020000FF1D00F6
:100DD00090810600F0B50E46074601218BB008460B
:100DE00000F05BFC0121102000F02FFC224D0122BD
:100DF0000D21284600F09AFA4FF40050039002208B
:100E00008DF8100003208DF8110000248DF8124099
:100E10008DF8134003A9284600F014FAADF80060DD
:100E20001020164DADF80200ADF8084001978DF87E
:100E30000A406946284600F0ABFD6021ADF8141069
:100E40000120ADF81600ADF8204005A9284600F0B5
:100E500089FE0821284600F06EFF0121284600F097
:100E6000F5FD0121284600F00BFE0121284601F086
:100E7000F9F80BB0F0BD0000001002400000014086
:100E80002DE9FC410121084600F0DFFB0121022091
:100E900000F0DBFB0121042000F0D7FB012108203A
:100EA00000F0D3FB0121102000F0CFFB01214020F6
:100EB00000F0CBFB0121202000F0C7FB01208DF8C2
:100EC000040000248DF80640524F4DF69F768DF8B1
:100ED0000740032500968DF805506946384600F016
:100EE000B1F93146384600F014FA4B48C0F8B04228
:100EF000C0F8A442C0F8AC42C0F8A042C0F8A84272
:100F0000C0F89C4201208DF804008DF80640434F44
:100F10004FF470768DF8074000968DF805506946BD
:100F2000384600F08FF93146384600F0F2F90120DA
:100F30008DF804008DF80640394F40F2FF168DF809
:100F4000074000968DF805506946384600F07AF95A
:100F50003146384600F0DDF901208DF804008DF8A7
:100F60000640304F4FF47F468DF8074000968DF8CD
:100F700005506946384600F065F93146384600F0BC
:100F8000C8F901208DF80400BE158DF80640264FE3
:100F90008DF8074000968DF805506946384600F0F8
:100FA00051F93146384600F0B4F901208DF80400BB
:100FB0008DF806401D4F4FF470468DF8074000969F
:100FC0008DF805506946384600F03CF93146384600
:100FD00000F09FF901208DF804008DF806408DF88F
:100FE00007408DF80550124D00966946284600F0DE
:100FF00029F93146284600F08CF901208DF804408B
:1010000000908DF807006946284600F01BF9BDE8FE
:10101000FC81000000100240000042420008024033
:1010200000180240000C0240000002400004024090
:10103000001402407CB50121102000F006FB0121C4
:10104000042000F002FB4020002500908DF80450A1
:1010500001248DF807406946064800F0F3F8600364
:1010600000908DF804508DF807406946024800F062
:10107000E9F87CBD001002400008024009488047A2
:1010800009480047FEE7FEE7FEE7FEE7FEE7FEE76A
:10109000FEE7FEE7FEE7FEE704480549054A064B82
:1010A00070470000FF0300088901000820BF0120ED
:1010B00020CB012020C3012020C301202849084360
:1010C00028490860704730B50F23C27801780125A0
:1010D000FAB1244A126801F1E02102F4E062C2F59B
:1010E000E062C2F30722C2F10404D3404278A24076
:1010F00084781C401443220181F80024007800F019
:101100001F018D404009800000F1E020C0F800512F
:1011100030BD01F01F0085404809800000F1E0204B
:10112000C0F8805130BD104A114001430D48001FE6
:10113000016070470B4A121D0029116801D001435C
:1011400000E08143116070474FF0E02104280869F6
:1011500003D020F004000861704740F00400FAE773
:101160000000FA050CED00E080FFFF1F774910B585
:10117000884206D10121084600F099FA0021012099
:101180005BE07349884206D10121022000F08FFA0A
:101190000021022051E06F49884206D1012104203C
:1011A00000F085FA0021042047E06B49884206D10F
:1011B0000121082000F07BFA002108203DE067496A
:1011C000884206D10121102000F071FA0021102080
:1011D00033E06349884206D10121202000F067FAFC
:1011E0000021202029E05F49884206D101214020CA
:1011F00000F05DFA002140201FE05B49884206D1E3
:101200000121802000F053FA0021802015E0574989
:10121000884202D1012184150AE05549884202D151
:101220000121441504E0534988420AD101210415E3
:10123000204600F03CFA00212046BDE8104000F0B6
:1012400036BA10BDF0B5002201274FF0030C0B6831
:1012500007FA02F52B40AB422CD1066853000CFA7A
:1012600003F4A64306600E79D0F800E09E4046EAFB
:101270000E0606600E79012E01D0022E12D186686C
:10128000A64386604E79D0F808E09E4046EA0E06F6
:1012900086604668AE43466045688E799640B6B231
:1012A00035434560C568A543C560CC799C40C3689B
:1012B0001C43C460521C102AC9D3F0BD4FF6FF7105
:1012C00001600021017141718171C171704708B5E0
:1012D00041F480320092C261C1610099C161C1696B
:1012E000C069009008BD0246002012690A4200D081
:1012F00001207047006980B27047024600205269A1
:101300000A4200D001207047406980B270470183D3
:101310007047418370470AB101837047418370472A
:101320004161704742694A40426170474B07DB0E9A
:101330009A40C90810B500EB8100016A0F249C4057
:10134000A1430162016A1143016210BD0000024025
:101350000004024000080240000C0240001002405D
:101360000014024000180240001C0240002002400D
:101370000024024000280240F848016841F00101C1
:101380000160F64A0021083211600268F44B1A40ED
:101390000260031DF34A1A60F04BF34A84331A606B
:1013A000F04A103A1B1D1A60026822F48022026083
:1013B000EA480C300160181D01607047E7490022BF
:1013C000891C0A70087070470246002051090129E3
:1013D0000CD002290CD0E1497431096802F01F02D7
:1013E000012393400B4200D001207047DB49F4E712
:1013F000DA497031F1E718B500204FF4A0440090AD
:101400003120FFF7E1FF0099491C0091A14201D072
:101410000028F5D03120FFF7D7FF002800D00120A9
:1014200018BDCE4A116821F0F80141EAC0001060F1
:101430007047CE4908607047C849002270310A7071
:101440000A70012802D0042801D1052008707047D5
:10145000C7490860704741EA82115A0810B5C54B68
:10146000029C03EB02421143014341EA0460BB4981
:10147000091D086010BDBD4908667047800140EA3B
:101480000170B649843108607047B8498866704772
:10149000800140EA0160B14940EA02708831086089
:1014A0007047B24908677047B049C8647047AB4B92
:1014B00008331A68084322F0EC6210431860704742
:1014C000A64B08331A68084322F07842104318608C
:1014D0007047A24A0832116821F0030101431160EC
:1014E00070479E480830006800F00C0070479B4A27
:1014F0000832116821F0F001014311607047974AEA
:101500000832116821F4E051014311607047934A99
:101510000832116821F4604141EAC0001060704750
:1015200070B58E4B08331968934C11F00C0104D040
:101530006610042903D0082903D004601BE006606C
:1015400019E0864A121D1168C1F38055116801F037
:101550003F0115B1B6FBF1F101E0B4FBF1F1146804
:101560001268C4F388146143C2F30142521C520052
:10157000B1FBF2F1016019680F2202EA11117F4AF2
:10158000545C0168E14041601C68072505EA942429
:10159000145D21FA04F484601B6805EA5333D25CBD
:1015A000D140C16070BDC0F30121032908D16B4B4C
:1015B00008331968724A21F4F81102400A431A608C
:1015C000664970310A68C0F30B0002430A60704735
:1015D0006749443908607047654940390860704779
:1015E0006249C1F85C0170475C4A8C321168401E48
:1015F00021F01F01014311607047584A8C32116875
:101600006FF0FF0321F4F85103EB00200843106052
:101610007047524A8C32116821F440110143116025
:1016200070474E4A8C32116821F440010143116029
:1016300070474A4A8C32116821F4403101431160ED
:1016400070475049C1F8E0017047444A30320029E0
:10165000116801D0014300E08143116070473F4AA7
:1016600034320029116801D0014300E08143116048
:1016700070473A4A38320029116801D0014300E02E
:10168000814311607047354A40320029116801D00A
:10169000014300E0814311607047304A4432002921
:1016A000116801D0014300E08143116070472B4A6B
:1016B00010320029116801D0014300E0814311601C
:1016C0007047264A14320029116801D0014300E016
:1016D000814311607047214A18320029116801D0F6
:1016E000014300E08143116070471C4A2032002909
:1016F000116801D0014300E0814311607047174A2F
:1017000024320029116801D0014300E081431160B7
:101710007047124A50320029116801D0014300E09D
:101720008143116070470D4A54320029116801D07D
:10173000014300E0814311607047084A5832002994
:10174000116801D0014300E0814311607047034AF2
:1017500060320029116817D0014316E000380240BA
:10176000FFFFF6EA1030002400300020000047425E
:10177000800E47420000FFFF0024F40030000020EC
:10178000FFFCFF0F00104742814311607047194A68
:101790000029116801D0014300E0814311607047C6
:1017A00014490C310128086803D020F008000860B3
:1017B000704740F00800FAE70E4A573A00291178BE
:1017C00001D0014300E08143117070470948103097
:1017D000016841F08071016070470146054A0020B0
:1017E000583A12680A4200D0012070470149563920
:1017F000087070476438024010B501218C03204600
:10180000FFF77DFF2046BDE810400021FFF777BFBE
:1018100014490860704714490862704710B58A0778
:1018200021F003041149120F21440F23D1F8084875
:1018300093409C43C1F80848D1F8083890400343CE
:10184000C1F8083810BD0849C1F8DC0070470849E4
:10185000086070470349002020310968C90500D598
:10186000012070470038014000002742003001404D
:1018700000042742FE4910B5884206D101210846DE
:10188000FFF73DFF002101205BE0B0F1804F09D060
:10189000F84988420DD101210220FFF726FF0021DF
:1018A000022070E001210846FFF71FFF0021012000
:1018B00069E0F149884206D101210420FFF715FFB4
:1018C000002104205FE0ED49884206D10121082073
:1018D000FFF70BFF0021082055E0E949884206D1B7
:1018E00001211020FFF701FF002110204BE0E54906
:1018F000884206D101212020FFF7F7FE0021202099
:1019000041E0E149884206D101210220FFF7F7FEBC
:101910000021022015E0DD49884202D101210C049A
:101920000AE0DB49884202D101214C0404E0D94994
:1019300088420AD101218C042046FFF7E0FE0021F5
:101940002046BDE81040FFF7DABED349884206D1F1
:1019500001214020FFF7C9FE0021402013E0CF49BC
:10196000884206D101218020FFF7BFFE00218020A0
:1019700009E0CB4988420AD1841501212046FFF7AE
:10198000B4FE00212046BDE81040FFF7AEBE10BDFA
:1019900030B50288B64CBC4DA0420DD0A8420BD049
:1019A000B0F1804F08D0B34B984205D0B24B98426B
:1019B00002D0B24B984203D122F070034A881A43F6
:1019C000AF4B984206D0AF4B984203D022F44073FD
:1019D0000A891A4302804A68C2620A880285A042C4
:1019E00001D0A84201D1897A01860121818230BDCE
:1019F0004FF0FF31416000210180018141808172FF
:101A00007047018582827047028822F070020A4383
:101A10000280704741627047C1627047406A7047F8
:101A2000008D70470029018802D041F0020101E0D9
:101A300021F00201018070470029018802D041F0A5
:101A4000040101E021F004010180704700290188B0
:101A500002D041F0800101E021F080010180704757
:101A6000028822F00802028002880A43028070473E
:101A7000028822F44072028002880A430280704782
:101A80000029018802D041F0010101E021F00101AB
:101A90000180704730B5028C22F001020284028C72
:101AA0008388048B22F0020224F073050C882C43F7
:101AB0008D8915434A882A436D4DA84202D0724D44
:101AC000A8420DD122F00805CA8923F440732A43A5
:101AD00022F004058A882A430D8A1D434B8A2B4332
:101AE0008380048389684163028430BD70B5028CB1
:101AF00022F010020284028C8388048B0D8824F467
:101B0000E6464FF6FF7404EA052535438E8922F038
:101B1000200204EA061616434A8804EA02123243F7
:101B2000534EB04202D0584EB04215D122F080063A
:101B3000CA8923F4406304EA0212324322F04006C9
:101B40008A8804EA021232430E8A04EA86061E4399
:101B50004B8A04EA83033343838005838968816366
:101B6000028470BD70B5028C22F480720284028CF3
:101B70008388848B0D8824F0730425438E894FF667
:101B8000FF7422F4007204EA062616434A8804EA27
:101B900002223243364EB04202D03B4EB04215D103
:101BA00022F40066CA8923F4405304EA0222324335
:101BB00022F480668A8804EA022232430E8A04EA0A
:101BC00006161E434B8A04EA03133343838085833E
:101BD0008968C163028470BD70B5028C22F48052A2
:101BE0000284058C8288838B0C8823F4E6464FF6AA
:101BF000FF7303EA0424344325F400568D8903EA75
:101C0000053535434E8803EA06362E43184DA84263
:101C100002D01D4DA84205D122F480450A8A03EA6C
:101C200082122A438280848389680164068470BD9D
:101C3000002101804180818081608181C181018298
:101C40004182704730B50124058C00F118038C40A7
:101C5000A543058431B308292CD0091FC1F34E00D8
:101C60001844016848F6FF731940016001681AE0E2
:101C7000000001400004004000080040000C00404B
:101C800000100040001400400004014000400140EA
:101C9000004401400048014000180040001C004082
:101CA0000020004006E04FF6FF7303EA02221143D2
:101CB000016030BD03EB510001684FF68F7319408E
:101CC00001600168F3E74163704781637047C16356
:101CD000704701647047028B22F070020A4302834E
:101CE0007047028B4FF6FF7322F4E04203EA0121B2
:101CF000114301837047828B22F070020A43828372
:101D00007047828B4FF6FF7322F4E04203EA012111
:101D1000114381837047028B22F008020A43028339
:101D20007047028B4FF6FF7322F4006203EA012131
:101D3000114301837047828B22F008020A43828399
:101D40007047828B4FF6FF7322F4006203EA012191
:101D5000114381837047028B22F004020A430283FD
:101D60007047028B4FF6FF7322F4806203EA012171
:101D7000114301837047828B22F004020A4382835D
:101D80007047828B4FF6FF7322F4806203EA0121D1
:101D9000114381837047028B22F080020A43028341
:101DA0007047028B4FF6FF73C2F30E0203EA012164
:101DB000114301837047828B22F080020A438283A1
:101DC0007047828B4FF6FF73C2F30E0203EA0121C4
:101DD000114381837047028C22F002020A4302847D
:101DE0007047028C22F008020A4302847047028C7A
:101DF0004FF6FF7322F0200203EA01111143018420
:101E00007047028C4FF6FF7322F0800203EA011143
:101E1000114301847047028C4FF6FF7322F4007265
:101E200003EA0121114301847047028C4FF6FF73CE
:101E300022F4006203EA0121114301847047028CFD
:101E40004FF6FF7322F4005203EA0131114301847B
:101E5000704710B50123048C8B409C430484038C91
:101E60008A401343038410BD10B50423048C8B40B7
:101E70009C430484038C8A401343038410BD828BEB
:101E800022F440628283828B4FF6FF7303EA0121C2
:101E90000A4382837047828B22F00C028283828BFA
:101EA0000A4382837047028B22F440620283028BD2
:101EB0004FF6FF7303EA01210A4302837047F0B52E
:101EC000048C24F010040484078B068C4FF6FF74F6
:101ED00004EA011527F4734704EA0331394304EA9D
:101EE00002220A4326F0A001294341F01001028397
:101EF0000184F0BD028B22F00C020283028B0A43A4
:101F0000028370472DE9F0410C460E884988A2886B
:101F1000238905460EB3042E26D0082E2E8C4FF6AC
:101F2000FF7028D026F480562E84AF8B2E8C00EACA
:101F3000022200EA013127F473473A4300EA0330F2
:101F4000104326F420420A4342F48051A883298496
:101F5000E1882846BDE8F04191E700F062F9E188A8
:101F60002846BDE8F041C5E7FFF7A9FFE18828460C
:101F7000BDE8F04197E726F480762E84AF8B2E8C57
:101F800000EA012100EA0310104327F0F307384369
:101F900026F420620A4342F48071A8832984E188F0
:101FA0002846BDE8F04176E700210180418001220A
:101FB0008280C180018170472DE9F0410C460026E6
:101FC00049880746012501B90226A288012A00D1C5
:101FD0000225208823890028384610D0FFF76FFF9C
:101FE000E1883846FFF75FFF23892A4631463846A5
:101FF00000F017F9E1883846BDE8F0417AE700F0D3
:1020000010F9E1883846FFF775FF23892A463146E3
:102010003846FFF754FFE1883846BDE8F04142E713
:10202000406B7047806B7047C06B7047006C7047A7
:1020300010B50A884B88CC881A438B8823431A43EF
:102040000B891A434B8989891A430A43A0F8442013
:1020500010BD0021018041808180C18001814181CA
:1020600081817047002930F8441F02D041F40041BB
:1020700001E0C1F30E01018070470029818802D080
:1020800041F0040101E021F0040181807047002942
:10209000818802D041F0010101E021F0010181803D
:1020A0007047002A828901D00A4300E08A43828176
:1020B00070478182704702460020128A0A4200D08F
:1020C00001207047C9430182704702460020138AED
:1020D00092890B4202EA010202D0002A00D00120BC
:1020E0007047C943018270471143A0F848107047F8
:1020F000002A828901D00A4300E08A438281704726
:102100000029818802D041F0080101E021F0080196
:1021100081807047018921F00701018170470289A0
:1021200022F070020A430281704700B50346FFF7B0
:10213000F6FF188940F00700188100BD70B51646FB
:102140000D46602904464FF0010231460AD000F0E6
:1021500068F829462046FFF7E2FF208940F0070093
:10216000208170BDFFF7ABFEF3E730B504894FF671
:10217000FF7505EA03231343E4B20B4323430381B2
:1021800030BD10B50446FFF7F0FF208940F077001E
:10219000208110BD10B50446FFF7E7FF208940F409
:1021A0008040208110BD828822F070028280828867
:1021B0000A4382807047028922F007020281028965
:1021C0000A4302817047028922F08002028102895B
:1021D0000A430281704770B50589048B068C25F08F
:1021E00007050D434FF6FC410C4040F201110C4332
:1021F0004FF6FF7101EA031126F022061143314325
:1022000005810483018470BD0029818802D041F0DA
:10221000800101E021F0800181807047A0F850101A
:10222000704770B5048C24F001040484058B048C81
:102230004FF6FF7606EA0313134325F0F3052B430D
:1022400024F00A020A4342F001010383018470BDB5
:10225000CD4910B5884206D101211020FFF74FFA71
:102260000021102020E0C949884202D101214C04FC
:1022700029E0C749884202D101218C0423E0C549E5
:10228000884202D10121CC041DE0C349884202D119
:1022900001210C0517E0C149884209D10121202004
:1022A000FFF72DFA00212020BDE81040FFF727BAE4
:1022B000BB49884202D101218C0704E0B949884218
:1022C0000AD1012144052046FFF70FFA2046BDE858
:1022D00010400021FFF709BA10BD7FB50446008AFF
:1022E0000D46C98820F4405001432182A08941F263
:1022F0000C618843A9882A8911436A8902431143E2
:10230000A181A08A20F44071A8890843A082684670
:10231000FFF706F99C48844202D0A048844201D1CC
:10232000039800E00298A189090400EBC00101EBC9
:102330000010296801D5490000E08900B0FBF1F0E8
:102340006422B0FBF2F109010B096FF018056B4331
:1023500000EB8300A3891D044FF0320306D503EB85
:10236000C000B0FBF2F000F0070005E003EB001046
:10237000B0FBF2F000F00F00084320817FBD4FF466
:102380001651016000218180C18001810C224281AF
:102390008181704710B5028A4C8822F470630A88E4
:1023A00022438C88C9880C4322431A43028210BD01
:1023B0000021018041808180C1807047002981898E
:1023C00002D041F4005101E021F4005181817047B5
:1023D000028B02F47F420283028B0A43028370471E
:1023E0000029818902D041F4004101E0C1F30E01CE
:1023F000818170470029818A02D041F4006101E0A7
:1024000021F4006181827047C1F308018180704727
:102410008088C0F308007047028A22F00F0202820F
:10242000028A0A43028270470029818902D041F062
:10243000020101E021F0020181817047828922F4CA
:102440000062828182890A4382817047028A22F077
:1024500020020282028A0A43028270470029018A0E
:1024600002D041F4804101E021F4804101827047B3
:10247000818941F00101818170470029818A02D060
:1024800041F0080101E021F0080181827047028BD0
:10249000D2B20283028B42EA0121018370470029F4
:1024A000818A02D041F0200101E021F020018182E7
:1024B00070470029818A02D041F0100101E021F02B
:1024C000100181827047828A22F004028282828A0D
:1024D0000A43828270470029818A02D041F00201BA
:1024E00001E021F0020181827047002A828A01D036
:1024F0000A4300E08A438282704710B5C1F3421359
:1025000001F01F040121A140012B07D0022B07D0AD
:102510001430002A026805D00A4304E00C30F8E7C2
:102520001030F6E78A43026010BD02460020128890
:102530000A4200D001207047C9430180704770B53E
:1025400001F01F0501260024C1F3421306FA05F22B
:10255000012B0FD0022B0FD0838A4FEA1121008864
:10256000134206FA01F600EA060001D000B1012488
:10257000204670BD8389F0E7038AEEE70A0A01214D
:102580009140C94301807047001001400044004061
:1025900000480040004C0040005000400014014042
:1025A00000780040007C004010B501214C06204618
:1025B000FFF77DF82046BDE810400021FFF777B80F
:1025C000012101600021416081604FF48042C160BF
:1025D000C0E90412D2108161C0E907124162816230
:1025E000C1620163416340228163C0E90F1220226E
:1025F000C0E91121C1640165416581658022C16521
:10260000C0E918128166C16601674167D20481671B
:10261000C0E91F125210C0E921211311C0E9233172
:10262000C0F89410C0F89810C0F89C10C0E92812A7
:102630005212C0F8A8209201C0F8AC205212C0E992
:102640002C21C0F8B810704738B500230093FC4B1C
:102650001C694FF6FF7504F01C0405EAC0202043F6
:102660004FF4F86404EA8111014341F003005A6118
:102670001861F4490098401C00901869C00702D006
:1026800000988842F6D30098884201D1002038BDD6
:10269000012038BD18B500220092E94A13694FF6AF
:1026A000FF7403F01C0304EAC02018434FF4F863DE
:1026B00003EA8111014321F0020040F001001061A2
:1026C000E0490098401C00901069C00702D00098B3
:1026D0008842F6D30098884201D1002018BD506985
:1026E00080B218BD2DE9F04186B00027D44E0446D3
:1026F000009701973069884620F01C0502A8FEF774
:102700000FFFD1490398D14A0144914202D245F0CA
:10271000080516E0CE49CF4A0144914202D245F065
:102720000C050EE0CC49CD4A0144914209D3CC4975
:102730000844CC49884202D245F0040501E045F046
:10274000100535614FF4004200214046FFF77CFF41
:10275000002815D0C44800F060FC206838B3B94D9B
:102760000198A8420BD04FF48052002140460197B7
:10277000FFF76AFF002803D00198A84203D1002088
:1027800006B0BDE8F0811F2140460197FFF782FFA8
:10279000C10603D54FF40061216200E027624007C3
:1027A00001D5676113E04FF4804060610FE0206A5B
:1027B0006169C00840EA510082B200214046FFF73B
:1027C00043FF0028DCD06FF07F4000F026FC31682A
:1027D000A6480140D4E901021043E26854F8103FD2
:1027E0001A43104362681043A2681043E268104322
:1027F0002269104362691043A2691043E2691043E1
:10280000226A1043626A104308433060F4E90A0107
:102810000843D4E90212114308432169084361695E
:102820000843A1690843E16908437060206AB06009
:10283000606AF060B1694FF641700140D4E90B0263
:102840001043238D626B42EA03421043A26B104394
:10285000E26B10430843B061D4E910010843F06112
:102860008348826983490A40D4E912131943D4E9A1
:1028700014352B431943A36D1943E36D1943236E9C
:102880001943636E1943A36E194311438161D4E95F
:102890001B121143626F54F8783F1A431143626868
:1028A00041EA8201A268114341F40001016001681C
:1028B00041F080010160012062E76D4900288869CC
:1028C00002D040F0020001E020F002008861704771
:1028D00067490028886902D040F4005001E020F4E4
:1028E00000508861704756490028086802D040F0BF
:1028F000040001E020F00400086070475C48816932
:1029000041F48011816170474D490028086802D068
:1029100040F0080001E020F008000860704700B5B2
:102920000120FFF7F1FFFFF7E9FF0120FFF7DBFFD1
:102930000120FFF7CDFF01205DF804EBBDE7404922
:1029400000208969C90700D0012070473C4881698F
:1029500041F001018161704739490028886902D03E
:1029600040F0010001E020F0010088617047344A26
:1029700001460020926B0A4200D001207047304A85
:1029800001460020926B0A4200D0012070472C4A79
:102990000029D16B01D0814300E00143D16370472E
:1029A000274B8A88184402640A78CB7842EA03628B
:1029B0008B7849781B0443EA01210A43426470473B
:1029C0001F4A0244106C030A4B710871506C020ECE
:1029D000CA70020C8A70020A4A7008707047184A5E
:1029E00000291044016C02D041F0004101E021F0C7
:1029F000004101647047124A08291044016C02D05A
:102A000041F0804101E021F08041016470470C4AAF
:102A10001044026C22F07C520264026C0A4302648D
:102A2000704730B5144C61680A68C2F30D43A26860
:102A300095681B1F012D21D9126892681FE00000C4
:102A400000800240FFFF040000D3CEFEC0E1E4009E
:102A500040F1E9FD40787D0100796CFC005A62028A
:102A6000001F0AFA80F0FA02FFFF0F000F8120FF1B
:102A700000900240233FDEF8400000208A68CD68C5
:102A800065600360C0E9012130BD38B5F74C002313
:102A90000093D4E9012117E06D1C00951568AD0580
:102AA00007D51568ED0504D40A6001228A606268C2
:102AB00008E01568ED0511D41568AD050ED48D68D4
:102AC0006D1C8D60D26862601568002D02DB009D70
:102AD000052DE1D303604360836038BD4A608B6895
:102AE0005B1C8B608B68012B00D10A6062681368E5
:102AF0008D68C3F30D431B1F012D02D90968896836
:102B000000E09168D56865600360C0E9011238BDD6
:102B1000F0B5D64C002221680B68002B01DA0020AA
:102B2000F0BD40F2F455A84215D9B0FBF5F6B0FB64
:102B3000F5F305FB160606B15B1C012B0BD0C3F1A8
:102B40000107C7EBC71707EB470700EB87005E1EBF
:102B5000C0F30C0723E00A6842F040520A60C0F359
:102B60000C004860086840F000400860C8682060B9
:102B700018E032B92068D0F800C04CF0805CC0F892
:102B800000C04D60B24204D1086840F000500860B7
:102B90004F60086840F000400860C968521C9A42C3
:102BA000E7D32160B2484169490703D50421416157
:102BB000002141600120F0BDF0B5AC4F00234FF083
:102BC000004C44F2F45E561E786013E000EB4314B0
:102BD000C4F800C0C3EBC31505EB450501EB850543
:102BE000C4E901E5B34203D204F12005E56000E049
:102BF000E0605B1C9342E9D39D49C8609D48B86082
:102C0000F0BD9A4A506803681146002B896808DBBA
:102C10000368DB0505D548608868401C8860012092
:102C200070470368002B0CDB03689B0509D503681C
:102C3000DB0506D4086000204860012088605068E9
:102C40000BE00368002B0ADB03689B0507D40368CD
:102C5000DB0504D48B685B1C8B60C068506000206F
:102C60007047F0B5814C00234FF48017561E20604A
:102C700011E000EB43142760C3EBC31505EB4505DA
:102C800001EB8505A560B34203D204F12005E560A0
:102C900000E0E0605B1C9342EBD375490861F0BD36
:102CA0000246002012680A4200D0012070470068E6
:102CB000C0F3C3007047016841F0004101607047F4
:102CC0000029016802D041F0804101E021F08041FB
:102CD0000160704702680A430260704702680A4355
:102CE000026070470029016802D021F0006101E014
:102CF00041F00061016070470029016802D041F491
:102D0000801101E021F48011016070470029016801
:102D100002D021F0806101E041F0806101607047E4
:102D2000436841EA02410B4343607047024600207A
:102D300012680A4200D00120704702460020126942
:102D40000A4200D001207047016841F00041016053
:102D500070470068C0F30D407047426811B122F01F
:102D6000004101E042F0004141607047406811B10C
:102D7000C0F30C407047C0F30C007047026800219C
:102D8000002A08DB0268120405D40268D20502D5C5
:102D90000068C0F30D4108467047354900280868AF
:102DA00002D040F0800001E020F080000860704711
:102DB0002F48016841F00101016070472C49002053
:102DC0000968C90700D001207047294A0146002040
:102DD00052690A4200D00120704725494861704776
:102DE000234A0029D16901D0014300E08143D16128
:102DF00070471F4A0146002052690A4200D0012054
:102E000070471B49486170471948406900F001004C
:102E100070471748406900F040007047144900208F
:102E20008969C90200D501207047114A0146002076
:102E3000126A0A4200D0012070470D48006AC0F3B0
:102E40004A4070470A48006A80B270470848806C60
:102E500070470748C06C70470548006D70470448CC
:102E6000406D7047024900204860704740000020D4
:102E700000900240784D00206C4900208860F4E703
:102E80006A494862F1E730B50C4605460021FFF774
:102E900001FC14B140F4804201E020F480420021A2
:102EA0002846FFF7D1FB002800D0012030BD604844
:102EB000C16A41F00041C162D7E75D4A002150F884
:102EC00021309362491C0829F9D3CEE758490028DC
:102ED000C86A02D040F4007001E020F40070C862BB
:102EE000C3E7534A01460020D26A0A42BDD00120FE
:102EF000BBE74F490028C86A02D040F0040001E057
:102F000020F00400C862B0E749490028C86A02D02E
:102F100040F0020001E020F00200C862A5E7444949
:102F20000028C86A02D040F0010001E020F0010052
:102F3000C8629AE73E48D0F8001141F03001C0F86D
:102F4000001192E73A48D0F8001121F02001C0F8B2
:102F50000011D0F8001141F01001C0F8001184E711
:102F600033490028D1F8000102D040F0080001E008
:102F700020F00800C1F8000177E72D490028D1F8BA
:102F8000000102D040F0040001E020F00400C1F88C
:102F900000016AE726490028D1F8000102D020F09C
:102FA000020001E040F00200C1F800015DE72048A6
:102FB000D0F8001141F00101C0F8001155E71C4A9A
:102FC000C3000BD50029D2F80C1120F0805001D09D
:102FD000814300E00143C2F80C1146E70029D2F812
:102FE000101101D0814300E00143C2F810113CE709
:102FF00000210F4AC30002D5D2F8043101E0D2F813
:103000000831034204D0D2F80C21024200D1012140
:1030100008462AE70649405827E701B581B00198DC
:103020000090002801D0401EFAE70CBD009002403D
:10303000008002400D49086070470C4948607047A5
:103040000A498860704709494AF6AA200860704713
:1030500006494CF6CC4008607047044A01460020FF
:10306000D2680A4200D001207047000000300040C2
:10307000C14910B5884202D10121841424E0BF491E
:10308000884202D10121041404E0BD4988420AD1DA
:103090000121C4132046FEF728FB2046BDE810405E
:1030A0000021FEF722BBB749884202D10121441416
:1030B0000AE0B549884202D101210C0504E0B34978
:1030C00088420AD101214C052046FEF718FB204614
:1030D000BDE810400021FEF712BB10BD30B50288DC
:1030E0004C8802F441530A88CD8822438C882C43B3
:1030F00022430C8922434C8922438C892243CC8968
:1031000022431A430280828B22F400628283098A5E
:10311000018230BDF0B502220023858B01244FF2DD
:103120004006354085830284868B8D68022D3DD014
:103130008A8802B10224964A13681B0203D51368D9
:1031400023F400031360924A7C3213681268C3F3BD
:1031500088138F4FC2F302723F1F3D683F6805F02E
:103160003F057F0201D58B4F00E08B4FB7FBF5F594
:103170005D43B5FBF2F2CB88B3F5007F2BD0630142
:10318000B2FBF3F202EB82028B685200B2FBF3F265
:10319000521D92B20A23B2FBF3F202F00103D21ADB
:1031A0004FF6FF74C2F34F0204EA0323941EFE2C71
:1031B00001D302220023CC881A43144304840A88D2
:1031C0004B881A438B8889890B431A43324342F454
:1031D00000618183F0BD120AD4E7002101804180A3
:1031E0008180C180018141818181C181072101826A
:1031F00070470021018041808180C180022282606D
:10320000818170470029018802D041F0400101E02E
:1032100021F04001018070470029818B02D041F4E8
:10322000806101E021F4806181837047028822F48B
:103230000062028002880A4302807047B1F5804F25
:10324000018803D021F480410180704741F480411E
:10325000FAE7A1F57E420188FF3A02D041F480717D
:1032600001E021F48071018070470029818802D03B
:1032700041F0040101E021F0040181807047002940
:10328000818802D041F0100101E021F0100181801D
:10329000704730B5828B00234FF240042240828376
:1032A00002220284848B0A884FF48075B2F5007F75
:1032B00000D002B92B464A888D8889892A43194350
:1032C0000A43224342F40061818330BD8089704704
:1032D000818170470029018802D041F4005101E04A
:1032E00021F4005101807047018841F48051018030
:1032F0007047012901D0008B7047808A7047008A8F
:103300007047002A828801D00A4300E08A43828005
:103310007047090901238B40002A828899B201D0A5
:103320000A4300E08A4382807047024600201289E7
:103330000A4200D001207047C9430181704730B56F
:1033400001F00F030125024605FA03F40020A3B2A1
:10335000090905FA01F49188A4B2128921401A42A0
:1033600002D0002900D0012030BD01F00F02012160
:103370009140C9430181704700300140003800404E
:10338000003C004000340140005001400054014026
:103390000838024000127A000024F4002DE9F043BE
:1033A000016821F00101016000210160416081603C
:1033B000C160016121214161B849B84A3D251039F8
:1033C000904202D18D60BDE8F083B44A4FF4746638
:1033D0001832904201D18E60F5E7B04A4FF474176D
:1033E0003032904201D18F60EDE7AC4A4FF0746CFF
:1033F0004832904202D1C1F808C0E4E7A74BA84A7E
:103400006033984201D1CA60DDE7A44CA54B783403
:10341000A04201D1CB60D6E7DFF88082A24C08F150
:103420009008404501D1CC60CDE7DFF870824FF0C5
:103430003D5908F1A808404502D1C1F80C90C2E7F7
:103440009A49DFF868820839404501D10D60BAE732
:10345000964D1835A84201D10E60B4E7934D303532
:10346000A84201D10F60AEE7904D4835A84202D185
:10347000C1F800C0A7E78D4D8C496035091FA842EF
:1034800001D10A609FE7894A7832904201D10B60EE
:1034900099E7864A9032904201D10C6093E7834AC3
:1034A000A83290428FD1C1F800908CE730B5036804
:1034B0007F4ACC6813400A682243D1E905452C4372
:1034C0002243CC6922430C6A22434C6A22438C6A11
:1034D00022434C6B22438C6B22431A4302604269A5
:1034E00022F00703D1E90B2422431A4342610A69FF
:1034F00042604A6882608968C16030BD0021016015
:1035000041608160C160016141618161C1610162AD
:1035100041628162C1620163416381637047002936
:10352000016802D041F0010101E021F001010160D8
:1035300070470029016802D041F4004101E021F404
:103540000041016070470029016802D041F020016C
:1035500001E021F020010160704741607047406840
:1035600080B27047002A026802D042F4002201E0D3
:1035700022F400220260016170470029016802D034
:1035800041F4802101E021F48021016070470AB1FB
:1035900001617047C1607047014600200968090356
:1035A00000D501207047014600200968C90700D0F6
:1035B00001207047406900F03800704702463B4BDD
:1035C00000209A4202D2354A103A01E0374A103AB6
:1035D0008B0001D5526800E01268364B1A400A424F
:1035E00000D001207047314A904202D22B48103857
:1035F00001E02E4810382F4A8B0001EA020101D564
:10360000C1607047816070470B0607D5436912B1EE
:1036100043F0800301E023F080034361802908D058
:10362000002A026801F01E0101D00A4300E08A432B
:103630000260704730B51D4A0024904202D2174AFA
:10364000103A01E0194A103A1B4B194205D01E23CB
:1036500003EAD12503682B4002E0406900F08003B3
:10366000880001D5506800E01068124A10400842F6
:1036700001D003B10124204630BD0C4A904202D251
:103680000648103801E0094810380A4A8B0001EA60
:10369000020101D5C160704781607047106002402F
:1036A0003D000020400F002000003D20106402403B
:1036B0003F801CF07D0F7D0F3C0F3C0F0BF071BC69
:1036C0000BF0A2BC0DF09AB9314810B50078012872
:1036D00007D10BF033FC0BF0DCFCBDE810400BF025
:1036E00037BC10BD10B504466FF00400FDF72CFD8B
:1036F000284AE0084FF47A71107010FB01F10120A4
:1037000050804FF0E020026942F002020261416104
:10371000016941F00101016110BD2DE9F0414FF057
:10372000E02700247E691B49097800FB01F50BF0B6
:1037300038FCB969B8698842FCD002D2A1EB00011B
:1037400002E0A6EB000211440C440146AC42F1D366
:10375000BDE8F0410BF058BC70B504460C48007849
:1037600078B10D48007860B90A4D6888844203D367
:10377000B4FBF0F00DF042F96888B4FBF0F100FB07
:1037800011444FF47A706043BDE87040C5E7000013
:103790002F0100204C0000202A0100207047F8492A
:1037A0000A885206FCD5C2B28A80704770B50646B8
:1037B000012186B00846FDF748FF01211020FDF7E2
:1037C0006CFFF04D072209212846FDF7AFFD0722C7
:1037D0000A212846FDF7AAFD02218DF814104FF4A6
:1037E000C0608DF81510049000248DF8164001205B
:1037F0008DF8170004A92846FDF724FDADF8044014
:10380000ADF80640ADF80840ADF80C400C20DC4C9B
:10381000ADF80A00009669462046FEF75EFD0121DC
:103820002046FEF7CBFD40212046FEF785FE06B080
:1038300070BD2DE9F041804688B001210820FDF7D8
:1038400004FF01214804FDF71EFFCF4F0722052189
:103850003846FDF76BFD072206213846FDF766FD69
:1038600002258DF8145060208DF815500024049026
:103870008DF8164001268DF8176004A93846FDF72B
:10388000E1FCADF80440ADF80640ADF80840ADF8F5
:103890000C400C20BD4CADF80A00CDF80080694604
:1038A0002046FEF71AFD01212046FEF787FD402144
:1038B0002046FEF741FE012240F224412046FEF759
:1038C0001CFE26208DF818008DF8195003208DF865
:1038D0001A008DF81B6006A8FDF7F5FB08B0BDE8DF
:1038E000F081F0B5074687B001210220FDF7ADFE5B
:1038F00001218804FDF7C7FEA54E07220A213046A4
:10390000FDF714FD07220B213046FDF70FFD4FF4A4
:103910004060049002208DF814008DF815000024FA
:103920008DF8164001258DF8175004A93046FDF793
:1039300089FCADF80440ADF80640ADF80840ADF89C
:103940000C400820934CADF80A00009769462046C9
:10395000FEF7C3FC01212046FEF730FD27208DF83D
:1039600018008DF81A508DF819508DF81B5006A8C4
:10397000FDF7A9FB07B0F0BD2DE9F04190B004467A
:1039800085480F46DDF858801D46164684424FF0A4
:10399000010101D9880501E04FF40010FDF755FE43
:1039A0002046FFF7FBFC2046FFF7FDFD0028FAD17B
:1039B0000021CDE90251CDF810804FF48060CDE9AF
:1039C00005108010CDE908100002CDE90A01079129
:1039D0000320CDE90C01CDE900760E916946204621
:1039E000FFF764FD10B07AE770B50C46054600217C
:1039F000FFF795FD2846FFF7D6FD0028FAD12146AE
:103A00002846FFF7AAFD2846BDE870400121FFF7D0
:103A100086BD2DE9F0410D4606460024584F0AE0C8
:103A2000315D3846FEF7F0FC80213846FEF77DFD1B
:103A30000028F9D0641CAC42F2DB50E72DE9F041DC
:103A40000D4606460024514F0AE0315D3846FEF728
:103A5000DBFC80213846FEF768FD0028F9D0641CA5
:103A6000AC42F2DB3BE72DE9F0410D46064600246F
:103A7000484F0AE0315D3846FEF7C6FC80213846E3
:103A8000FEF753FD0028F9D0641CAC42F2DB26E7B8
:103A90002DE9F0410BF052FA3C4C10212046FEF784
:103AA00044FD70B32088201D00883C4D2846FFF758
:103AB00056FD3B4C2E15206800787B281DD10D202B
:103AC00002F079FB0221017000F108010246416019
:103AD00000206B1527683F5C401C01F8017B984271
:103AE000F8D39088081A50802E48114600680CF0D0
:103AF0008DF9314620680FF0B7FA31462846FFF7B6
:103B000073FFBDE8F0410BF023BA2DE9F0410DF051
:103B100085FB25490A78521C0A700DF083FB1D4D68
:103B200040F2277739462846FEF709FD40F226661F
:103B3000B8B139462846FEF721FD1C4C6088616803
:103B4000095C401C60802846FEF75EFC6088218886
:103B5000884210D9002239462846FEF7CEFC0122C1
:103B600005E031462846FEF7EAFC20B10022314646
:103B70002846FEF7C2FCBDE8F0410BF0E9B90000B1
:103B80000010014000000240000C024000440040D0
:103B90000004024000480040006402408860024087
:103BA000D4020020000000202A010020CC010020C7
:103BB000894801F051B8894810B5016800200DF01E
:103BC0003EFC8748016800200DF039FC854C002040
:103BD00021680DF034FC6168BDE8104000200DF054
:103BE0002EBC70B502F0BCFA014600200DF030FC8E
:103BF0007A4D45F21C01286000200DF029FC784E1A
:103C00004FF47A61306000200DF022FC754C4FF4C7
:103C10000071206000200DF01BFC6060296831B14C
:103C2000316821B1216811B108B1002070BDFFF7E2
:103C3000C2FF012070BD70B504466B480068C0210A
:103C4000A171A821E171012121726F21617202210C
:103C5000217000256570A570010CE170010A2171C9
:103C600060710320FCF70FFFA0720420FCF70BFF2C
:103C7000E0720520FCF707FF20730620FCF703FF26
:103C800060730D20FCF7FFFEA0730E20FCF7FBFE17
:103C9000E0730F20FCF7F7FE20741020FCF7F3FE12
:103CA00060740920FCF7EFFEA0740A20FCF7EBFE1D
:103CB000E0740B20FCF7E7FE20750C20FCF7E3FE18
:103CC00060750820FCF7DFFE06460720FCF7DBFEE8
:103CD00046EA0020E082257670BD30B587B0FCF75B
:103CE00056FD10B9FFF77DFF10B1012007B030BDC0
:103CF000FCF74FFC08B10220F8E7002108460AF063
:103D00009EFF35481C38FFF796FF334C1C3CA07AC9
:103D1000617BE27A40EA0160217B090441EA0221E9
:103D200008430390A07B617CE27B40EA0160217C38
:103D3000090441EA022108430490A07C617DE27CF1
:103D400040EA0160217D090441EA0221084305900F
:103D5000E078627921798DE80700A378627821788C
:103D600022A00FF04BF8607B0090237BE27AA17ACF
:103D70002CA00FF043F8607C0090237CE27BA17BB9
:103D800034A00FF03BF8607D0090237DE27CA17CA5
:103D90003CA00FF033F8E18A46A00FF02FF80DF0A9
:103DA0003DFA05464D4A4E4900208DE8070005AB17
:103DB00004AA03A9084802F0E7FA044628460DF0D1
:103DC00031FA3CB1044802F00EFB034802F05AFB02
:103DD00000208BE7032089E7A04D00209C000020F5
:103DE0000001002054000020107AFF1FCDF8BFA86A
:103DF000656EB5C44D4143B5D8D6B7CEAA3A2E2E7E
:103E00002E2E2E2E2E2E2E2E2E2E2E2E2E2E2564A5
:103E10002E25642E25642E25642E25642E25640D02
:103E20000A000000BEB2CCAC4950B5D8D6B72E2E91
:103E30002E2E2E2E2E2E2E2E2E2E2E2E2E2E2E2EA2
:103E40002E2E2E2E2E2E25642E25642E25642E2514
:103E5000640D0A00D7D3CDF8D1DAC2EB2E2E2E2E68
:103E60002E2E2E2E2E2E2E2E2E2E2E2E2E2E2E2E72
:103E70002E2E2E2E2E2E25642E25642E25642E25E4
:103E8000640D0A00C4ACC8CFCDF8B9D82E2E2E2EA2
:103E90002E2E2E2E2E2E2E2E2E2E2E2E2E2E2E2E42
:103EA0002E2E2E2E2E2E25642E25642E25642E25B4
:103EB000640D0A00B6CBBFDABAC52E2E2E2E2E2EDA
:103EC0002E2E2E2E2E2E2E2E2E2E2E2E2E2E2E2E12
:103ED0002E2E2E2E2E2E25640D0A00009FEA00089D
:103EE000CD4C00081CB5824D824F00244FF00A0AC9
:103EF0004FF4806600221146202007F021FB7860F5
:103F0000C0F81CA0B146314600200DF0A1FAF861BE
:103F1000786800287BD0EA8A774907F09DFB18B1C2
:103F200076A00EF06BFFE5E7387800061FD509F0A4
:103F3000D3F91FFA88F1F86009F0EBF9F868424606
:103F4000F969006840680FF04AF8F968786807F086
:103F5000BCFE10B16DA00EF051FF387820F080004B
:103F60003870786807F0BEFBF86809F0C1F961495C
:103F70007868083107F02BFEB968002978D0886886
:103F800078618A895B49030E10317A80C0F3074655
:103F9000CB70C0F307258E704D70C0B20870B96148
:103FA000310440EA036041EA05210843019001A978
:103FB000786807F074FB0DF031F982460D2002F0AD
:103FC000FAF806464946F8690FF04EF8B8680568F1
:103FD0000FE06A89C4F58060824200D90246F86920
:103FE000696820440EF0FBFF688904444C4502D800
:103FF0002D68002DEDD150460DF014F92246002415
:104000000120307006F108012046716005E05DE096
:10401000FB691B5C01F8013B401C9042F8D3B0885F
:10402000081A0004000C708045D040F6B831884270
:1040300041D84946F8690FF017F8B86809F058F9FF
:10404000718835A00EF0DAFE374D314628680BF046
:10405000DDFE40B20028F8D134486A4640F2DC5117
:1040600000680BF036FE01469DF8000040B100E00C
:1040700025E02FA00EF0C2FE786807F033FB53E76F
:104080000022F86903E04B689B5C8354521C4B8808
:104090009342F8D838781FFA83F840F080003870DF
:1040A0000D2002F0AEF827A00EF0A8FE28A0F969B6
:1040B0000EF0A4FE38E7B86809F01AF9DCE7002230
:1040C0000523114610460CF0C2FC2DE725A028E779
:1040D00070B50DF0A3F804460623274A00212748AF
:1040E0000CF0CEF9054620460DF09CF8284670BD30
:1040F000844D00205C000020D4330108554450B0AA
:10410000F3B6A8CAA7B0DC0D0A000000B7A2CBCD59
:10411000CAA7B0DC0D0A0000B1A8CEC4B3A4B6C8CB
:10412000CEAA25640D0A0000000000200400002033
:10413000BCD3C3DCC8CECEF1CEDEB7B5BBD80D0A3A
:1041400000000000B7B5BBD8B3C9B9A60D0A00007E
:10415000B7B5BBD8B5C4CAFDBEDDCEAA0D0A25735E
:104160000D0A0000554450C1ACBDD3B4B4BDA8CABB
:10417000A7B0DC0D0A0000004C5A0020E53E000804
:1041800070B5FC4E00EB8004002556F8240018B1F1
:1041900002F0DCF946F8245006EB8400F6498574F9
:1041A000C57485604560D1F80620C26049890182E6
:1041B00070BD70B5EF4D002404EB840005EB80006A
:1041C000827C92B1C17C491CC9B2C174F02906D26B
:1041D000012A02D0032A06D007E0022905D320468F
:1041E000FFF7CEFF01E002218174641CE4B20A2CC7
:1041F000E2D370BD2DE9F34F80460A2085B000243C
:1042000002900746A346A2460190A1460090D949D4
:1042100004EB840001EB80060390B57C0A2F18D0D4
:10422000002D24D0012D08D0022D06D2D3A340F2B8
:104230002B12DCA1EBA00EF0E1FDB8F1000F0CD0C9
:10424000D8F800007168884207D160B207B0BDE8B5
:10425000F08F002DE6D167B209E0012D15D0022DB7
:1042600005D3F07C504502D361B282460191641CB3
:10427000E4B20A2CCBD3069881074FF0FF30E5D487
:104280000A2F15D017DAFCB23AE0BA48039950F871
:1042900021000028F07C05D04845E8D361B2814672
:1042A0000091E4E75845E2D361B283460291DEE72C
:1042B0000699C907CAD001990A290EDACCB2AD48CD
:1042C00004EB840150F8210070B1ACA340F27112EC
:1042D000CFA1C4A00EF092FD06E002990A2902DBEC
:1042E00000990A29B2DACCB20A2C06D3A3A340F271
:1042F0008312CDA1BBA00EF081FD2046FFF740FF49
:104300000A2C06D39DA340F28712C7A1B5A00EF0D8
:1043100075FD984804EB840100EB8105A87C30B161
:1043200096A34FF4C472C5A1AEA00EF067FDB8F11C
:10433000000F02D0D8F8000068600020E87484E71D
:104340002DE9F041054690F822004C681E461746BC
:104350008846062806D089A340F2A312C249A1A02C
:104360000EF04CFD30682060B088A0803868C4F83A
:104370000600B88860810820A08141462846AA69C5
:10438000BDE8F04110472DE9F041044690F82200C5
:104390001F4615460E46062806D078A340F2C312E3
:1043A000B2A190A00EF02AFD86B3306870B321460A
:1043B00001F07EF950BB3078C0F303100E2826D0F0
:1043C00039463046FFF716FF00281DDB694A00EB2F
:1043D000800102EB81000223837484602B68C36038
:1043E000AB8803820023C37452F821605EB142F8A7
:1043F00021302B4604F1230231462046FFF7A0FF6F
:10440000304602F0A3F80020BDE8F081FFE76FF02E
:104410000D00F9E770B5574E0546002404EB840003
:1044200006EB8000817C29B18068A84202D1204639
:10443000FFF7A6FE641CE4B20A2CEFD370BD70B582
:104440001C4615000E4601D0002C06D14BA34FF49C
:10445000187290A163A00EF0D1FC02213046FFF744
:10446000C9FE00280DDB434900EB800201EB82010D
:104470008A7C022A05D301F10C02091D2A60216001
:1044800070BD4FF0FF3070BD2DE9F84F9046894662
:10449000050010D0B8F80A002A2866D3D8F80460BE
:1044A0004FF4807A344634F80E0F50455DD12079B0
:1044B00006285AD108E031A340F2BB227EA149A0D0
:1044C0000EF09CFCBDE8F88F607904284DD160881F
:1044D00008284AD1D4F80E000090A169281D05D003
:1044E000686818B1814201D1012700E000270FB1AF
:1044F000012300E0022304F1080269462846FFF781
:1045000042FFE088504530D1002F2ED0022001F02C
:104510000BFEE080D4F80E00A0616868C4F80E00BD
:1045200095F82200062806D014A340F211324E4915
:104530002CA00EF063FCA068C4F81200A089E082F1
:10454000A0683060A089B080D9F80010A160B9F8E7
:104550000400A081D9F80010C6F80610B9F80400CC
:104560007081AA69414628469047404601F0EEFF17
:10457000A8E70000505A0020C63301082E2E5C4CDC
:104580005749505C6C7769702D312E342E315C7335
:1045900072635C6E657469665C6574686172702EC6
:1045A000630000007374617465203D3D20455448EC
:1045B0004152505F53544154455F50454E44494E1B
:1045C00047207C7C207374617465203E3D204554F7
:1045D000484152505F53544154455F535441424CFB
:1045E00045000000417373657274696F6E20222567
:1045F0007322206661696C6564206174206C696E49
:104600006520256420696E2025730D0A00000000D6
:104610006172705F7461626C655B695D2E71203DD3
:104620003D204E554C4C000069203C204152505FCB
:104630005441424C455F53495A4500006172705FD6
:104640007461626C655B695D2E7374617465203D95
:104650003D204554484152505F53544154455F45B5
:104660004D50545900000000CC3501086E65746946
:10467000662D3E6877616464725F6C656E203D3DB7
:10468000204554484152505F4857414444525F4C82
:10469000454E00006574685F72657420213D204EB0
:1046A000554C4C2026262069705F72657420213D90
:1046B000204E554C4C0000006E6574696620213D0B
:1046C000204E554C4C0000002DE9F05F9846DDF877
:1046D0002CB091468A46070009D1AFF2601340F230
:1046E000A542AFF22C01AFF204100EF087FB0022BE
:1046F0002A21032001F087FF060057D070892A285D
:1047000008D2AFF288134FF49662FAA1AFF22C10E0
:104710000EF074FB75680D9805F10E0401F004FDB0
:10472000E08097F82200062808D0AFF2B013FE49C7
:104730004FF49762AFF254100EF060FBD8F80010FF
:10474000A160B8F80400A081DBF80010C4F81210D2
:10475000BBF80400E082D9F800102960B9F8040021
:10476000A880DAF80010C5F80610BAF804006881CD
:104770000A9831460068C4F80E000C980068A061E1
:104780004FF4807020800820608006202071042073
:1047900060714FF4C160A881BA69384690470446F9
:1047A000304601F0D3FE2046BDE8F09F4FF0FF30C9
:1047B000FAE71FB50123DD4C021DCDE90213CDE957
:1047C000002400F123031946A21FFFF77DFF04B068
:1047D00010BD70B505460E46D54802EB820100EBD0
:1047E0008104A07C022808D2AFF270234FF45372E8
:1047F000D0A1AFF210200EF001FBA07C022809D15D
:10480000E07CE42806D3211D2846FFF7D2FF08B933
:104810000320A07404F10C0305F12302314628465D
:10482000BDE870408CE52DE9F74F82B088460298CC
:104830004FF0FF3B23300090086816465F46029910
:1048400000F036FF00282BD1D8F80000C0F3031188
:104850000E2925D0B8F1000F22D0002820D0012148
:104860004046FFF7C7FC04001CD4DFF8C4A204EBE9
:1048700084090AEB8905A87C002815D0012815D0E9
:1048800002280BD2AFF20C3340F21942B5A1AFF2BD
:10489000AC200EF0B3FAA87C012807D036B10CE0AA
:1048A0006FF00D0005B0D2E40120A87441460298D3
:1048B000FFF77FFF0746002EF4D0A87C02280AD31A
:1048C000B24805F10C0331460470009A0298FFF7D4
:1048D00037FD07463AE0D046012837D10025344657
:1048E00040F23E4760892189884209D1206838B169
:1048F000AFF278333A46A6A1AFF218300EF07EFA46
:10490000207B012803D12468002CEBD175B12189CB
:104910000022032001F077FE050016D0314602F098
:1049200001FA40B1284601F011FE0EE0354630464E
:1049300002F07AF94DB158F82900444608B101F067
:1049400005FE44F82950002700E05F463846A9E7F5
:104950002DE9FC4115460E46040009D1AFF2E433BF
:1049600040F27532AFF2B021AFF288300EF046FA65
:1049700046B9AFF2F83340F276328CA1AFF29C30F8
:104980000EF03CFA45B9AFF20C4340F277328AA1FF
:10499000AFF2B0300EF032FA0E21304601F0A8FF2F
:1049A00018B16FF00100BDE8FC812146286800F0D5
:1049B0007FFE10B15D4B9B1F3CE02868C0F30311E4
:1049C0000E2922D0A168636800EA01020B409A42D6
:1049D0000BD080B2A0F57E41A93906D014F10C0F9E
:1049E0002FD0E06868B304F10C05684B504A187882
:1049F00000EB800102EB81018F7C022F24D32F6812
:104A000049688F4220D102462CE001208DF8000039
:104A100000208DF801005E208DF8020068786B465A
:104A200000F07F008DF80300A8788DF80400E87886
:104A30008DF8050004F1230231462046FFF780FC83
:104A4000B1E76FF00300AEE7002000EB800102EB5E
:104A500081018F7C022F0AD32F6849688F4206D1CB
:104A6000C2B21A7031462046FFF7B3FE9BE7401CE6
:104A700040B20A28E9DB324629462046FFF7D3FE3A
:104A800091E770B5044640890D460E2830D960681C
:104A900001788689CA0715D0012906D02349062244
:104AA000891F0EF051FA48B10CE0417851B9807875
:104AB0005E2807D1607B40F0100002E0607B40F090
:104AC00008006073082E03D0B6F5C16F10D186E0E0
:104AD00095F8290080060BD56FF00D01204601F0F6
:104AE00007FF20B1AFF26C5340F24F526CE071E01F
:104AF00081E00000636865636B2074686174206600
:104B00006972737420706275662063616E20686FCD
:104B10006C6420737472756374206574686172705C
:104B20005F68647200000000CC350108CC330108D6
:104B3000505A00206172705F7461626C655B6172D3
:104B4000705F6964785D2E7374617465203E3D20EA
:104B50004554484152505F53544154455F5354416A
:104B6000424C45006172705F7461626C655B695DA7
:104B70002E7374617465203D3D2050454E44494E6E
:104B800047206F7220535441424C45007C00002066
:104B90006E6F207061636B657420717565756573E8
:104BA00020616C6C6F776564210000007120213DED
:104BB000204E554C4C0000006970616464722021E5
:104BC0003D204E554C4C00000DA1AFF2E8500EF0C8
:104BD00015F910E02946204600F0EBFB09E095F8B6
:104BE0002900800607D5224605F123012846FFF754
:104BF0004BFC002070BD204601F0A8FCF9E7000046
:104C000043616E2774206D6F7665206F7665722024
:104C100068656164657220696E207061636B65749C
:104C20000000000070B50C460025FBF798FD064615
:104C300007E06289701961680EF0D1F96089246813
:104C40000544002CF5D1A8B2FBF76BFD08B100209C
:104C500070BD4FF0FF3070BD2DE9FE438146002549
:104C60006846FBF736FDDDE901710098884681B2A0
:104C70000322104601F0C7FC06000AD00446791949
:104C8000628960680EF0ABF9608924680544002CE5
:104C9000F5D14FF00041C8F80010384841690906C5
:104CA00003D5802141610021816066B1D9F81020CF
:104CB000494630469047040002D0304601F046FC99
:104CC0002046BDE8FE834FF0FF30FAE710B5040040
:104CD00005D12BA3742235A137A00EF08FF86520E3
:104CE00084F82A006E2084F82B003E4860613E481C
:104CF000A061204600F002F8002010BD70B506212A
:104D000080F8221039490A7880F823204A7880F800
:104D100024208A7880F82520CA7880F826200A790D
:104D200080F82720497980F8281040F2DC5101846E
:104D3000322180F8291000F123010020FDF730FE18
:104D40002B482C4D052201682868FDF78AFF2A4868
:104D50000522016829480068FDF72EFF00244FF462
:104D600040062868314600EB4410FDF7B7FF641C8D
:104D7000052CF6DBFDF7D3FD002070BD009002404E
:104D80002E2E5C4C5749505C6C7769702D312E3457
:104D90002E315C7372635C6E657469665C65746801
:104DA00065726E657469662E630000006E657469D5
:104DB00066213D4E554C4C00417373657274696FAA
:104DC0006E2022257322206661696C6564206174FF
:104DD000206C696E6520256420696E2025730D0A9C
:104DE0000000000051490008254C0008844D0020B7
:104DF0002C0000202400002028000020200000209B
:104E00002DE9FE4F456804468A4628780007870E3C
:104E100079428846204601F06BFD00287AD120892E
:104E2000042877D36068007800287FD008287DD1D7
:104E3000624901260868C0F303120E2A00D1002639
:104E40008946514600F034FC00286FD1002E6DD009
:104E5000208908286AD3204600F038FA002865D156
:104E60002221204601F044FD002831D03946204659
:104E700001F03EFD18B152A398225BA147E02189C1
:104E80000022022001F0BFFB06004FD0718907F11C
:104E90000800814205D24AA3A12260A16DA00DF0B5
:104EA000ADFF2146304601F03DFF18B144A3A522D5
:104EB00073A12CE041463046756801F019FD10B130
:104EC0003FA3AB220CE0204601F040FB344609E052
:104ED0006FF02101204601F00BFD18B138A3B52277
:104EE00071A114E06068D9F80010E9607B490026E0
:104EF0000968296106704680FF2028726E81394654
:104F0000204601F0F5FC30B12DA3EC2274A151A094
:104F10000DF074FF0AE00121CDE90061FF230022BA
:104F2000CDF808A02549204600F0E6FA2046BDE865
:104F3000FE4F01F00BBB2DE9FE4391460E4607469E
:104F400000222421012001F05EFB05002DD068899C
:104F5000242806D21AA34FF4A2726AA13DA00DF034
:104F60004DFF6C68D7F804801C22267084F80190ED
:104F70000026A680E6806868796808300EF02FF871
:104F800066806989204600F09BF96080D8F80C00A3
:104F900002900120CDE90060FF2302AA00212846EB
:104FA00000F014FB284601F0D1FABDE8FE830A4662
:104FB0000321C0E70A460B21BDE700009000002056
:104FC0002E2E5C4C5749505C6C7769702D312E3415
:104FD0002E315C7372635C636F72655C69707634EA
:104FE0005C69636D702E630069636D705F696E70DC
:104FF00075743A206D6F76696E6720702D3E706112
:10500000796C6F616420746F2069702068656164D9
:105010006572206661696C65640A00006368656397
:105020006B20746861742066697273742070627595
:10503000662063616E20686F6C64207374727563A0
:1050400074207468652049434D502068656164652B
:1050500072000000417373657274696F6E202225BF
:105060007322206661696C6564206174206C696ECE
:105070006520256420696E2025730D0A000000005C
:1050800069636D705F696E7075743A20636F7079D3
:10509000696E6720746F206E657720706275662078
:1050A0006661696C65640A0069636D705F696E7042
:1050B00075743A20726573746F72696E67206F72CF
:1050C0006967696E616C20702D3E7061796C6F61EB
:1050D00064206661696C65640A0000008C00002031
:1050E00043616E2774206D6F7665206F7665722040
:1050F00068656164657220696E207061636B6574B8
:1051000000000000636865636B207468617420664A
:105110006972737420706275662063616E20686FB7
:105120006C642069636D70206D65737361676500E1
:1051300018B50022ADF8002010F001030BD00029B3
:1051400009DD10F8014B8DF80140491E03E030F8ED
:10515000024B891E22440129F9DC002902DD007876
:105160008DF80000BDF800001044010C11FA80F029
:10517000010C11FA80F023B1C1B2C0F3072040EA5C
:10518000012080B218BD2DE9F0470024994617464A
:10519000884605462646DDF820A013E06989686840
:1051A000FFF7C6FF2044010C11FA80F4A87AC0076B
:1051B00007D0C6F10100C6B2E0B2C4F3072141EA4C
:1051C00000242D68002DE9D126B1E0B2C4F30721F7
:1051D00041EA0024D8F8000014FA80F101EB1041F4
:1051E000386811FA80F101EB1044484600F09CFF4A
:1051F0000444504600F098FF2044010C11FA80F05E
:10520000010C11FA80F0C04380B2BDE8F0872DE9AF
:10521000F05F00249B46924689460546A0460B9EB9
:1052200025E06F89B74200D9374639466868FFF7ED
:105230007FFF0444F01B86B247F6FF70864206D318
:1052400034A34FF4B1723FA141A00DF0D7FD200C63
:1052500010FA84F4A87AC00708D0C8F1010000F061
:10526000FF08E0B2C4F3072141EA00242D680DB124
:10527000002ED6D1B8F1000F04D0E0B2C4F307215C
:1052800041EA0024D9F8000014FA80F101EB104142
:10529000DAF8000011FA80F101EB1044584600F0F2
:1052A00043FF04440A9800F03FFF2044010C11FA28
:1052B00080F0010C11FA80F0C04380B2BDE8F09F8D
:1052C00010B5FFF735FFC04380B210BD70B50024A4
:1052D0000546264613E069896868FFF729FF2044E0
:1052E000010C11FA80F4A87AC00707D0C6F10100BA
:1052F000C6B2E0B2C4F3072141EA00242D68002DB4
:10530000E9D126B1E0B2C4F3072141EA0024E04329
:1053100080B270BD2E2E5C4C5749505C6C77697022
:105320002D312E342E315C7372635C636F72655C59
:10533000697076345C696E65745F63686B73756DF4
:105340002E63000064656C657465206D6500000067
:10535000417373657274696F6E2022257322206613
:1053600061696C6564206174206C696E65202564D8
:1053700020696E2025730D0A0000000010B5044658
:10538000A4480AE090F82910C90706D0816822686D
:1053900043680A400B409A420AD000680028F1D1C5
:1053A0009D48006818B190F82910C90700D1002065
:1053B00010BD2DE9F05F456806468846287804212F
:1053C000B1EB101F0FD100F00F004FF6FF7101EA93
:1053D0008004688800F0AAFE01467089A04202D3CA
:1053E0003089884203D2304601F0B0F84EE03046B2
:1053F00001F021FA89482969A0F1040A0160EA68EC
:10540000DFF810B2012744468146CAF8002094F81C
:105410002900C0070BD0201D09D0616839B1D9F827
:10542000000088420ED0214600F042F950B91FB169
:105430000027DBF8004000E02468444500D12468E0
:10544000002CE4D157464146DAF8000000F030F96C
:105450000028C8D13878BA46C0F303100E28C2D04D
:10546000002CC0D0E88830F0C00005D0304600F0F5
:10547000BBFB06000AD07568684C4146103C3046BC
:10548000C4E9018501F0FEFE18B12DE00020BDE861
:10549000F09F687A012815D006280ED0112807D071
:1054A0004F464146D9F8000000F002F978B118E003
:1054B0004146304605F091F916E04146304603F08A
:1054C000BDFD11E041463046FFF79AFC0CE038780C
:1054D000C0F303100E2804D0022130467560FFF798
:1054E00066FD304601F032F800206060A060CAF826
:1054F0000000C9F80000C9E72DE9F84F0546DDE9CD
:105500000BA6C089DDF828B09846174689460128C1
:1055100006D043A34FF427724BA14EA00DF06EFCB2
:10552000002F3ED01421284601F0E2F918B16FF0A7
:105530000100BDE8F88F68896C68142806D238A38A
:1055400040F2C9224EA143A00DF058FC84F8088017
:1055500084F809A0386820614520207084F801B0E3
:10556000288900F0E1FDDFF8B48060804FF0000A88
:10557000A8F11008A4F806A0B8F8000000F0D4FDC7
:10558000A080B8F80000401CA8F80000B9F1000F96
:1055900002D0D9F8000000B97068E060A4F80AA051
:1055A00003E068686F4600690090308C40B129893B
:1055B000814205D93A463146284600F0D7FCB8E783
:1055C00073693A46294630469847B2E72DE9FE43CB
:1055D0000446DDE90A65C0899846174689460128D0
:1055E00006D00FA340F2393217A11AA00DF006FC25
:1055F0003846FFF7C3FE50B10096CDE9015043464F
:105600003A4649462046FFF777FFBDE8FE836FF034
:105610000300FAE7A4000020A8000020900000206A
:105620002E2E5C4C5749505C6C7769702D312E34AE
:105630002E315C7372635C636F72655C6970763483
:105640005C69702E63000000702D3E726566203D1F
:105650003D203100417373657274696F6E2022259D
:105660007322206661696C6564206174206C696EC8
:105670006520256420696E2025730D0A0000000056
:10568000636865636B207468617420666972737403
:1056900020706275662063616E20686F6C64207391
:1056A00074727563742069705F6864720000000032
:1056B000421C12D088B191F8292092070BD54A6874
:1056C000824208D0896800EA01030A40934202D16D
:1056D0000143491C01D0002070470120704710B5DC
:1056E00000F026FD4FF00041084207D04908FBD1E9
:1056F00006E0084201D0002010BD49080029F8D179
:10570000012010BD2DE9FF41884606466F4604780A
:105710000DF06CFB03461A68105D202853D100255C
:105720000A20302C06D116F8014F782C08D0582CBE
:1057300006D00820115D202904D0102806D016E0DC
:10574000102011E0303C05FB00450DE081EA810CA2
:105750005FEA0C6C0BD5090701D5612100E04121FE
:10576000611A0A3141EA051516F8014FE2E72E2CBD
:1057700010D01CB11868005DC00725D06846381AE3
:10578000012101EBA00005282BD2DFE800F01C303E
:105790000A111A0003A8874215D220C716F8014F34
:1057A000B9E7B5F1807F0ED2009845EA00651EE0AA
:1057B000B5F5803F07D200980199000640EA014004
:1057C0000DE0FF2D03D9002004B0BDE8F081009862
:1057D0000199000640EA0140029940EA0120054390
:1057E00005E02CA3F32236A138A00DF007FBB8F199
:1057F000000F04D0284600F09BFCC8F800000120F0
:10580000E2E708B56946FFF77DFF08B1009808BDDB
:105810004FF0FF3008BD2DE9FC43002300688946A6
:105820006C461D464FF00A0801AF00900020267814
:10583000B6FBF8FC08FB1C6CB6FBF8F626700CF106
:10584000300C07F800C0401CC0B2002EEFD106E0BB
:105850001E465B1C964209DA3E5C01F8016B401E55
:10586000C0B2F5D218465B1C904202DB0020BDE8B6
:10587000FC832E206D1CEDB2641C01F8010B042D7D
:10588000D4D3002001F8010C4846F0E710221A4951
:10589000C1E700002E2E5C4C5749505C6C77697054
:1058A0002D312E342E315C7372635C636F72655CD4
:1058B000697076345C69705F616464722E630000A5
:1058C000756E68616E646C65640000004173736599
:1058D0007274696F6E2022257322206661696C657F
:1058E00064206174206C696E6520256420696E20D7
:1058F00025730D0A00000000185B002070B50446F7
:10590000F0480D464168A14202D12168416009E09A
:1059100035B9EDA340F23912F6A1FDA00DF06EFAF3
:10592000206828602146BDE87040052000F069BC71
:105930002DE9F047064600250F46B14205D1E2A306
:10594000A522FEA1F2A00DF059FA47B13868B04285
:1059500005D0DDA3A722FCA1EDA00DF04FFA7468DD
:105960004FF480386068818800291AD1006870601F
:10597000142206F1080160680DF031FB0121204678
:10598000FFF718FB204601F046F90546404505D3D0
:10599000CDA3B622F1A1DEA00DF030FA204600F032
:1059A000D5FDC146746812E06068A04604684046B0
:1059B00001F031F905444D4505D3C3A3C622E7A143
:1059C000D3A00DF01BFAADB2404600F0BFFD002C95
:1059D000EAD139463046FFF791FFBA4C2088A842F9
:1059E00005D2B9A3CC22E5A1C9A00DF007FA208801
:1059F000401B20802846BDE8F08770B5B1480025DF
:105A000044680BE0E07F20B1401EE0772546246823
:105A100004E0204624682946FFF78AFF002CF1D1D4
:105A200070BD2DE9F041DFF89C820F460546002647
:105A3000002213461446D8F804001AE04169D5F84C
:105A40000CC0614509D18169D5F810C0614504D108
:105A50008189B5F804C0614507D0641C22B1C17FBB
:105A600092F81FC0614500D80246016801B10346A3
:105A700008460028E2D122B119461046FFF758FF28
:105A80000644BE4201DA012CD2DC3046BDE8F0818A
:105A90002DE9F0474C6806468846002501276088B6
:105AA00000F044FB217801F00F01494200EB81092D
:105AB000E08800F03BFBC004D8F80440020C002052
:105AC000206002EB0900A2801FFA80FCA4F806C047
:105AD00071681DE0486883889A420ED2216045B102
