:030000000224884F
:0C248800787FE4F6D8FD75815F0224CF58
:1026C20068656C6C6F2077726F6C64003132002029
:1026D2002020202020202020202020202020004DEB
:1026E200656173757265005365747570004869732E
:1026F200746F72790053696C656E740069203D20B5
:1027020025640D0A00252E3266000000000000003C
:022712000000C5
:06276500015F00015E00AF
:10259F00D2AF12291F1228F312299AE4F594F5935A
:1025AF00F592F5915395FE43960153B3E043B41F53
:1025BF0043930F5394F012295574FFF528F529F51D
:1025CF002A752B26752CC27B007AF87DC87C007F7C
:1025DF00467E001221F174FFF535F536F537753863
:1025EF00267539CE7B1F7A007D647C007F207E00AC
:1025FF001220E51227148F5F1222E61223D880F3E0
:1022E600AF5FEF3395E0FEEF64044E60030223D741
:1022F600055EE55E24FE603C1460641470030223F0
:1023060090240360030223C874FFF528F529F52AF3
:10231600752B26752CD1FBFA7DC87C007F467E0086
:102326001221F174FFF528F529F52A752B26752C4F
:10233600E10223B974FFF528F529F52A752B2675D0
:102346002CD1FBFA7DC87C007F467E001221F174F9
:10235600FFF528F529F52A752B26752CE980547486
:10236600FFF528F529F52A752B26752CD1FBFA7D64
:10237600C87C007F467E001221F174FFF528F529FE
:10238600F52A752B26752CEF802974FFF528F5297B
:10239600F52A752B26752CD1FBFA7DC87C007F4665
:1023A6007E001221F174FFF528F529F52A752B26F2
:1023B600752CF77B007AF87DC87C007F467E00127C
:1023C60021F1AF5EEF3395E0FEEF64044E7002F547
:0223D6005E2285
:1023D80078227C007D007BFF7A27790C7E007F08BD
:1023E800121973E4F52EF52DF52CF52BAF5FEF33AD
:1023F80095E0FEEF64014E7035F52AC3E52A940591
:102408007480948050287BFF7A2679FE852A3A12B8
:102418001A97121FD0AC07EC1215468F2E8E2D8DF1
:102428002C8C2B7F0A7E0012290A052A80CDAF2E1C
:10243800AE2DAD2CAC2BE4FBFA79A0784012149F9A
:102448008F2E8E2D8D2C8C2B753AFF753B27753C66
:10245800078F408E3F8D3E8C3D7B007A007922129B
:102468001A9174FFF535F5367537007538007539EA
:10247800227B1F7A007D647C007F207E000220E59D
:06276B0004530000000011
:10290A008E558F56E4F553F554C3E5549556E55361
:05291A00955540F52277
:10291F00438E805389F0758A40758CA2C28DD2A9DF
:03292F00D28C2225
:03000B000227AF1A
:1027AF00C0E0C0F0C083C082C0D075D000C000C0F0
:1027BF0001C002C003C004C005C006C007C28D051A
:1027CF0054E5547002055312000ED007D006D00501
:1027DF00D004D003D002D001D000D0D0D082D0838B
:0527EF00D0F0D0E03243
:10277100420023000041000000410002004100012D
:1027810000602000030000000000000000000000C5
:102791000000000000000000000000000000000038
:0527A100000000000033
:1028F300759850438E40538EFE53890F758B8F7599
:072903008DFDC2ABD28E2254
:080003008F993099FDC299228A
:08298D008F993099FDC29922D7
:102868008B5B8A5C895DED1DAE0470011C4E6017A0
:10287800AB5B055DE55DAA5C7002055C14F9121995
:0828880099FF12000380DF221A
:1028DA00759A50438E0475D78F75D6FD438E105363
:0928EA009AFD439A0143AF01225B
:0C2981008F9BE59A540260FA539AFD22E5
:102890008B378A388939ED1DAE0470011C4E6017E4
:1028A000AB370539E539AA387002053814F9121921
:0828B00099FF12298180DF224B
:0300430002266B27
:10266B00C0E0C083C082C0D075D000C006C007E5F3
:10267B009A30E036539AFE900002E59BF0900023CF
:10268B00E4F0A304F0900000E0701F900002E0FF64
:10269B00900001E0FE04F074032EF582E43400F5A3
:1026AB0083EFF0900001E0541FF0D007D006D0D09C
:0726BB00D082D083D0E03291
:10000E00D3900024E09400900023E094004024A3B9
:10001E00E004F07006900023E004F0D3900024E09A
:10002E009464900023E094004009E4F0A3F0900063
:04003E000004F022A8
:10293200CCE5CEC22025302E32660D0A00FAC5BF84
:03294200FACAC40A
:03299A000228DA36
:101FD000E4F52FF53078317C00FD7BFF7A29793FDD
:101FE000FE7F061219737B007A0079317D067C0032
:101FF000122890900000E070167F01FE12290A0559
:102000002FD3E52F94647480948040E77F01229061
:102010000001E064096003E48033E4FF900001E024
:10202000FE14FDEFC39D501274032FF582E43400BB
:10203000F583E02530F5300F80E274022EF582E45E
:102040003400F583E065306012E4900001F0900008
:1020500023F0A3F0900000F07FFF22900006E0FC48
:10206000E4121546E4FBFA79C8784212149FC004C2
:10207000C005C006C007900005E0FCE4121546A8A4
:1020800004A905AA06AB07D007D006D005D00412D4
:1020900013AB8F3D8E3C8D3B8C3A7BFF7A29793296
:1020A000121A97E4900001F0900023F0A3F0900042
:1020B00000F0900006E0FCE4121546E4FBFA79C853
:1020C000784212149FC004C005C006C007900005E6
:1020D000E0FCE4121546D003D002D001D000121368
:0420E000AB12157AB0
:0120E40022D9
:0827A600025900000257FFFF79
:1028B800E4FEEEC39408748094805015C2C3EF30D0
:1028C800E704D2C08002C2C0D2C3EF25E0FF0E8069
:0128D800E11E
:0128D90022DC
:0A2965001229957FD012296F7F041C
:05296F00D2C20228B8ED
:10294500AD07AC06D2C2AF041228B8AF050228B84D
:05299500C2C20228B8D7
:0D297400D2C3D2C0D2A0D2C2C2C1C2C422FE
:101EA400C2A07FC87E0012290AD2A07F147E00122D
:101EB400290AD2C47F361229957FC012296F7F3A2E
:101EC4001229957F0512296F7FB21229957F0C1272
:101ED400296F7F0C12296FE4FF12296F7F331229B7
:101EE4006F7F3312296F7FB71229957F3512296FBF
:101EF4007FBB1229957F1912296F7FC01229957F04
:101F04002C12296F7FC21229957F0112296F7FC37A
:101F14001229957F1212296F7FC41229957F2012EE
:101F2400296F7FC61229957F0F12296F7FD012293E
:101F3400957FA412296F7FA112296F7FE012296572
:101F44007F0D12296F7F1112296F7F1312296F7F62
:101F54002B12296F7F3F12296F7F5412296F7F4CF8
:101F640012296F7F1812296F7F0D12296F7F0B12B0
:101F7400296F7F1F12296F7F2312296F7FE1122996
:101F8400657F0C12296F7F1112296F7F1312296F3D
:101F94007F2C12296F7F3F12296F7F4412296F7F94
:101FA4005112296F7F2F12296F7F1F12296F7F1FF4
:101FB40012296F7F2012296F7F2312296F7F21122C
:0C1FC40029957F111229957F290229958B
:10295500122974121EA474FFFFFE122831D2C4225C
:1027F4008E3F8F408D828C837F2A122995AF40AE05
:102804003F122945AF03AE021229457F2B122995A9
:10281400E5822450FFE43583FE122945E546245021
:0D282400FFE43545FE1229457F2C02299561
:042831008E228F2341
:102835007545007546EF7BEF7A00E4FDFCFFFE125F
:1028450027F4E4FB900000AF23AE22122945A3E54F
:102855008264F0458370F00BBB00010AEB64F04A1B
:0228650070E21F
:01286700224E
:0C21F1008E228F238C248D258A268B27BC
:1021FD00E4F52DF52EF52FF530F531AB2AAA2BA9E7
:10220D002C12199970030222E5E5232407FBE4350E
:10221D0022FAE525240FF546E43524F545AD25AC28
:10222D0024AF23AE221227F474082523F523E435B9
:10223D0022F522D3E52394E8E52294004010E4F53D
:10224D0022F52374102525F525E43524F524E4F530
:10225D002DF52EAB2AAA2BA92C12199975F010A4C5
:10226D0024B4F582E5F0340BF583E582252EF58255
:10227D00E583352DF583E493F531E4F52FF530C382
:10228D0074079530FF7E007401A807088005C333DD
:10229D00CE33CED8F9FFEF55316006AF27AE26808D
:1022AD0004AF29AE281229450530E5307002052FFF
:1022BD00C39408E52F940040C6052EE52E70020547
:1022CD002DC39410E52D940040897401252CF52C17
:0822DD00E4352BF52B02220869
:0122E50022D6
:0C20E5008E2F8F308C318D328A338B347B
:1020F100E4F53AF53BF53CF53DF53EAB37AA38A999
:102101003912199970030221F0E530241FFBE435DF
:102111002FFAE532243FF546E43531F545AD32ACD1
:1021210031AF30AE2F1227F474202530F530E4356D
:102131002FF52FD3E53094D0E52F94004010E4F52E
:102141002FF53074402532F532E43531F531E4F5BF
:102151003AF53BAB37AA38A939121999FFC3942E26
:10216100401EEFD394395018EF7F00FEEF2454F551
:102171008274D23EF583E582253BF582E5838008B2
:102181007454253BF582740C353AF583E493F53E9E
:10219100E4F53CF53DC37407953DFF7E007401A84D
:1021A10007088005C333CE33CED8F9FFEF553E6023
:1021B10006AF34AE338004AF36AE35122945053D46
:1021C100E53D7002053CC39408E53C940040C6051A
:1021D1003BE53B7002053AC3E53A94015003022105
:0F21E1005474012539F539E43538F5380220FCFE
:0121F00022CC
:042514008A0C8B0D95
:10251800E4F517F518E50D2FCBE50C3ECB24FFCBE2
:1025280034FFFAE50F2DF582E50E3CF583E58224AC
:10253800FFF546E58334FFF5451227F4E4F513F576
:1025480014C3E514950DE513950C504AE4F515F5FB
:1025580016C3E516950FE515950E5030AB10AA1168
:10256800A9129000011219B2FD121999F517EDF58B
:1025780018FFAE1712294574022512F512E4351119
:10258800F5110516E51670C9051580C50514E5147D
:0625980070AF051380ABDB
:01259E00221A
:06260F008D1A8B1BA907C8
:102615007E00C0077C00E9251BFFE433CF24FFFBC8
:10262500EF34FFFAE51A251CFFE433CF24FFF54606
:10263500EF34FFF545D0071227F4E4FBFAC3EB9519
:102645001BEA9400501F900000C3E582951CE583AA
:102655009400500AAF1EAE1D122945A380EB0BBB9B
:0526650000010A80D80D
:01266A00224D
:100046002E2F303132333435363738392000000020
:10005600000000000000000000000000000000009A
:10006600000000000000000000000000000000008A
:10007600000000000000000000000000000000007A
:10008600000000000000000000000000000000006A
:10009600000000000000000000000000000000005A
:1000A600000000000000000000000000000000004A
:1000B600000000000000000000000000000000003A
:1000C600000000000000000000000000000000002A
:1000D600000000000000000000000000000000001A
:1000E600000000000000000000000000000000000A
:1000F60000000000000000000000000000000000FA
:1001060000007F8000007F8000007F8000007F80ED
:1001160000007F8000007F8000007F8000007F80DD
:1001260000000000000000000000000000000000C9
:1001360000000000000000000000000000000000B9
:1001460000000000000000000000000000000000A9
:100156000000000000000000000000000000000099
:100166000000000000000000000000000000000089
:100176000000000000000000000000000000000079
:100186000000000000000000000000000000000069
:10019600000000000001000000030000000700004E
:1001A600000F0000001F0000003F0000003F00009D
:1001B600007F000000FF000001FF000003FF0000B9
:1001C60007FF00000FFE00000FFC000007F800000C
:1001D60007F8000003F0000001E00001F80000034A
:1001E600FF000003FF000007FE00000FFE00001FD7
:1001F600FC00003FF800007FF00000FFE00000FF79
:10020600C00001FF800003FF800007FF00000FFE13
:1002160000001FFC00003FF800003FF000003FE038
:1002260000000000000000000000000000000000C8
:1002360000000000000000000000000000000000B8
:1002460000000000000000000000000000000000A8
:100256000000000000000000000000000000000098
:100266000000000000000000000000000000000088
:100276000000000000000000000000000000000078
:1002860000000000000000000000007FFFF000FFFB
:10029600FFFC00FFFFFC00FFFFFC0FFFFFFF1FE05E
:1002A600001F1FE0001F1FE0001F1FE0001F1FE0D0
:1002B600001F1FE0001F1FE0001F1FE0001F1FE0C0
:1002C600001F1FE0001F1FE0001F1FE0001F1F8010
:1002D60000071C0000001C0000001F8000071FE034
:1002E600001F1FE0001F1FE0001F1FE0001F1FE090
:1002F600001F1FE0001F1FE0001F1FE0001F1FE080
:10030600001F1FE0001F1FE0001F1FE0001F0FFF60
:10031600FFFF00FFFFFF00FFFFFC00FFFFFC007F69
:10032600FFF00000000000000000000000000000D8
:1003360000000000000000000000000000000000B7
:1003460000000000000000000000000000000000A7
:100356000000000000000000000000000000000097
:100366000000000000000000000000000000000087
:100376000000000000000000000000000000000077
:100386000000000000000000000000000E00000059
:100396001E0000007E000000FE000001FE000001BD
:1003A600FE000001FE000001FE000001FE0000014B
:1003B600FE000001FE000001FE000001FE0000013B
:1003C600FE000001FE000001FE000001FE0000002C
:1003D6007E0000000E0000000E0000007E000001FE
:1003E600FE000001FE000001FE000001FE0000010B
:1003F600FE000001FE000001FE000001FE000001FB
:10040600FE000001FE000001FE000001FE000001EA
:10041600FE000000FE0000007E0000001E0000003E
:100426000E000000000000000000000000000000B8
:1004360000000000000000000000000000000000B6
:1004460000000000000000000000000000000000A6
:100456000000000000000000000000000000000096
:100466000000000000000000000000000000000086
:100476000000000000000000000000000000000076
:1004860000000000000000000000007FFFF001FFF8
:10049600FFFC03FFFFFC0FFFFFFC0FFFFFFF000049
:1004A600001F0000001F0000001F0000001F0000CA
:1004B600001F0000001F0000001F0000001F0000BA
:1004C600001F0000001F0000001F007FFFFF01FF4C
:1004D600FFFF07FFFFFF1FFFFFFF1FFFFFFC1FFFC1
:1004E60080001FE000001FE000001FE000001FE08A
:1004F60000001FE000001FE000001FE000001FE0FA
:1005060000001FE000001FE000001FE000000FFFDA
:10051600FFFC07FFFFFE00FFFFFF00FFFFFF007F5E
:10052600FFFF0000000000000000000000000000C7
:1005360000000000000000000000000000000000B5
:1005460000000000000000000000000000000000A5
:100556000000000000000000000000000000000095
:100566000000000000000000000000000000000085
:100576000000000000000000000000000000000075
:10058600000000000000000000001FFFFFC01FFF6A
:10059600FFF00FFFFFF003FFFFF001FFFFFF00007A
:1005A600007F0000007F0000007F0000007F000049
:1005B600007F0000007F0000007F0000007F000039
:1005C600007F0000007F0000007F01FFFFFF0FFF9C
:1005D600FFFF1FFFFFFF1FFFFFFF01FFFFFF0000E1
:1005E6007FFF0000007F0000007F0000007F00000A
:1005F600007F0000007F0000007F0000007F0000F9
:10060600007F0000007F0000007F0000007F01FFE8
:10061600FFFF03FFFFFE0FFFFFF01FFFFFF01FFFAF
:10062600FFC0000000000000000000000000000005
:1006360000000000000000000000000000000000B4
:1006460000000000000000000000000000000000A4
:100656000000000000000000000000000000000094
:100666000000000000000000000000000000000084
:100676000000000000000000000000000000000074
:1006860000000000000000000000000000001E0046
:1006960000011F0000071F80000F1FE0001F1FE062
:1006A600001F1FE0001F1FE0001F1FE0001F1FE0CC
:1006B600001F1FE0001F1FE0001F1FE0001F1FE0BC
:1006C600001F1FE0001F1FE0001F1FFFFFFF1FFF8F
:1006D600FFFF1FFFFFFF07FFFFFF00FFFFFF0000F9
:1006E60007FF0000001F0000001F0000001F0000A1
:1006F600001F0000001F0000001F0000001F000078
:10070600001F0000001F0000001F0000001F000067
:10071600001F0000000F000000070000000100009D
:1007260000000000000000000000000000000000C3
:1007360000000000000000000000000000000000B3
:1007460000000000000000000000000000000000A3
:100756000000000000000000000000000000000093
:100766000000000000000000000000000000000083
:100776000000000000000000000000000000000073
:1007860000000000000000000000007FFFFF00FFE7
:10079600FFFF00FFFFFE00FFFFFC0FFFFFF01FE063
:1007A60000001FE000001FE000001FE000001FE047
:1007B60000001FE000001FE000001FE000001FE037
:1007C60000001FE000001FE000001FFFFFF81FFFF2
:1007D600FFFE1FFFFFFF07FFFFFF00FFFFFF0000F9
:1007E60007FF0000001F0000001F0000001F0000A0
:1007F600001F0000001F0000001F0000001F000077
:10080600001F0000001F0000001F0000001F00FF67
:10081600FFFF01FFFFFF07FFFFFC0FFFFFFC0FFFBE
:10082600FFF00000000000000000000000000000D3
:1008360000000000000000000000000000000000B2
:1008460000000000000000000000000000000000A2
:100856000000000000000000000000000000000092
:100866000000000000000000000000000000000082
:100876000000000000000000000000000000000072
:1008860000000000000000000000007FFFFF00FFE6
:10089600FFFF00FFFFFE00FFFFFC0FFFFFF01FE062
:1008A60000001FE000001FE000001FE000001FE046
:1008B60000001FE000001FE000001FE000001FE036
:1008C60000001FE000001FE000001FFFFFF81FFFF1
:1008D600FFFE1FFFFFFF1FFFFFFF1FFFFFFF1FFFA3
:1008E600FFFF1FE0001F1FE0001F1FE0001F1FE0AB
:1008F600001F1FE0001F1FE0001F1FE0001F1FE07A
:10090600001F1FE0001F1FE0001F1FE0001F0FFF5A
:10091600FFFF07FFFFFF00FFFFFC00FFFFFC007F5C
:10092600FFF00000000000000000000000000000D2
:1009360000000000000000000000000000000000B1
:1009460000000000000000000000000000000000A1
:100956000000000000000000000000000000000091
:100966000000000000000000000000000000000081
:100976000000000000000000000000000000000071
:10098600000000000000000000007FFFFFFC7FFF6A
:10099600FFFE1FFFFFFE0FFFFFFE03FFFFFE00002F
:1009A60001FE000001FE000001FE000001FE000045
:1009B60001FE000001FE000001FE000001FE000035
:1009C60001FE000001FE000001FE000001FE000025
:1009D600007E0000000E0000000E0000007E0000F9
:1009E60001FE000001FE000001FE000001FE000005
:1009F60001FE000001FE000001FE000001FE0000F5
:100A060001FE000001FE000001FE000001FE0000E4
:100A160001FE000000FE0000007E0000001E000037
:100A2600000E0000000000000000000000000000B2
:100A360000000000000000000000000000000000B0
:100A460000000000000000000000000000000000A0
:100A56000000000000000000000000000000000090
:100A66000000000000000000000000000000000080
:100A76000000000000000000000000000000000070
:100A860000000000000000000000007FFFF000FFF3
:100A9600FFFC00FFFFFC00FFFFFC0FFFFFFF1FE056
:100AA600001F1FE0001F1FE0001F1FE0001F1FE0C8
:100AB600001F1FE0001F1FE0001F1FE0001F1FE0B8
:100AC600001F1FE0001F1FE0001F1FFFFFFF1FFF8B
:100AD600FFFF1FFFFFFF1FFFFFFF1FFFFFFF1FFFA0
:100AE600FFFF1FE0001F1FE0001F1FE0001F1FE0A9
:100AF600001F1FE0001F1FE0001F1FE0001F1FE078
:100B0600001F1FE0001F1FE0001F1FE0001F0FFF58
:100B1600FFFF07FFFFFF00FFFFFC00FFFFFC007F5A
:100B2600FFF00000000000000000000000000000D0
:100B360000000000000000000000000000000000AF
:100B4600000000000000000000000000000000009F
:100B5600000000000000000000000000000000008F
:100B6600000000000000000000000000000000007F
:100B7600000000000000000000000000000000006F
:100B860000000000000000000000007FFFF000FFF2
:100B9600FFFC00FFFFFC00FFFFFC0FFFFFFF1FE055
:100BA600001F1FE0001F1FE0001F1FE0001F1FE0C7
:100BB600001F1FE0001F1FE0001F1FE0001F1FE0B7
:100BC600001F1FE0001F1FE0001F1FFFFFFF1FFF8A
:100BD600FFFF1FFFFFFF07FFFFFF00FFFFFF0000F4
:100BE6003FFF0000001F0000001F0000001F000064
:100BF600001F0000001F0000001F0000001F000073
:100C0600001F0000001F0000001F0000001F007FE3
:100C1600FFFF00FFFFFF01FFFFFC07FFFFFC07FFD1
:100C2600FFF00000000000000000000000000000CF
:100C360000000000000000000000000000000000AE
:100C4600000000000000000000000000000000009E
:100C5600000000000000000000000000000000008E
:100C6600000000000000000000000000000000007E
:100C7600000000000000000000000000000000006E
:100C8600000000000000000000000000000000005E
:100C9600000000000000000000000000000000004E
:100CA600000000000000000000000000000000003E
:100CB600000000000000000000000000000000002E
:100CC600000000000000000000000000000000001E
:100CD600000000000000000000000000000000000E
:100CE60000000000000000000000000000000000FE
:100CF60000000000000000000000000000000000EE
:100D060000000000000000000000000000000000DD
:100D160000000000000000000000000000000000CD
:100D260000000000000000000000000000000000BD
:100D360000000000000000000000000000000000AD
:100D4600000000000000000000000000000020215C
:100D560022232425262728292A2B2C2D2E2F3031F5
:100D660032333435363738393A3B3C3D3E3F4041E5
:100D760042434445464748494A4B4C4D4E4F5051D5
:100D860052535455565758595A5B5C5D5E5F6061C5
:100D960062636465666768696A6B6C6D6E6F7071B5
:100DA60072737475767778797A7B7C7D7E00000025
:100DB600000000000000000000000000000000002D
:100DC600001010101010101000001010000000127B
:100DD600242448000000000000000000000000007D
:100DE600001212127E2424247E24242400000000F3
:100DF600083C4A4A48380C0A0A4A4A3C0808000095
:100E06000044A4A8A8B0541A2A2A4A4400000000A4
:100E16000030484848506EA49498897600000060D7
:100E2600202040000000000000000000000000023A
:100E360004080810101010101008080402000040E2
:100E460020101008080808080810102040000000AC
:100E560000001010D63838D6101000000000000030
:100E66000000000808087F080808000000000000CD
:100E7600000000000000000000006020204000008C
:100E86000000000000007E000000000000000000DE
:100E9600000000000000000000006060000000008C
:100EA600020404040808101010202040400000002E
:100EB60000182442424242424242241800000000E6
:100EC60000083808080808080808083E000000005E
:100ED600003C4242420204081020427E000000000C
:100EE600003C4242020418040242423C0000000058
:100EF60000040C0C142424447F04041F000000008A
:100F0600007E40404078440202424438000000001F
:100F160000182440405C62424242221C000000004D
:100F2600007E420404080810101010100000000093
:100F3600003C4242422418244242423C0000000047
:100F4600003844424242463A020224180000000099
:100F5600000000001818000000001818000000002B
:100F6600000000000010000000000010101000003B
:100F760000020408102040201008040200000000AF
:100F8600000000007E00007E00000000000000005F
:100F96000040201008040204081020400000000051
:100FA600003C4242620408080800181800000000CD
:100FB6000038445AAAAAAAAAAA5C423C0000000029
:100FC600001010182828243C444242E70000000084
:100FD60000F8444444784442424244F80000000089
:100FE600003E4242808080808042443800000000FB
:100FF60000F8444242424242424244F800000000A5
:1010060000FC424848784848404242FC0000000044
:1010160000FC424848784848404040E00000000054
:10102600003C44448080808E8444443800000000A4
:1010360000E7424242427E42424242E7000000004E
:10104600007C1010101010101010107C0000000012
:10105600003E0808080808080808080888F0000084
:1010660000EE444850705048484444EE00000000EA
:1010760000E0404040404040404042FE000000004A
:1010860000EE6C6C6C6C6C54545454D6000000002A
:1010960000C7626252524A4A4A4646E200000000CF
:1010A60000384482828282828282443800000000B4
:1010B60000FC424242427C40404040E000000000CA
:1010C600003844828282828282B24C380600000056
:1010D60000FC4242427C4848444442E3000000008F
:1010E600003E4242402018040242427C00000000BA
:1010F60000FE9210101010101010103800000000A2
:1011060000E74242424242424242423C0000000064
:1011160000E742424424242828181010000000004A
:1011260000D654545454546C282828280000000033
:1011360000E7422424181818242442E7000000007F
:1011460000EE44442828101010101038000000004B
:10115600007E840408081020204242FC0000001E85
:101166001010101010101010101010101E0000009B
:101176004020202010101008080404040202007801
:101186000808080808080808080808087800001869
:101196002400000000000000000000000000000025
:1011A60000000000000000000000000000FF0060DA
:1011B6001000000000000000000000000000000019
:1011C600000000000038440C34444C360000000097
:1011D6000000C0404058644242426458000000008B
:1011E60000000000001C22404040221C00000000BD
:1011F60000000602023E42424242463B0000000018
:1012060000000000003C42427E40423C00000000DC
:1012160000000C12107C10101010107C0000000052
:1012260000000000003E444438403C42423C00007E
:101236000000C040405C6242424242E700000000BB
:1012460000303000007010101010107C00000000FC
:10125600000C0C00001C0404040404044478000080
:101266000000C040404E4850704844EE0000000068
:1012760000107010101010101010107C00000000EC
:101286000000000000FE4949494949ED0000000000
:101296000000000000DC6242424242E7000000001B
:1012A60000000000003C42424242423C0000000076
:1012B6000000000000D864424242645840E000004A
:1012C60000000000001A26424242261A02070000C9
:1012D6000000000000EE3220202020F80000000070
:1012E60000000000003E42403C02427C000000003C
:1012F60000000010107C10101010120C00000000EE
:101306000000000000C642424242463B0000000088
:101316000000000000EE44442828101000000000E1
:101326000000000000DB894A5A5424240000000013
:1013360000000000007624181818246E0000000033
:101346000000000000E74224241818101060000076
:1013560000000000007E44081010227E00000003FA
:101366000404040404040804040404040300080830
:10137600080808080808080808080808080800C037
:10138600202020202020102020202020C000205AAD
:0E139600040000000000000000000000000045
:10271400E4F52220800F7F0AFE12290A2080067524
:1027240022013080FD2081107F0A7E0012290A20B8
:1027340081067522023081FD2082107F0A7E0012FC
:10274400290A2082067522033082FD2083107F0A25
:102754007E0012290A2083067522043083FDAF22ED
:012764002252
:1013A4000215E6E86480F8E933E83360110460F07C
:1013B400ED33EC337009E8FCE9FDEAFEEBFF2204AF
:1013C40060DED3EB9FEA9EE99DE8C2E78CF0C2F7AA
:1013D40095F0400CE8CCF8E9CDF9EACEFAEBCFFB76
:1013E4001215B185D0F05804700320D5B3E8047009
:1013F400075002B2D50215F092D5EC0460F7E4CCA4
:10140400C0E0C398F8603B94186008400DD0E0FB3E
:101414000215C8E4FBFAC9FC8028E830E406E4C9F4
:10142400FBE4CAFCE830E305E4C9CACBFCE8540792
:101434006010F8C3E913F9EA13FAEB13FBEC13FC9D
:10144400D8F130F52FC3E49CFCEF9BFFEE9AFEED40
:1014540099FDD0E0FBEF4E4D4C701222DB030215D8
:10146400EDEC2CFCEF33FFEE33FEED33FDED30E716
:10147400EB0215C8EF2BFFEE3AFEED39FDD0E0FB91
:1014840050130BBB00030215F0ED13FDEE13FEEF3A
:0814940013FFEC13FC0215C864
:10149C000215F0EC5D046005E8590470030215E6D2
:1014AC001215B1580460F6EC4860F2EC7004FDFEC5
:1014BC00FF22C860DB2481C85009C3986002500623
:1014CC000215ED9850CAF582E9294B4A7005AB829A
:1014DC000215DC75F0007C1A7880C3EF9BEE9AED58
:1014EC0099400DC3EF9BFFEE9AFEED99FDE842F09B
:1014FC00DC23ACF0D0E0FFD0E0FED0E0FDAB8220EE
:10150C00E7101BEB60BAEC2CFCEF33FFEE33FEED77
:10151C0033FD0215C8E803F830E705C0F075F0009C
:10152C00EF2FFFEE33FEED33FD40B830E7C280AA5B
:10153C0075F020800E75F010800575F0087D007E2A
:10154C00007F003392D530D5031219F1EC334010E3
:10155C00EF33FFEE33FEED33FDEC33FCD5F0ED2233
:0E156C00E5F0247EA2D513CC92E7CDCEFF226F
:10157A00EDD2E7CD33EC3392D524814006E4FFFE69
:10158A00FDFC22FCE4CFCECDCC24E0501174FF80C8
:10159A00EDC3CC13CCCD13CDCE13CECF13CF047065
:0715AA00F030D5DE0219F15B
:101A3500E54E243AF8E6054E227837300702783A23
:101A4500E475F0011219FF0219992000EB7F2ED2DF
:101A5500008018EF540F2490D43440D4FF30040B89
:101A6500EF24BFB41A0050032461FFE54F6002154F
:101A75004F0552E5527002055130070D7837E47570
:101A8500F0011219FFEF0219DF02298D7403D20745
:101A95008003E4C207F54E8B378A388939E4F54F60
:101AA500F551F552E54F60077F20121A7080F575E4
:101AB50050FFC201C200C202C203C205C206C2086B
:101AC500121A3EFF700D3007057F00121A81AF52C2
:101AD500AE5122B4255FC2D5C204121A3EFF24D0EE
:101AE500B40A00501A75F00A784F30D50508B6FFCC
:101AF5000106C6A426F620D5047002D20380D92497
:101B0500CFB41A00EF5004C2E5D204021D6ED20113
:101B150080C6D20080C0D20280BCD2D580BAD205A0
:101B250080B47F20121A702002077401B54F00405F
:101B3500F1121A35FF121A70021AA9D208D20680BC
:101B450095121A35FB121A35FA121A35F94A4B70E5
:101B55000679657A1E7BFF20022EE54F602A7E00FE
:101B65008E827583001219B260060EEE655070F014
:101B7500C2D5EBC0E0EAC0E0E9C0E0EE121DCED070
:101B8500E0F9D0E0FAD0E0FB121999FF60AAEBC0AA
:101B9500E0EAC0E0E9C0E0121A70D0E02401F9D013
:101BA500E03400FAD0E0FBE5500460DCD550D98084
:101BB50087D20280A2121DB160F7E55070010412B0
:101BC50015FBA950600DE550600914F550121E581B
:101BD500EF60F3EA30E702F404C3995077EAF4259D
:101BE500500430E701E404F550800D121DB160C1C9
:101BF500EA055025501215FBEA784DF630E701E469
:101C0500255004D5500420050114121DCEE4C0E072
:101C1500121E58784DE6601320E70714F6121A587D
:101C2500802204F6D0E014C0E07F00121A58E55077
:101C35006007121A4F1550800B300503121A4FD04A
:101C4500E0021AA9D0E00480C5121DB160A0E550DC
:101C5500041215FB784DEAF6E550200502600104F3
:051C65002404121DCE55
:101C6A0074FF04C0E0121E58121A58E550200502EB
:101C7A006003121A4FD0E0B550E87F45121A627815
:101C8A004DE67F2B30E7047F2DF404C0E0121A7072
:101C9A00D0E075F00A84C0F0121A59D0E0121A592D
:101CAA00021AA9791080027908C206C2088008D2ED
:101CBA00D5790A8004790AC2D5E550047002F55034
:101CCA00E4FAFDFEFF121A35FC7B08200113121AF2
:101CDA0035FD7B1030000A121A35FE121A35FF7BC9
:101CEA0020EC3382D592D55013C3E43000069FFF0F
:101CFA00E49EFEE42001039DFDE49CFCE4CBF8C2D3
:101D0A0001EC700CCFCECDCCE824F8F870F3801734
:101D1A00C3EF33FFEE33FEED33FDEC33FCEB33FB65
:101D2A00994002FB0FD8E9EB300105F8D0E0C4482E
:101D3A00B201C0E00AEC4D4E4F78207B0070C2EA37
:101D4A00B5500040BCC0E0121DD0D0F0D0E0200158
:101D5A0004C4C0E0C4B201C0F0121A59D0F0D5F0E0
:101D6A00EB021AA9121A0F1B46531CAD581B174C2B
:101D7A001B13421CB14F1CB9441CB9491B2C431CF0
:101D8A00BF551BF0461C4E451BBA471E85501B1BF0
:101D9A002D1B1F2E1B422B1B23231B40201E6E2A8A
:101DAA001ADB4800001B3AE550B4FF0375500612CF
:101DBA001A35FC121A35FD121A35FE121A35FF7839
:101DCA004602162A790AA2D5200314300509B91049
:101DDA00020404B9080104A2D52006025001042015
:101DEA0002689202B54F005034C0E07F20300319D8
:101DFA007F30A20272067205500F121E27C202C25B
:101E0A0006C205C2087F30800F300503E9C0E01220
:101E1A001A70300503D0E0F9D0E0B54FCC30051781
:101E2A007F30B9100C121A707F583004077F7880FF
:101E3A0003B90803121A703002057F2D021A707F47
:101E4A00202008F87F2B2006F322920280CF7F0001
:101E5A00B4070050052446F8E6FF22286E756C6C1C
:101E6A002900D201121A353001F8C201784F30D553
:101E7A000108F6021ADB2D50434958121A35240379
:101E8A00B405004001E4901E8093121A61743A125C
:0A1E9A001A61D203754F04021CAD5B
:1015B100E9D2E7C933E833F892D5EDD2E7CD33EC80
:0715C10033FC5002B2D522F9
:1015C800EC30E7100FBF000C0EBE00080DBD000484
:1015D8000BEB6014A2D5EB13FCED92E7FD2274FF30
:1015E800FCFDFEFF22E480F8A2D574FF13FC7D8089
:0315F800E480EF9D
:1015FB00F920E72824F950037907E4F42402FB18B7
:10160B00DBFDE624FB5014E9600DE4F618E604F666
:0F161B00B40A08E4F6D9F57401F60A22C2D52202
:10162A00ED33EC3392D5FA602AB4FF33EDC2E77B8F
:10163A00FF60067A16794FE4227A16795820D50483
:10164A007A167953224E614E002B494E46002D4997
:10165A004E4600E47A08F608DAFC7B00740722E8B2
:10166A00C0E0ECC0E0EDC0E0EEC0E0EFC0E0EA753B
:10167A00F010A4CAABF075F04DA42BFBE435F0FCD6
:10168A00EA2410FAEB34C5FBEC34D9FCEDC2E7FFCF
:10169A0075F056A4F42411C5F0F434C58FF0A42AC9
:1016AA00E5F03BE43CF620E714121863D0E0FFD0E3
:1016BA00E0FED0E0FDD0E0FC12149F8014F4041286
:1016CA001863D0E0FFD0E0FED0E0FDD0E0FC1217B6
:1016DA002DD0E0F8E6FAEDD2E7CD33EC332482FBE5
:1016EA00E4C3CF33CFCE33CECD33CD33DBF37B0759
:1016FA0075F00A846004F6081B0AE5F0F6088FF014
:10170A00740AA4FFACF08EF0740AA42CFEACF0505C
:10171A00010C8DF0740AA42CFDE435F0F608DBDE2A
:03172A007407221F
:10172D00EC4D6011E8497017ED33EC3304600DE4B6
:10173D00FCFFFEFD22E933E8330470F80215E612D2
:10174D0015B158046009E4CC2481500628500902D3
:10175D0015F02840030215EDC0E0EB4A7044B98046
:10176D0006D0E0FB0215DCEF4E701CBD8008EBFFD0
:10177D00EAFEE9FD80EBE98DF0A4FEE5F002181616
:10178D00E9CDF9EAFEEBFFEF89F0A4FCE5F0CE8997
:10179D00F0A42EFFE435F0CD89F0A42DFEE435F054
:1017AD008067EF4E7005BD80D780C3EF8BF0A4AC82
:1017BD00F0EE8BF0A42CFCE435F0F8EF8AF0A42CBD
:1017CD00E5F038FCE433CB8DF0A42CFCE5F03BF8D0
:1017DD00EE8AF0A42CFCE5F038F8E433CF89F0A4C0
:1017ED002CFCE5F038CF3400CE89F0A42FFFE5F0C6
:1017FD003EFEE433C98DF0A42EFEE5F039CD8AF01E
:10180D00A42FFFE5F03EFEE43DFD33D0E0FB500795
:10181D000BBB000F0215F0EC2CFCEF33FFEE33FE8B
:06182D00ED33FD0215C8B9
:101833003F8000004120000042C80000447A0000BD
:10184300461C400047C35000497424004B1896803F
:101853004CBEBC205A0E1BCA6753C21C749DC5AE36
:10186300FB60065407601C2323121891EB54386065
:101873000912187D12188C12172DECF8EDF9EEFAF7
:10188300EFCB22EB12188C80F1543803241C9018F0
:1018930033FE93FC0EEE93FD0EEE930ECE93FF22DA
:1024940002259FE493A3F8E493A34003F68001F29A
:1024A40008DFF48029E493A3F85407240CC8C33349
:1024B400C4540F4420C8834004F456800146F6DF18
:1024C400E4800B0102040810204080902765E47E1C
:1024D400019360BCA3FF543F30E509541FFEE4930D
:1024E400A360010ECF54C025E060A840B8E493A3D4
:1024F400FAE493A3F8E493A3C8C582C8CAC583CAFF
:10250400F0A3C8C582C8CAC583CADFE9DEE780BEB6
:0127AE00002A
:1018A300E709F608DFFA8046E709F208DFFA803E27
:1018B30088828C83E709F0A3DFFA8032E309F60814
:1018C300DFFA8078E309F208DFFA807088828C837C
:1018D300E309F0A3DFFA806489828A83E0A3F60830
:1018E300DFFA805889828A83E0A3F208DFFA804C0A
:1018F30080D280FA80C680D4806980F280338010E1
:1019030080A680EA809A80A880DA80E280CA803349
:1019130089828A83ECFAE493A3C8C582C8CCC583C1
:10192300CCF0A3C8C582C8CCC583CCDFE9DEE78091
:101933000D89828A83E493A3F608DFF9ECFAA9F010
:10194300EDFB2289828A83ECFAE0A3C8C582C8CC66
:10195300C583CCF0A3C8C582C8CCC583CCDFEADE7F
:10196300E880DB89828A83E493A3F208DFF980CCE1
:1019730088F0EF60010E4E60C388F0ED2402B404DA
:101983000050B9F582EB2402B4040050AF23234581
:0619930082239018F3739B
:10199900BB010689828A83E0225002E722BBFE024C
:0919A900E32289828A83E493227F
:1019B200BB010CE58229F582E5833AF583E02250EA
:1019C20006E92582F8E622BBFE06E92582F8E22234
:0D19D200E58229F582E5833AF583E493224E
:1019DF00BB010689828A83F0225002F722BBFE01E7
:0219EF00F322E1
:0E19F100C3E49FFFE49EFEE49DFDE49CFC2207
:1019FF00FAE6FB0808E6F925F0F618E6CA3AF622E9
:101A0F00D083D082F8E4937012740193700DA3A366
:101A1F0093F8740193F5828883E47374029368607A
:061A2F00EFA3A3A380DF7A
:00000001FF
