:020000040800F2
:10000000101D0120F119000821080008230800082C
:100010002D0800083108000835080008000000001D
:10002000000000000000000000000000890200083D
:100030003908000800000000DD020008593E0008F1
:100040000B1A00080B1A00080B1A00080B1A0008FC
:100050000B1A00080B1A00080B1A00080B1A0008EC
:100060000B1A00080B1A00080B1A00080B1A0008DC
:100070000B1A00080B1A00080B1A00080B1A0008CC
:100080000B1A00080B1A00080B1A00080B1A0008BC
:100090000B1A00080B1A00080B1A00080B1A0008AC
:1000A0000B1A00080B1A00080B1A00080B1A00089C
:1000B0000B1A00080B1A00080B1A00080B1A00088C
:1000C0000B1A00080B1A00080B1A00080B1A00087C
:1000D0000B1A00080B1A0008E14300083B0800084F
:1000E0000B1A00080B1A00080B1A00080B1A00085C
:1000F0000B1A00080B1A00080B1A00080B1A00084C
:100100000B1A00080B1A00080B1A00080B1A00083B
:100110000B1A00080B1A00080B1A00080B1A00082B
:100120000B1A00080B1A00080B1A00080B1A00081B
:100130000B1A00080B1A00080B1A00080B1A00080B
:100140000B1A00080B1A00080B1A00080B1A0008FB
:100150000B1A00080B1A00080B1A00080B1A0008EB
:100160000B1A00080B1A00080B1A00080B1A0008DB
:100170000B1A00080B1A00080B1A00080B1A0008CB
:100180000B1A00080B1A000800F002F800F06DF8D6
:100190000AA090E8000C82448344AAF10107DA45E2
:1001A00001D100F062F8AFF2090EBAE80F0013F0C7
:1001B000010F18BFFB1A43F0010318471CC50000CC
:1001C0003CC500000A444FF0000C10F8013B13F04E
:1001D000070408BF10F8014B1D1108BF10F8015BA0
:1001E000641E05D010F8016B641E01F8016BF9D193
:1001F00013F0080F1EBF10F8014BAD1C0C1B09D1EA
:100200006D1E58BF01F801CBFAD505E014F8016B5B
:1002100001F8016B6D1EF9D59142D6D370470000ED
:100220000023002400250026103A28BF78C1FBD8FF
:10023000520728BF30C148BF0B60704764290BF0DC
:10024000138375290BF0108378290BF049836329F8
:100250000BF0578573290BF05C85002070471FB5A4
:100260000CF006FA1FBD10B510BD0BF09FFD114636
:10027000FFF7F5FF00F06FF90BF0BDFD03B4FFF7DA
:10028000F2FF03BC03F012FF2A4B19680868B0E8BC
:10029000F04F80F30988BFF36F8F4FF0000080F3B9
:1002A000118870470000000006480068006880F36D
:1002B000088862B661B6BFF34F8FBFF36F8F00DF60
:1002C00000BF00BF08ED00E0DFF80C00016841F45A
:1002D00070010160704700BF88ED00E0EFF3098016
:1002E000BFF36F8F134B1A681EF0100F08BF20ED7D
:1002F000108A20E9F04F106008B44FF0100080F32E
:100300001188BFF34F8FBFF36F8F09F0AEFC4FF032
:10031000000080F3118808BC19680868B0E8F04F45
:100320001EF0100F08BFB0EC108A80F30988BFF3ED
:100330006F8F704738020020EFF305807047000090
:1003400008B5D2A00BF020FAD8480178D8A00BF05D
:100350001BFA01240020009019E000235A1E694670
:10036000DC48006808F02AFC0446012C0FD1DA486A
:10037000007801280BD1D9480078012807D106F070
:1003800008FAD7A00BF000FA0120DB490870E4E777
:100390001FB5002003900124D8A00BF0F5F906F05A
:1003A00063FFCD480078012803D0DCA00BF0ECF906
:1003B00002E0DEA00BF0E8F9C748007801280DD173
:1003C000C6480078012809D101220021DB4801F04C
:1003D00053F8DA480178DA4806F046FBD748017846
:1003E000D8A00BF0D1F95EE000235A1E03A9D9482A
:1003F000006808F0E3FB0446012C54D1D64800788D
:10040000012808D1FF20D54908704FF6FF70C88039
:100410000020D14908700398C0798DF80000039836
:100420000089ADF806009DF80000CC4909788842A3
:1004300011D1BDF80600C949C98888420BD10020F6
:10044000AD49087000231A46C549A248006808F063
:100450006FFA044623E0A048007801281FD19F4886
:10046000007801281BD19DF80000B4490978884222
:1004700015DA0020A04908706946B94807F0F4FC75
:1004800000231A46B6499348006808F051FA04461A
:100490009DF80000B1490870BDF80600C880002032
:1004A000039908F058F89FE708B50124ADA00BF0B8
:1004B0006BF910E000235A1E6946B148006808F045
:1004C0007DFB0446012C06D1009806F059FD002062
:1004D000009908F040F8EDE708B50021A94806F0BA
:1004E0007FF900200090012722E000235A1E694670
:1004F000A548006808F062FB0746012F18D1009854
:100500000588A91F0098801C00F0F8FE044600989A
:10051000284450F8046CB44203D1009806F089FCDA
:1005200006E09AA00BF030F90020009908F013F8CB
:10053000DBE70FE04FF47A7009F06EFA9648006836
:10054000C0439649C1F8940200F07FFC062194480C
:1005500006F046F9EEE71CB503F0F3FF0BF063F885
:1005600000220421084608F0E8F8874908600022C4
:100570000421084608F0E1F88149086000220421BE
:10058000084608F0DAF8734908600022042108469A
:1005900008F0D3F84F4908607B48006840B17848BC
:1005A000006828B16B48006810B10846006810B9AF
:1005B0007CA00BF0E9F8012008F0ACFA7D49086056
:1005C00000231A4619467B48006808F0B1F97A48BA
:1005D000062100233222CDE9001078A1AFF2AD0050
:1005E00008F09CFF7848052100234FF40062CDE914
:1005F000001076A1AFF21F1008F090FF764804219A
:1006000000234FF4C872CDE9001074A1AFF2671057
:1006100008F084FF7448032100234FF4C872CDE929
:10062000001072A1AFF2972008F078FF7448022101
:1006300000234FF4C872CDE900106CA1AFF2FF2087
:1006400008F06CFF0BF012F86EA00BF09DF809F0AB
:100650008EFC17E04FF47A7003F018FD4E480068E6
:10066000C0434E49C1F8940269A00BF08DF84FF4D5
:100670007A7003F00BFD4948D0F89402C043474913
:10068000C1F89402E6E700BFFEE700000A0D20541F
:1006900061736B345F4672616D65446973706C6140
:1006A00079207374617274207570000064000020FA
:1006B0000A0D202A2A2A2A2A2A2A536C61766525BD
:1006C000642073746172742075702A2A2A2A2A2A77
:1006D0002A000000240000206D000020740000208B
:1006E0000A0D4C6564446973706C6179206F6B21ED
:1006F00021210A0D00000000780000200A0D20547E
:1007000061736B355F4672616D65446174615072EF
:100710006520737461727420757000000A0D20CE1C
:10072000B4D3D0CDEAD5FBCAFDBEDD000A0D20D37F
:10073000D0CDEAD5FBCAFDBEDD000000760000206A
:10074000003700200A0D20D7DCB5C4D6A1CAFD3A77
:10075000256400002000002077000020AC0200206B
:10076000EC0600205461736B335F4672616D655314
:10077000746F72652073746172742075700A0D0055
:100780001C000020BC0600201800002043524365D6
:1007900072720D0A000000009482404200804042C4
:1007A000D4060020B6D3C1D0C9EAC7EBCAA7B0DCD3
:1007B0000A0D000014000020000000206C65643069
:1007C0005F7461736B0000000400002052533438E2
:1007D000355F7461736B0000080000205461736B17
:1007E0005F4672616D6500000C0000205461736B00
:1007F0005F4672616D65446174614C6F61640000B5
:100800001000002046726565204F530A0D0000005D
:1008100068656C6C6F20776F726C640D0A00000065
:10082000704789A00AF0B0FF00BFFEE700BFFEE7F7
:1008300000BFFEE700BFFEE7704738B5002000901C
:10084000002440F22551874803F0BCFA00281DD04F
:10085000844803F0F5F904468348007840F480703A
:10086000A04225D100208149087081490870814843
:10087000007801280BD100207E4908707E4908804D
:10088000FF224FF420517D480BF065F985E00120EF
:1008900078490870022078490880734801787648C2
:1008A00002880088401C744B18807448815474E09E
:1008B00070480078012870D16C48007820B1012878
:1008C00021D0022867D131E06B4802880088401CA3
:1008D000694B18806948845418460088072811D14C
:1008E00018460088801E6549085A654908800846F0
:1008F0000088002803DD01205C49087002E0022026
:100900005A49087048E05C4802880088401C5A4BED
:1009100018805A48845418460088C01F58490988CE
:10092000884202D102205149087035E052480188BE
:100930000088401C504B1880504844544C48017863
:100940000078401C4A4A1070032923DB00204949E3
:10095000087018460088494908800121414803F081
:100960007DF945480188002007F005FE00904248C7
:100970000288424900980BF0A9F8FF224FF4205159
:100980003E480BF0E8F800231A4669463D480068E7
:1009900008F038FA00E000BF00BF40F2277131488C
:1009A00003F010FAD8B340F227712E4803F045FA4D
:1009B000354800883549098888421DDA3248008860
:1009C00070B9314802880088401C2F4B188030488D
:1009D0000068805C40F48071224803F02DF90BE040
:1009E000294802880088401C274B18802848006846
:1009F000815C1C4803F020F92348008823490988BA
:100A000088421FDB002240F22771164803F09FF94D
:100A1000012240F22661134803F099F912E0FFE742
:100A200040F226610F4803F0CDF958B1002240F2A0
:100A300026610C4803F08BF900224FF480511548D1
:100A400001F090F938BD00000A0D486172644661FA
:100A5000756C745F48616E646C65722D2D2D6572C6
:100A6000720D0A00004800406400002028000020A9
:100A7000290000202A0000202C00002058390020E6
:100A80002E000020180000207A0000207C000020AA
:100A900080000020000802400CB50020019000906A
:100AA0007648006840F480307449086000BF73489D
:100AB000006800F4003000900198401C01900098FC
:100AC00018B90198B0F5A04FF1D16C48006800F456
:100AD000003010B10120009001E00020009000984B
:100AE000012846D165484030006840F08050634995
:100AF000403108606248006840F440406049086046
:100B00005E48083000685D490831086008460068A2
:100B100040F4004008600846006840F4A0500860B7
:100B20005848091F0860081F006840F08070091FBE
:100B3000086000BF5148006800F000700028F9D03C
:100B400040F20570504908604C480830006820F0B9
:100B500003004A49083108600846006840F0020076
:100B6000086000BF45480830006800F00C00082805
:100B7000F8D10CBD10B54548006840F470004349F9
:100B800008603E48006840F001003C4908600020D1
:100B90003A4908310860394800683D4908403749FA
:100BA00008603C48091D0860081F006820F4802088
:100BB000091F0860002031490C310860FFF76CFF05
:100BC0004FF0006031498039086010BD70B50020D9
:100BD0000022022300240221284D08352D6805F04B
:100BE0000C0020B1042806D0082834D107E02A4D93
:100BF0002A4E356033E02A4D284E35602FE01F4DD8
:100C00002D1D2D68C5F380541C4D2D1D2D6805F03C
:100C10003F0154B1224DB5FBF1F5184E361D366833
:100C2000C6F3881605FB06F209E01B4DB5FBF1F58E
:100C3000124E361D3668C6F3881605FB06F20F4DB8
:100C40002D1D2D68C5F301456D1C6B00B2FBF3F53E
:100C5000124E356003E0104D104E356000BF00BFEE
:100C6000064D08352D68C5F303150E4E705D0B4D0E
:100C70002D68C540094E356070BD00000038024047
:100C80000070004008544007003C024088ED00E03E
:100C9000FFFFF6FE103000240024F4003000002096
:100CA00000127A00340000201CB50121022001F05E
:100CB000C3FC2020009001208DF8040000208DF856
:100CC00006008DF8070003208DF8050069460448EA
:100CD00000F0C8FF2021024801F042F81CBD0000CE
:100CE0000004024010B504464C4800884FF6C77116
:100CF00008404A49088008460088204308800121AE
:100D0000464801F033FF10BD00B587B0012108024D
:100D100001F092FC0121880301F0D7FC0E20059020
:100D200002208DF8180000208DF81A0003208DF89D
:100D3000190001208DF81B0005A9394800F092FF29
:100D400005220121364801F018F805220221344815
:100D500001F013F805220321314801F00EF80020BC
:100D6000ADF800004FF48270ADF802000020ADF83D
:100D700004000220ADF806000120ADF80800400292
:100D8000ADF80A001020ADF80C000020ADF80E0000
:100D90000720ADF810006946204801F0EDFD012163
:100DA0001E4801F0E3FE07B000BD1CB5012108029A
:100DB00001F042FC012000908DF8040000208DF825
:100DC000060003208DF8050000208DF80700694615
:100DD000134800F047FF012012490860FFF794FF15
:100DE0003020FFF77FFF1CBD10B5044600BF022175
:100DF0000A4801F085FF0028F9D02146074801F094
:100E000036FF00BF0121054801F07AFF0028F9D024
:100E1000024801F029FFC0B210BD000000380040B8
:100E2000002002408002444210B545F2555001F0C6
:100E300009FA032001F009FA40F2CF7001F008FA34
:100E400001F009FA01F00CFA10BD10B501F003FA37
:100E500010BD000000B587B00121480501F035FC48
:100E60000121022001F0E8FB4FF4407001900220C4
:100E70008DF8090001208DF80A0002208DF8080085
:100E800001A9D44800F0EEFE04220821D14800F068
:100E900074FF04220921CF4800F06FFFCE4800F014
:100EA000A5FF0020ADF810004BF6FF70ADF8120062
:100EB0003020ADF814004FF48060ADF8160000014A
:100EC000ADF81800C54803900121C34801F033F87C
:100ED00003A9C14800F0B3FF0121BF4801F06EF83B
:100EE00007B000BD70B506460D46144604B970BD86
:100EF00000BF4FF40031B84801F05AF90028F8D18A
:100F00000121B54801F05AF80121B34801F036F843
:100F100000BFB349B04801F029F90028F9D00022F8
:100F2000A021AD4801F042F800BFAE49AA4801F047
:100F30001DF90028F9D03146A74801F0BBF800BFE1
:100F4000A849891CA44801F011F90028F8D0012112
:100F5000A14801F013F800BFA1499F4801F006F92C
:100F60000028F9D00122A0219B4801F01FF800BF02
:100F70009B49491C984801F0F9F80028F8D018E07E
:100F8000012C07D10021944801F018F80121924862
:100F900001F000F800BF92493F318F4801F0E6F8B8
:100FA0000028F8D08C4801F087F828706D1C601E6E
:100FB00084B2002CE4D10121874800F0FFFF00BF7C
:100FC00095E708B500BF0121834800F0D7FF142141
:100FD000814801F0B7F800900022A0217E4800F07F
:100FE000E5FF14217C4801F0ADF800F00200002874
:100FF000E9D07D49784801F005F90121764800F0F3
:10100000C9FF08BD70B504460D460121724800F0C5
:10101000B5FF00BF7249704801F0A8F80028F9D068
:101020000022A0216C4800F0C1FF00BF6D496A4852
:1010300001F09CF80028F9D02146674801F03AF801
:1010400000BF6849891C644801F090F80028F8D076
:101050002946614801F02EF800BF6249891C5E48AC
:1010600001F084F80028F8D001215B4800F092FFDD
:10107000FFF7A7FF70BD70B506460C46154605B9CB
:1010800070BD00BF4FF40031534801F091F80028C3
:10109000F8D10121504800F071FF00BF50494E487F
:1010A00001F064F80028F9D00022A0214A4800F09D
:1010B0007DFF00BF4B49484801F058F80028F9D09F
:1010C0003146454800F0F6FF00BF4649891C4248BA
:1010D00001F04CF80028F8D00CE021783E4800F0F0
:1010E000E9FF641C00BF3F49891C3B4801F03EF802
:1010F0000028F8D0281EA5F10101CDB2EDD10121C3
:10110000354800F047FF00BFBAE72DE9F04104463B
:101110000F4615462046E11704EB5171C910A4EBA8
:10112000C101CEB276B1C6F10800C6B23246394628
:101130002046FFF7A0FFA81B85B2A019C4B2374410
:10114000FFF73FFF18E0082D0EDB08223946204646
:10115000FFF791FFA5F1080085B204F10800C4B2C1
:101160000837FFF72EFF07E0EAB239462046FFF7BF
:1011700082FF0025FFF725FF002DE4D1BDE8F081B7
:101180001FB5002404E0E0B20DF80400601C84B236
:101190000D2CF8DD0D2269460520FFF7B6FF00246F
:1011A00004E000200DF80400601C84B20D2CF8DD72
:1011B0000D2269460520FFF795FE002407E01DF883
:1011C0000400A04201D000BFFEE7601C84B20D2CD9
:1011D000F5DB1FBD0004024000540040400D030039
:1011E00001000300820007000004001070B58AB0FF
:1011F00006460C4615460121084601F077FA012102
:10120000102001F019FA01220B21374800F0B5FD3A
:1012100001220D21344800F0B0FD01220E21324898
:1012200000F0ABFD4FF4D040089002208DF8240070
:1012300000208DF8260003208DF8250001208DF870
:10124000270008A9284800F00DFD0696ADF81440C7
:101250000020ADF81C00ADF8160005A9234801F0E8
:101260002CFE6020ADF800000120ADF80200022045
:10127000ADF80C0069461D4801F0EDFE69461B48BB
:1012800001F036FF6946194801F098FF02950821E0
:10129000164802F034F801221146144802F0AEFA62
:1012A0000121124801F074FE0121104801F08EFE68
:1012B00001210E4802F07BFA0AB070BD10B5044659
:1012C00021460A4801F0E9FF10BD10B50446214649
:1012D000064801F0E4FF10BD10B50446214603485E
:1012E00001F0DFFF10BD00000010024000000140CF
:1012F00010B50121080301F09FF910BD2DE9F04759
:1013000005460C464FEA940804F0030900F000FC7F
:101310004146284600F005FC0746B9F1000F09D008
:10132000B9F1010F09D0B9F1020F0AD0B9F1030FD9
:1013300013D10AE03846BDE8F087601E285C060637
:101340000BE0A01E2E5A360407E0E01E2E5A36028D
:10135000601E285C06EB006600BF00BF304600F050
:10136000DBFBE8E701B502E00098401E0090009822
:101370000028F9D108BD10B504460020A249086034
:101380000120FFF731FD2046FFF72EFD01209F4988
:10139000C1F8800210BD10B5002400209A490860F1
:1013A0009020FFF721FD0020FFF71EFD0020FFF732
:1013B0001BFD0020FFF718FDFF20FFF715FD44EA95
:1013C0000024FF20FFF710FD044301208F49C1F8DE
:1013D0008002204610BD10B5002400BFFFF7E5FCD9
:1013E00016E0FFF7D8FF04468948FFF7BBFF88489F
:1013F000FFF7B8FF8021874800F0B2FC0A20FFF712
:10140000B1FF8021834800F0A9FC0A20FFF7AAFF62
:10141000FFF7C1FF4EF614718842E2D10020FFF7BA
:10142000AAFF10BD10B500240020774908600520F0
:10143000FFF7DAFCFF20FFF7D7FC044601207349D1
:10144000C1F88002204610BD10B500206E4908602A
:101450000620FFF7C9FC01206C49C1F8800210BDCD
:1014600010B50020684908600420FFF7BDFC01208A
:101470006649C1F8800210BD2DE9F04106460C46D0
:1014800017460020604908600320FFF7ADFCC4F355
:101490000740FFF7A9FCC4F30720FFF7A5FCE0B263
:1014A000FFF7A2FC002505E0FF20FFF79DFC70552B
:1014B000681C85B2BD42F7DB012053490860BDE8D6
:1014C000F08110B500BFFFF7ADFF00F0010000286C
:1014D000F9D110BD2DE9F04106460C461746FFF73D
:1014E000B3FF0020484908600220FFF77DFCC4F3E9
:1014F0000740FFF779FCC4F30720FFF775FCE0B263
:10150000FFF772FC002504E0705DFFF76DFC681CBE
:1015100085B2BD42F8DB01203B490860FFF7D1FFEF
:10152000BDE8F0812DE9F04107460E461446F0B2C1
:10153000C0F58075AC4200DC254612E02A463146F3
:101540003846FFF7C7FFAC4200D10BE02F442E44D2
:10155000601B84B2B4F5807F02DD4FF4807500E03B
:101560002546EBE700BFBDE8F08110B5FFF76CFF43
:10157000FFF7A7FF002024490860C720FFF734FCCD
:1015800001202249C1F88002FFF79BFF10BD10B572
:1015900004462403FFF758FFFFF793FF00201A4982
:1015A00008602020FFF720FCC4F30740FFF71CFC75
:1015B000C4F30720FFF718FCE0B2FFF715FC012089
:1015C0001249C1F88002FFF77CFF10BD10B5002062
:1015D0000D490860B920FFF707FC01200B49C1F84D
:1015E00080021E20FFF7BEFE10BD10B50020064988
:1015F0000860AB20FFF7F8FB01200449C1F8800226
:101600001420FFF7AFFE10BD8002444200004442A8
:10161000FFFF0A000014024000B587B001218805D1
:1016200001F053F80121802001F006F830200190EC
:1016300002208DF8090001208DF80A0002208DF8A3
:10164000080001A9DA4800F00DFB04221146D84831
:1016500000F093FB04220521D54800F08EFBD5480D
:1016600000F0C4FB0020ADF810004BF6FF70ADF8A1
:1016700012003020ADF814004FF48060ADF8160071
:101680000001ADF81800CC4803900121C94800F0D2
:1016900052FC03A9C74800F0D2FB0121C54800F065
:1016A0008DFC07B000BD70B504460D460121C14850
:1016B00000F064FC00BFC149BE4800F057FD00289F
:1016C000F9D02146BB4800F0F5FC00BFBC49B94841
:1016D00000F04CFD0028F9D02946B64800F0EAFC9D
:1016E00000BFB749B34800F041FD0028F9D00121FF
:1016F000B04800F04FFC70BD70B506460D4614466C
:1017000004B970BD00BF4FF40031AA4800F050FD8D
:101710000028F8D10121A74800F050FC0121A5487C
:1017200000F02CFC00BFA549A24800F01FFD0028D6
:10173000F9D07006010E01229E4800F037FC00BF70
:101740009E49491C9B4800F011FD0028F8D018E084
:10175000012C07D10021974800F030FC0121954869
:1017600000F018FC00BF95493F31924800F0FEFCA4
:101770000028F8D08F4800F09FFC28706D1C601E78
:1017800084B2002CE4D101218A4800F017FC00BF8C
:10179000B7E770B503460C46002112E013F8010BC1
:1017A000414008250BE001F0800020B1312080EAA3
:1017B0004100C1B201E04806010E681EC5B2002D0D
:1017C000F1DC201EA4F10106F4B2E7D18A4200D177
:1017D00070BD0120FCE7F0B52DED088B81B004460B
:1017E000402600BF4FF40031724800F0E1FC0028B1
:1017F000F8D101216F4800F0C1FB00BF6F496D486F
:1018000000F0B4FC0028F9D07006010E00226948EF
:1018100000F0CCFB00BF6949491C664800F0A6FCFB
:101820000028F8D02146634800F044FC00BF64491A
:10183000604800F09BFC0028F9D0462002F026FC0E
:1018400001215C4800F09AFB00BF5C49594800F058
:101850008DFC0028F9D0012000EB4600C1B2012226
:10186000544800F0A3FB00BF5449491C514800F004
:101870007DFC0028F8D001214E4800F09FFB00BFFE
:101880004E493F314B4800F071FC0028F8D04948E0
:1018900000F012FC8DF800000121464800F08EFB9C
:1018A00000BF46493F31434800F060FC0028F8D0B3
:1018B000404800F001FC8DF8010001213D4800F096
:1018C0007DFB00BF3D493F313A4800F04FFC002806
:1018D000F8D0384800F0F0FB07460021354800F00A
:1018E0006DFB0121334800F055FB9DF801009DF888
:1018F000001000EB012085B23A4602216846FFF74E
:1019000048FFE0BB01202F4908704FF6FC700540EE
:10191000E32C20D128460AF0B0FC41EC1B0B9FEDD4
:101920002A0B53EC102B0AF0BBFC41EC1A0B9FED79
:10193000280B53EC102B0AF01BFB41EC190B9FED0D
:10194000260B53EC102B0AF0A9FD41EC180B0AF002
:1019500067FC85B221E028460AF08FFC41EC1B0BA6
:101960009FED1F0B53EC102B0AF09AFC41EC1A0B65
:101970009FED170B53EC102B0AF0FAFA00E011E080
:1019800041EC190B9FED180B53EC102B0AF086FD60
:1019900041EC180B0AF044FC85B2284601B0BDECBE
:1019A000088BF0BD0020074908704FF6FF70F5E77F
:1019B000001C024000580040400D030001000300DD
:1019C0008400070044000020D7A3703D0AF765405B
:1019D000000000000000F040CDCCCCCCCC6C4740E7
:1019E0000000000000405F400000000000001840C0
:1019F0000948804709480047FEE7FEE7FEE7FEE7A3
:101A0000FEE7FEE7FEE7FEE7FEE7FEE704480549DE
:101A1000054A064B70470000750B00088901000855
:101A2000100D0120101D012010170120101701209A
:101A300032490143324A1160704770B500210023DA
:101A40000F22C4781CB32E4C246804F4E064C4F55F
:101A5000E064C4F30721C1F10404E3B20A4144780D
:101A60009C40E1B28478144021430C07210E254CA0
:101A700005786155047804F01F050124AC40057811
:101A80006D11AD0005F1E025C5F8004109E00478CD
:101A900004F01F050124AC401B4D0678761145F873
:101AA000264070BD194A0A400243154B1B1F1A609D
:101AB000704739B1124A121D12680243104B1B1DA8
:101AC0001A6006E00E4A121D126882430C4B1B1D61
:101AD0001A607047042808D14FF0E021096941F0ED
:101AE00004014FF0E022116107E04FF0E0210969A5
:101AF00021F004014FF0E022116170470000FA0567
:101B00000CED00E000E400E080E100E080FFFF1F5A
:101B1000012010498860704701460E480160006846
:101B2000704710B502460B46002100BF04E052F892
:101B30002100084C2060491C9942F8D305480068F0
:101B400010BD044800687047024908717047014899
:101B5000007970470030024010B50446984884422E
:101B600008D10121084600F0D2FD0021012000F03B
:101B7000CEFD76E09348844208D10121022000F096
:101B8000C6FD0021022000F0C2FD6AE08E488442BA
:101B900008D10121042000F0BAFD0021042000F04A
:101BA000B6FD5EE08948844208D10121082000F09A
:101BB000AEFD0021082000F0AAFD52E084488442D6
:101BC00008D10121102000F0A2FD0021102000F01A
:101BD0009EFD46E07F48844208D10121202000F08C
:101BE00096FD0021202000F092FD3AE07A488442E0
:101BF00008D10121402000F08AFD0021402000F0A2
:101C000086FD2EE07548844208D10121802000F035
:101C10007EFD0021802000F07AFD22E070488442A1
:101C200008D10121801500F072FD0021A01500F0FF
:101C30006EFD16E06B48844208D10121401500F08A
:101C400066FD0021601500F062FD0AE066488442EE
:101C500007D10121001500F05AFD0021201500F0E8
:101C600056FD10BDF0B50A4600210023002400BF38
:101C70003DE0012505FA01F3156805EA03049C42DD
:101C800034D105684F000326BE40B5430560157981
:101C90004E00B5400668354305601579012D02D028
:101CA0001579022D16D185684F000326BE40B54335
:101CB000856055794E00B540866835438560456836
:101CC00001268E40B5434560456896798E40B6B290
:101CD00035434560C5684F000326BE40B543C56027
:101CE000D5794E00B540C6683543C560491C1029FA
:101CF000BFD3F0BD4FF6FF7101600021017141714A
:101D00008171C171704708B54FF480320092009A1A
:101D10000A430092009AC261C161009AC261C2691D
:101D20000092C269009208BD0246002013690B4070
:101D30000BB1012000E0002070470146086980B225
:101D400070470246002053690B400BB1012000E0B0
:101D5000002070470146486980B270470183704790
:101D6000418370470AB1018300E0418370474161BC
:101D7000704742694A4042617047F0B50023002431
:101D80004D07ED0E02FA05F3CE1000F1200555F8CF
:101D900026504E07F70E0F26BE40B543CF1000F178
:101DA000200646F82750CE1000F1200555F82650A1
:101DB00045EA0304CE1000F1200545F82640F0BDA9
:101DC000000002400004024000080240000C0240F3
:101DD000001002400014024000180240001C0240A3
:101DE00000200240002402400028024010B50446B2
:101DF000F848844209D10121480500F0BBFC0021CC
:101E00004FF4001000F0B6FC18E0F348844209D10A
:101E10000121880500F0AEFC00214FF4800000F0A5
:101E2000A9FC0BE0ED48844208D10121C80500F06F
:101E3000A1FC00214FF4000000F09CFC10BD2DE936
:101E4000FF4704460D460026B1460427DFF890837D
:101E5000A6884FF6C0700640684600F01CFBDDF80F
:101E60000880E048B8FBF0F01FFA80F946EA09065E
:101E7000A68020884FF6FE71084020800026DA49AF
:101E8000286888420CD828684000B8FBF0F087B278
:101E9000042F00DA04273E4309F10100208427E0E3
:101EA000E8884BF6FF71884206D1286800EB4000B5
:101EB000B8FBF0F087B209E0286800EBC00101EB45
:101EC0000010B8FBF0F087B247F48047C7F30B006F
:101ED00008B947F0010747F4004006434FF49670F5
:101EE00009FB00F04FF47A7190FBF1F0401C208464
:101EF000A683208840F00100208026884FF6F53028
:101F00000640A8886989084306432680A88929894C
:101F100008432081BDE8FF8741F28831016000213C
:101F200081804BF6FF71C1800021018141814FF416
:101F300080418181704721B1028842F00102028014
:101F400004E002884FF6FE731A400280704729B100
:101F5000828C4FF6EF731A40828403E0828C42F049
:101F60001002828470470A460021818C4FF6F0737C
:101F7000194002F00F0319438184704721B1028890
:101F800042F48072028004E002884FF6FF631A4038
:101F90000280704721B1028842F40072028004E09E
:101FA00002884FF6FF531A400280704712B141F089
:101FB000010101E001F0FE010182704721B10288B8
:101FC00042F48062028004E002884FF6FF331A4038
:101FD000028070470A46002181894FF6017319403B
:101FE00002F0FE0319438181704721B1828942F0DA
:101FF0000102828104E082894FF6FE731A408281D9
:10200000704721B1028842F04002028004E0028859
:102010004FF6BF731A400280704721B1028842F424
:102020000042028003E00288C2F30E020280704781
:1020300021B9028842F08002028004E002884FF653
:102040007F731A4002807047B1F5804F05D0828BB4
:102050004BF6FF731A40828303E0828B42F4804286
:1020600082837047B1F5006F04D1028842F40062A8
:10207000028004E002884FF2FF731A40028070472A
:10208000B1F5005F04D1028842F40052028004E0FE
:1020900002884DF6FF731A400280704721B1028812
:1020A00042F01002028004E002884FF6EF731A40FB
:1020B00002807047018270470146088AC0B27047AB
:1020C00021B1028842F48052028004E002884EF678
:1020D000FF731A4002807047B1F5006F04D1028887
:1020E00042F40062028004E002884FF2FF731A405B
:1020F0000280704721B1028842F02002028004E091
:1021000002884FF6DF731A40028070470146088B41
:102110000012704721B1828842F40062828004E09C
:1021200082884FF2FF731A408280704721B1828803
:1021300042F48052828004E082884EF6FF731A4097
:102140008280704708B502460020009000920098F7
:10215000084400900098008808BD1AB183880B439A
:10216000838002E083888B438380704770B502468A
:102170000024002500230020958A138B1B0445EAC8
:10218000030626F07F4404EA01068E4201D10120B5
:1021900000E0002070BD10B50146002000230022A1
:1021A0008B8A0A8B120443EA020424F07F4010BD9C
:1021B0000CB50246002000230193009300920B0F00
:1021C000019321F07F41019B83B1009B1433009365
:1021D00010E000000054004000580040005C004047
:1021E00000127A0040420F00A0860100090C009BFB
:1021F00018330093009B1B680B400BB1012000E0DB
:1022000000200CBD002221F07F42D343838270471F
:1022100030B5024600200023948801F0E06504EA0E
:10222000154321F07F41948A0C4014B10BB1012079
:1022300000E0002030BD002221F07F42D3438382A2
:10224000704700000E49086070470D4948607047AC
:102250000B49886070474AF6AA2009490860704710
:102260004CF6CC4006490860704701460020044AFD
:10227000D2680A400AB1012000E000207047000047
:1022800000300040F948006840F00100F74908605C
:102290000020F64908310860F4480068F449084015
:1022A000F2490860F348091D0860F348EF4984319A
:1022B0000860F0481038091D0860EC48006820F4F8
:1022C0008020EA4908600020E8490C310860E749AD
:1022D0008C31086070470021E44A921C117011464D
:1022E0000870704710B501460022002300204A11F3
:1022F000012A02D1DD4C236808E0022A03D1DB4C1D
:102300007034236802E0D94C7434236801F01F0252
:10231000012494401C400CB1012000E0002010BDBD
:1023200038B5002000900024002500BF3120FFF7C1
:10233000D9FF05460098401C00900098B0F5A04FCA
:1023400001D0002DF2D03120FFF7CCFF08B10124DD
:1023500000E00024204638BD01460020C34A106832
:1023600020F0F80040EAC10010607047C3490860DF
:1023700070470021BD4A703211701170012802D0DF
:1023800004280AD104E00121B84A7032117005E036
:102390000521B64A7032117000E000BF00BF7047DF
:1023A000B7490860704770B5049C41EA8215012660
:1023B000C6EB530645EA0645054345EA0465AB4EC0
:1023C000361D356070BDAD4908667047820142EA2E
:1023D0000172A64B84331A607047A849886670471B
:1023E00010B5830143EA016343EA02739F4C8834CA
:1023F000236010BDA14908677047A049C8647047B1
:1024000002460020994B0833186820F0EC6042EA3D
:1024100001031843954B08331860704702460020AB
:10242000924B0833186820F0784042EA01031843C1
:102430008E4B083318607047014600208B4A0832E3
:10244000106820F003000843106070478748083088
:10245000006800F00C00704701460020834A0832F3
:10246000106820F0F000084310607047014600201B
:102470007E4A0832106820F4E0500843106070472C
:1024800001460020794A0832106820F4604040EA92
:10249000C10010607047F0B5002100220024022521
:1024A00000260223714F08373F6807F00C0121B165
:1024B000042905D0082937D105E0724F076036E0BE
:1024C000714F076033E0694F3F1D3F68C7F3805687
:1024D000664F3F1D3F6807F03F036EB16A4FB7FB81
:1024E000F3F7DFF888C10CF1040CDCF800C0CCF382
:1024F000881C07FB0CF40CE0624FB7FBF3F7DFF826
:102500006CC10CF1040CDCF800C0CCF3881C07FB98
:102510000CF4564F3F1D3F68C7F301477F1C7D00F9
:10252000B4FBF5F7076002E0564F076000BF00BF3D
:102530004E4F08373F6807F0F0010909534F7A5CA6
:102540000768D7404760494F08373F6807F4E051B4
:10255000890A4E4F7A5C4768D7408760434F0837F7
:102560003F6807F46041490B484F7A5C4768D740A1
:10257000C760F0BD002100F44072B2F5407F0AD17F
:102580003A4A0832116821F4F811414A02401143D5
:10259000364A08321160354A70321268C0F30B03B4
:1025A0001A43324B70331A6070473549443908601A
:1025B00070473349403908607047364908607047B2
:1025C00001460020294A8C32106820F01F004A1E64
:1025D0001043264A8C321060704701460020234A7F
:1025E0008C32106820F4F8504A1E40EA02201F4A3C
:1025F0008C3210607047014600201C4A8C321068F3
:1026000020F4401008431060704701460020174A2C
:102610008C32106820F44000084310607047014677
:102620000020124A8C32106820F4403008431060B9
:10263000704719490860704739B10C4A3032126846
:1026400002430A4B30331A6006E0084A30321268FF
:102650008243064B30331A607047F9B1034A343273
:1026600012680243014B34331A601CE00038024008
:10267000FFFFF6EA1030002400300020000047423F
:10268000800E47420024F40000127A00450000202A
:10269000FFFCFF0F5C014742E01147428F4A12687E
:1026A00082438E4B1A60704739B18C4A121D1268F2
:1026B00002438A4B1B1D1A6006E0884A121D1268ED
:1026C0008243864B1B1D1A60704739B1834A0C3216
:1026D00012680243814B0C331A6006E07F4A0C32C9
:1026E000126882437D4B0C331A60704739B17B4AC4
:1026F000103212680243794B10331A6006E0774AB1
:10270000103212688243754B10331A60704739B12A
:10271000724A243A12680243704B243B1A6006E066
:102720006E4A243A126882436C4B243B1A6070470D
:1027300039B16A4A203A12680243684B203B1A605A
:1027400006E0664A203A12688243644B203B1A60D6
:10275000704739B1614A1C3A126802435F4B1C3B17
:102760001A6006E05D4A1C3A126882435B4B1C3BD0
:102770001A60704739B1594A143A12680243574BEC
:10278000143B1A6006E0554A143A12688243534BD0
:10279000143B1A60704739B1504A103A126802432C
:1027A0004E4B103B1A6006E04C4A103A12688243C6
:1027B0004A4B103B1A60704739B1484A1C321268C4
:1027C0000243464B1C331A6006E0444A1C3212682E
:1027D0008243424B1C331A60704739B13F4A203262
:1027E000126802433D4B20331A6006E03B4A203218
:1027F00012688243394B20331A60704739B1374A27
:10280000243212680243354B24331A6006E0334AFF
:10281000243212688243314B24331A60704739B135
:102820002E4A2C32126802432C4B2C331A6006E0DD
:102830002A4A2C3212688243284B2C331A60704784
:1028400039B1264A303212680243244B30331A60C1
:1028500006E0224A303212688243204B30331A603D
:102860007047012808D11D493C31096841F0080131
:102870001A4A3C32116007E018493C31096821F0DE
:102880000801164A3C321160704739B1134A273AA1
:1028900012780243114B273B1A7006E00F4A273A81
:1028A000127882430D4B273B1A7070470B4840301B
:1028B000006840F080700949403108607047014667
:1028C0000020064A283A12680A400AB1012000E0B6
:1028D000002070470149263908707047343802409B
:1028E00010B50446FB48844208D101218014FFF74B
:1028F00052FF0021A014FFF74EFF3CE0F64884424F
:1029000008D101210014FFF735FF00212014FFF743
:1029100031FF30E0F148844208D10121C013FFF7B4
:1029200029FF0021E013FFF725FF24E0EC48844253
:1029300008D101214014FFF72EFF00216014FFF79A
:102940002AFF18E0E748844209D101210805FFF772
:1029500022FF00214FF48010FFF71DFF0BE0E2483B
:10296000844208D101214805FFF715FF00214FF4EB
:102970000010FFF710FF10BD10B50022028802F40E
:1029800041520B884C8823438C882343CC882343B3
:102990000C8923434C8923438C892343CC892343CB
:1029A0001A430280838B4FF2FF74234083830B8A88
:1029B000038210BD2DE9F04F0025022300244FF0C3
:1029C000010900220026002794469046B0F81CA07A
:1029D0004FF2400B0AEA0B0AA0F81CA04FF0020AC3
:1029E000A0F820A0858BD1F808A0BAF1020F01D180
:1029F00000BF82E0B1F804A0BAF1000F02D14FF09D
:102A0000010901E04FF00209DFF8E0A2DAF800A0C6
:102A10000AF4000ABAF1000F09D0DFF8D0A2DAF800
:102A200000A02AF4000ADFF8C4B2CBF800A0DFF857
:102A3000BCA20AF17C0ADAF800A0CAF3881CDFF80D
:102A4000ACA20AF17C0ADAF800A0CAF30278DFF837
:102A50009CA2AAF1040ADAF800A00AF03F07DFF806
:102A60008CA2AAF1040ADAF800A00AF4800ABAF5E6
:102A7000800F08D1DFF878A2BAFBF7FA0AFB0CFA4C
:102A8000BAFBF8F607E0DFF86CA2BAFBF7FA0AFB2C
:102A90000CFABAFBF8F6B1F806A0BAF5007F0ED131
:102AA0004FEA162A0AEB8A0A4FEA4A0AD1F808B016
:102AB000BAFBFBFA0AF1050A1FFA8AF20FE04FEAA5
:102AC000491AB6FBFAFA0AEB8A0A4FEA4A0AD1F81F
:102AD00008B0BAFBFBFA0AF1050A1FFA8AF24FF0B6
:102AE0000A0AB2FBFAF202F00104A2EB040ACAF3EA
:102AF0004F034FF6FF7A0AEA0424022B01DBFF2B77
:102B000001DD02230024B1F806A04AEA040A4AEAD9
:102B1000030AA0F820A0B1F804A0B1F80CB04AEA6A
:102B20000B0AB1F802B04AEA0B0AB1F800B04AEA5F
:102B30000B0A4AF4006A4AEA05058583BDE8F08F6E
:102B40000021018041808180C1800181418181819A
:102B5000C18107210182704700210180418081806D
:102B6000C1800221816000218181704721B10288EA
:102B700042F04002028004E002884FF6BF731A4020
:102B80000280704721B1828B42F48062828304E02C
:102B9000828B4FF6FF331A408283704702884FF2D0
:102BA000FF731A40028002880A4302807047B1F521
:102BB000804F04D1028842F48042028004E00288FF
:102BC0004BF6FF731A40028070474FF6FF62914246
:102BD00004D0028842F48072028004E002884FF63A
:102BE000FF631A400280704721B1828842F00402DC
:102BF000828004E082884FF6FB731A40828070471F
:102C000021B1828842F01002828004E082884FF66F
:102C1000EF731A408280704730B500220023848B06
:102C20004FF240052C40848302240484828B0C885C
:102C3000B4F5007F01D00C8814B94FF4807308E01C
:102C40000C88B4F5407F03D00C88B4F5807F00D1A8
:102C500000238C888D892C434D882C431C4344F4DD
:102C600000642243828330BD014688897047818198
:102C7000704721B1028842F40052028004E00288C9
:102C80004DF6FF731A4002807047018841F480516D
:102C90000180704702460020012901D0108B00E01E
:102CA000908A70470146088A70471AB183880B439F
:102CB000838002E083888B438380704730B5002493
:102CC00000230C110125A540ABB2AAB185881D4394
:102CD000858014E00030014000380040003C004096
:102CE00000340140005001400054014008380240C7
:102CF00000127A000024F40085889D43858030BD51
:102D00000246002013890B400BB1012000E0002097
:102D10007047CA4302817047F0B502460020002484
:102D20000023002501F00F070126BE40B4B20B11AD
:102D300001269E40B3B2968806EA0305168926400E
:102D400016B10DB1012000E00020F0BD10B5002249
:102D500001F00F040123A3409AB2D343038110BDB5
:102D600010B50446FE48844208D101210846FFF709
:102D700012FD00210120FFF70EFD9DE0B4F1804F10
:102D800008D101210846FFF7F5FC00210120FFF7DB
:102D9000F1FC91E0F348844208D101210220FFF7C1
:102DA000E9FC00210220FFF7E5FC85E0EE488442C3
:102DB00008D101210420FFF7DDFC00210420FFF7EA
:102DC000D9FC79E0E948844208D101210820FFF7C5
:102DD000D1FC00210820FFF7CDFC6DE0E4488442DF
:102DE00008D101211020FFF7C5FC00211020FFF7BA
:102DF000C1FC61E0DF48844208D101212020FFF7B7
:102E0000B9FC00212020FFF7B5FC55E0DA488442E8
:102E100008D101210220FFF7BEFC00210220FFF7AC
:102E2000BAFC49E0D548844209D101210804FFF7E2
:102E3000B2FC00214FF48030FFF7ADFC3CE0D048FD
:102E4000844209D101214804FFF7A5FC00214FF479
:102E50000030FFF7A0FC2FE0CA48844209D10121CD
:102E60008804FFF798FC00214FF48020FFF793FCC3
:102E700022E0C548844208D101214020FFF77AFCB6
:102E800000214020FFF776FC16E0C048844208D1BC
:102E900001218020FFF76EFC00218020FFF76AFCF3
:102EA0000AE0BB48844207D101218015FFF762FC8C
:102EB0000021A015FFF75EFC10BD00220288A84B80
:102EC00098420ED0AC4B98420BD0B0F1804F08D056
:102ED000A44B984205D0A44B984202D0A34B9842F1
:102EE00004D14FF68F731A404B881A43A04B984277
:102EF00007D0A04B984204D04FF6FF431A400B89ED
:102F00001A4302804B68C3620B880385944B984236
:102F100002D0994B984201D18B7A03860123838298
:102F200070474FF0FF3141600021018001814180F5
:102F3000817270470185828270470A4600210188AC
:102F40004FF68F73194011430180704741627047FB
:102F5000C16270470146486A70470146088D704754
:102F600021B1028842F00202028004E002884FF69A
:102F7000FD731A400280704721B1028842F00402BA
:102F8000028004E002884FF6FB731A40028070470B
:102F900021B1028842F08002028004E002884FF6EC
:102FA0007F731A400280704702884FF6F7731A4009
:102FB000028002880A430280704702884FF6FF436E
:102FC0001A40028002880A430280704721B10288B9
:102FD00042F00102028004E002884FF6FE731A40BC
:102FE0000280704770B5002400220023058C4FF644
:102FF000FE7635400584028C8388048B4FF68F75EE
:103000002C40B51E2C400D882C43751E2A408D89FE
:103010002A434D882A43524DA84202D0564DA84219
:1030200013D14FF6F7752A40CD892A434FF6FB7529
:103030002A408D882A434FF6FF652B404FF6FF55F7
:103040002B400D8A2B434D8A2B43838004838D684C
:103050004563028470BD70B5002400220023058CF6
:103060004FF6EF7635400584028C8388048B48F652
:10307000FF752C404FF6FF452C400D884FF6FF762C
:1030800006EA05252C434FF6DF752A408D8906EAAE
:1030900005152A434D8806EA05152A43304DA842F6
:1030A00002D0354DA8421DD14FF67F752A40CD89FB
:1030B0004FF6FF7606EA05152A434FF6BF752A40FC
:1030C0008D8806EA05152A434FF6FF352B404FF24F
:1030D000FF752B400D8A06EA85052B434D8A06EACB
:1030E00085052B43838004838D688563028470BDCE
:1030F00070B5002400220023058C4FF6FF66354092
:103100000584028C8388848B4FF68F752C404FF694
:10311000FC752C400D882C434FF6FF552A408D89B5
:103120004FF6FF7606EA05252A434D8806EA05256F
:103130002A430B4DA84202D00F4DA84238D14FF27E
:10314000FF752A40CD894FF6FF7606EA05252A430A
:103150004FF6FF352A408D8806EA05252A4319E0F7
:10316000000001400004004000080040000C004046
:1031700000100040001400400004014000400140E5
:10318000004401400048014000180040001C00407D
:10319000002000404EF6FF752B404DF6FF752B408A
:1031A0000D8A06EA05152B434D8A06EA05152B43C1
:1031B000838084838D68C563028470BD70B50022EE
:1031C00000230024058C4EF6FF7635400584038CE1
:1031D0008488828B48F6FF752A404FF6FF452A40C7
:1031E0000D884FF6FF7606EA05252A434DF6FF7552
:1031F0002B408D8906EA05352B434D8806EA0535B7
:103200002B43FE4DA84202D0FD4DA84208D14BF6FB
:10321000FF752C400D8A4FF6FF7606EA85152C4384
:10322000848082838D680564038470BD00210180E1
:103230004180818081608181C181018241827047AA
:1032400070B50346002000241846183001258D4033
:10325000ACB21D8CA5431D8409B108290AD100EB2D
:10326000610005684FF68F763540056005681543A7
:1032700005600FE00D1FC5F34E052844056848F6AC
:10328000FF763540056005684FF6FF7606EA0226B0
:103290003543056070BD4163704781637047C1630A
:1032A0007047016470470A460021018B4FF68F7307
:1032B00019401143018370470A460021018B48F6EB
:1032C000FF7319404FF6FF7303EA0223194301838A
:1032D00070470A460021818B4FF68F7319401143C6
:1032E000818370470A460021818B48F6FF7319409D
:1032F0004FF6FF7303EA02231943818370470A469E
:103300000021018B4FF6F773194011430183704779
:103310000A460021018B4FF2FF7319404FF6FF73ED
:1033200003EA02231943018370470A460021818B77
:103330004FF6F77319401143818370470A46002105
:10334000818B4FF2FF7319404FF6FF7303EA02239C
:103350001943818370470A460021018B4FF6FB73A6
:1033600019401143018370470A460021018B4FF633
:10337000FF3319404FF6FF7303EA02231943018319
:1033800070470A460021818B4FF6FB7319401143A9
:10339000818370470A460021818B4FF6FF33194025
:1033A0004FF6FF7303EA02231943818370470A46ED
:1033B0000021018B4FF67F73194011430183704741
:1033C0000A460021018BC1F30E014FF6FF7303EA99
:1033D00002231943018370470A460021818B4FF66F
:1033E0007F7319401143818370470A460021818B06
:1033F000C1F30E014FF6FF7303EA022319438183E1
:1034000070470A460021018C4FF6FD7319401143A5
:10341000018470470A460021018C4FF6F77319406A
:103420001143018470470A460021018C4FF6DF7377
:1034300019404FF6FF7303EA0213194301847047E2
:103440000A460021018C4FF67F7319404FF6FF7337
:1034500003EA02131943018470470A460021018CD4
:103460004FF6FF5319404FF6FF7303EA0223194347
:10347000018470470A460021018C4FF2FF73194006
:103480004FF6FF7303EA02231943018470470A468B
:103490000021018C4DF6FF7319404FF6FF7303EACC
:1034A000023319430184704730B5002301248C4056
:1034B000A3B2048C9C430484048C02FA01F5ADB2DF
:1034C0002C43048430BD30B5002304248C40A3B2C7
:1034D000048C9C430484048C02FA01F5ADB22C43A5
:1034E000048430BD828B4FF2FF331A408283828B7B
:1034F0004FF6FF7303EA01231A4382837047F0B546
:103500000C461546002100220026078C4EF6FF7C53
:1035100007EA0C070784818B028C4FF6FF7707EAD6
:10352000043640F6FF4739404FF6FF7707EA052794
:1035300039434FF6FF7707EA0337394345F6FF77FC
:103540003A4046F480573A4381830284F0BD828B2F
:103550004FF6F3731A408283828B0A43828370474B
:10356000F0B50C461546002100220026078C4FF6C8
:10357000FF6C07EA0C070784818B028C4FF6FF77FC
:1035800007EA04264FF60C7739404FF6FF7707EA33
:1035900003172F4339434FF2FF573A4046F48077E1
:1035A0003A4381830284F0BD028B4FF2FF331A400D
:1035B0000283028B4FF6FF7303EA01231A4302834F
:1035C0007047F0B50C461546002100220026078CF6
:1035D0004FF6EF7C07EA0C070784018B028C4FF64D
:1035E000FF7707EA041640F6FF4739404FF6FF77AA
:1035F00007EA033739434FF6FF7703E00000014045
:103600000004014007EA052739434FF65F773A4047
:1036100046F010073A4301830284F0BD028B4FF657
:10362000F3731A400283028B0A4302837047F0B59A
:103630000C46154600210022068C4FF6FE773E40D0
:103640000684018B028C4FF60C7631407E1C06EA14
:1036500003162E4331434FF6F576324044F001060F
:10366000324301830284F0BD70B505460C462088C4
:1036700050B92389A28861882846FFF7D8FFE188DE
:103680002846FFF7CBFF25E0208804280AD12389AC
:10369000A28861882846FFF794FFE1882846FFF753
:1036A00083FF17E0208808280AD12389A28861882F
:1036B0002846FFF755FFE1882846FFF748FF09E055
:1036C0002389A28861882846FFF719FFE1882846E8
:1036D000FFF708FF70BD002101804180012181803A
:1036E0000021C180018170472DE9F04105460C465B
:1036F00000260127608808B9022600E00026A0887D
:10370000012801D1022700E001272088A0B92389E0
:10371000A28861882846FFF78AFFE1882846FFF7DC
:103720007DFF23893A4631462846FFF74AFFE18864
:103730002846FFF739FF13E02389A28861882846CD
:10374000FFF73FFFE1882846FFF72EFF23893A461F
:1037500031462846FFF76BFFE1882846FFF75EFFFA
:10376000BDE8F0810146486B70470146886B7047A1
:103770000146C86B70470146086C70470A884B8841
:103780001A438B881A43CB881A430B891A434B89F7
:103790001A438B891A43A0F8442070470021018006
:1037A00041808180C180018141818181704731B137
:1037B000B0F8442042F40042A0F8442005E0B0F8FC
:1037C0004420C2F30E02A0F84420704721B1828841
:1037D00042F00402828004E082884FF6FB731A40B4
:1037E0008280704721B1828842F00102828004E029
:1037F00082884FF6FE731A40828070471AB183891F
:103800000B43838102E083898B43838170478182EC
:10381000704702460020138A0B400BB1012000E0E4
:1038200000207047CA430282704730B5024600202C
:1038300000230024158A05EA0103958905EA01049D
:1038400013B10CB1012000E0002030BDCA43028258
:10385000704741EA0203A0F8483070471AB18389E3
:103860000B43838102E083898B438381704721B1BD
:10387000828842F00802828004E082884FF6F77363
:103880001A408280704701894FF6F8721140018119
:1038900070470A46002101894FF68F731940114382
:1038A0000181704730B504460D4629462046FFF792
:1038B000F0FF208940F00700208130BD2DE9F04164
:1038C00004460D4616461F46602D06D13B46012292
:1038D00031462046FFF775FE05E03B4601223146A2
:1038E0002046FFF7A4FE29462046FFF7D2FF208995
:1038F00040F007002081BDE8F08130B50C46002182
:103900000189C9B24FF6FF7505EA03251543254322
:103910002943018130BD2DE9F04105460E46174689
:103920009846002443463A4631462846FFF7E5FFCD
:103930002C894FF6F870044044F007044FF68F705E
:10394000044044F070042C81BDE8F081F0B50446D9
:103950000D4616461F463B46324629462046FFF78F
:10396000CCFF208940F480402081F0BD82884FF652
:103970008F731A40828082880A438280704702894E
:103980004FF6F8731A40028102890A430281704798
:1039900002894FF67F731A40028102890A4302812D
:1039A0007047F0B50C4615461E4600210022002344
:1039B0000189028B038C4FF6F877394021434FF68B
:1039C000FC473A4040F201173A434FF6DD773B405F
:1039D0004FF6FF7707EA06172F433B430181028327
:1039E0000384F0BD21B1828842F08002828004E02D
:1039F00082884FF67F731A4082807047A0F850107B
:103A00007047000010B50446FA48844208D10121ED
:103A10001020FEF7C0FE00211020FEF7BCFE57E08C
:103A2000F548844209D101214804FEF7A3FE002194
:103A30004FF40030FEF79EFE4AE0F048844209D180
:103A400001218804FEF796FE00214FF48020FEF746
:103A500091FE3DE0EA48844209D10121C804FEF705
:103A600089FE00214FF40020FEF784FE30E0E54897
:103A7000844209D101210805FEF77CFE00214FF4A4
:103A80008010FEF777FE23E0DF48844208D1012151
:103A90002020FEF780FE00212020FEF77CFE17E0AC
:103AA000DA48844209D101218807FEF763FE00212C
:103AB0004FF08040FEF75EFE0AE0D548844207D111
:103AC00001214005FEF756FE00216005FEF752FE7B
:103AD00010BD2DE9FF4705460E460024A14600BF54
:103AE000A046B08900B100BF2C8A24F44054F0886D
:103AF00004432C82AC8941F20C608443B088318944
:103B00000843718908430443AC81AC8A24F44074AF
:103B1000B0890443AC826846FEF7BDFCB5488542D7
:103B200002D0B948854202D1DDF80C9001E0DDF801
:103B30000890A88900F4004040B109EBC90000EBEF
:103B4000091031684900B0FBF1F707E009EBC90043
:103B500000EB091031688900B0FBF1F76420B7FB76
:103B6000F0F004012009642101FB1078A88900F419
:103B7000004040B1322000EBC800B0FBF1F000F093
:103B80000700044308E0322000EB08106421B0FB7A
:103B9000F1F000F00F0004432C81BDE8FF874FF4E3
:103BA0001651016000218180C18001810C21418179
:103BB00000218181704710B502460020108A20F450
:103BC00070600B884C8823438C882343CC88234324
:103BD0001843108210BD0021018041808180C18086
:103BE000704721B1828942F40052828104E08289C7
:103BF0004DF6FF731A4082817047028B02F47F42B8
:103C00000283028B0A430283704721B1828942F406
:103C10000042828103E08289C2F30E0282817047F2
:103C200021B1828A42F40062828204E0828A4FF2E9
:103C3000FF731A4082827047C1F308028280704786
:103C400001468888C0F308007047028A4FF6F07377
:103C50001A400282028A0A430282704721B1828995
:103C600042F00202828104E082894FF6FD731A401D
:103C70008281704782894FF2FF731A408281828964
:103C80000A4382817047028A4FF6DF731A4002822C
:103C9000028A0A430282704721B1028A42F48042BA
:103CA000028204E0028A4BF6FF731A4002827047D8
:103CB000818941F001018181704721B1828A42F0FE
:103CC0000802828204E0828A4FF6F7731A408282E9
:103CD0007047028BD2B20283028B42EA0122028336
:103CE000704721B1828A42F02002828204E0828AF7
:103CF0004FF6DF731A408282704721B1828A42F008
:103D00001002828204E0828A4FF6EF731A408282A8
:103D10007047828A4FF6FB731A408282828A0A4376
:103D20008282704721B1828A42F00202828204E0DC
:103D3000828A4FF6FD731A40828270471AB1838AD5
:103D40000B43838202E0838A8B4383827047F0B502
:103D50000346002400260025002040F66A17B942D9
:103D600000D100BF1846C1F3421401F01F0601271D
:103D700007FA06F5012C01D10C3004E0022C01D128
:103D8000103000E014301AB107682F43076002E0DA
:103D90000768AF430760F0BD02460020B1F5007F21
:103DA00000D100BF13880B400BB1012000E00020C0
:103DB000704701F40072B2F5007F00D100BFCA4322
:103DC0000280704770B502460024002300250020C1
:103DD00040F66A16B14200D100BFC1F3421501F0AE
:103DE0001F03012606FA03F3012D13D196893340F0
:103DF00017E000000010014000440040004800406F
:103E0000004C004000500040001401400078004089
:103E1000007C0040022D02D1168A334001E0968AD0
:103E200033400C12012606FA04F41688344013B10C
:103E30000CB1012000E0002070BD10B5002200236D
:103E400040F66A14A14200D100BF0A120124944036
:103E5000A3B2DC43048010BD10B506F03AFB012884
:103E600001D007F01BFC10BD10B504466FF0040034
:103E7000FDF730FEE11704EB5171C1F3C701894A28
:103E800011701046007800EB4001C1EBC0104FF6F6
:103E9000FF7101EAC0008449088010BD0146824AD2
:103EA00012884A434FF0E0235A6100229A611A4671
:103EB000126942F001021A6100BF4FF0E02210695E
:103EC00000F001021AB100F48032002AF5D04FF060
:103ED000E022126922F001024FF0E0231A61002271
:103EE0009A61704701466F4A12784A434FF0E023C7
:103EF0005A6100229A611A46126942F001021A615F
:103F000000BF4FF0E022106900F001021AB100F486
:103F10008032002AF5D04FF0E022126922F001022F
:103F20004FF0E0231A6100229A61704700E000BF61
:103F3000011EA0F10100FAD1704700BF00BF00BF11
:103F400000BF00BF00BF00BF00BF00BF00BF00BF79
:103F500000BF00BF00BF00BF00BF00BF00BF00BF69
:103F600000BF00BF00BF00BF00BF00BF00BF00BF59
:103F700000BF00BF00BF00BF00BF00BF00BF00BF49
:103F800000BF00BF00BF00BF00BF00BF00BF00BF39
:103F900000BF00BF00BF00BF00BF00BF00BF00BF29
:103FA00000BF00BF00BF00BF00BF00BF00BF00BF19
:103FB00000BF00BF00BF00BF00BF00BF00BF00BF09
:103FC00000BF00BF00BF00BF00BF00BF00BF00BFF9
:103FD00000BF00BF00BF00BF00BF00BF00BF00BFE9
:103FE00000BF00BF00BF00BF00BF00BF00BF00BFD9
:103FF00000BF00BF00BF00BF00BF00BF00BF00BFC9
:1040000000BF00BF00BF00BF00BF00BF00BF00BFB8
:1040100000BF00BF00BF00BF00BF00BF00BF00BFA8
:1040200000BF00BF00BF00BF00BF00BF00BF00BF98
:1040300000BF00BF00BF00BF00BF00BF00BF00BF88
:1040400000BF00BF00BF00BF00BF00BF00BF00BF78
:1040500000BF00BF00BF00BF00BF00BF00BF00BF68
:1040600000BF00BF00BF00BF00BF00BF00BF00BF58
:1040700000BF00BF00BF00BF00BF00BF00BF00BF48
:1040800000BF00BF00BF00BF00BF704700B54FF4C6
:104090007A71484301E0FFF750FF011EA0F10100D3
:1040A000F9D100BD560000205800002000BF704725
:1040B00000BFFE4A128802F04002002AF9D0C2B2C4
:1040C000FA4B1B1D1A80704710B586B004460121BB
:1040D0000846FEF7B1FA01211020FEF707FB072280
:1040E0000921F348FDF749FE07220A21F048FDF7B0
:1040F00044FE4FF4C060049002208DF814008DF847
:10410000150000208DF8160001208DF8170004A975
:10411000E748FDF7A7FD00940020ADF80400ADF8D6
:104120000600ADF80800ADF80C000C20ADF80A0050
:104130006946E048FFF7CDFC0121DE48FFF751FD5D
:104140004021DC48FFF735FE06B010BD10B588B041
:10415000044601210820FEF76FFA01214804FEF70A
:10416000B4FA07220521D448FDF707FE07220621ED
:10417000D148FDF702FE6020069002208DF81C0059
:104180008DF81D0000208DF81E0001208DF81F0005
:1041900006A9C948FDF766FD0820069001208DF8A4
:1041A0001C0000208DF81E008DF81F0003208DF8E4
:1041B0001D0006A9C148FDF755FD0821C048FDF7BF
:1041C000CFFD02940020ADF80C00ADF80E00ADF864
:1041D0001000ADF814000C20ADF8120002A9B94887
:1041E000FFF777FC4021B748FFF7E3FD012240F2DB
:1041F0002551B448FFF7ABFD012240F22441B148FC
:10420000FFF7A5FD4FF44070FDF712FC26208DF856
:10421000040001208DF805008DF806008DF80700D8
:1042200001A8FDF70AFC0121A648FFF7DAFC0821E6
:10423000A348FDF795FD08B010BD10B588B0044641
:10424000A148FFF7DFFB01210420FEF7F5F901216A
:104250008804FEF73AFA07220A219848FDF78DFDF7
:1042600007220B219548FDF788FD02208DF81C00E0
:1042700000208DF81E0001208DF81F00800206909E
:1042800002208DF81D0006A98C48FDF7EBFC0220EA
:104290008DF81C008002069006A98848FDF7E2FC14
:1042A0004FF48050069001208DF81C0000208DF8FE
:1042B0001E008DF81F0003208DF81D0006A97F4801
:1042C000FDF7D0FC4FF480517C48FDF749FD4FF4D9
:1042D000E12002904FF48050ADF80C000020ADF8C2
:1042E0000E00ADF81000ADF814000C20ADF812006F
:1042F00002A97548FFF7EDFB012240F225517248F3
:10430000FFF725FD01217048FFF76BFC21466E4841
:10431000FFF79BFC4FF400616B48FFF7ABFC0121FA
:104320006948FFF79BFC4FF44070FDF781FB2720A5
:104330008DF8040001208DF805008DF806008DF839
:10434000070001A8FDF779FB08B010BD10B586B0D5
:10435000044601214020FEF76FF901212020FEF7DD
:10436000C5F9082209215948FDF707FD08220E2149
:104370005648FDF702FD4FF48440049002208DF86A
:1043800014008DF8150000208DF8160001208DF81E
:10439000170004A94D48FDF765FC00940020ADF816
:1043A0000400ADF80600ADF80800ADF80C000C20D4
:1043B000ADF80A0069463D48FFF78BFB01213B48F9
:1043C000FFF70FFC40213948FFF7F3FC06B010BDA2
:1043D00000223F4B1A803F4A11803F4A10607047CD
:1043E00010B53E48B0F80004B0F5806F29DA40F20D
:1043F00025513448FFF7E6FC98B13248FFF720FC1E
:10440000C1B23648B0F80024B0F80004401C334B69
:10441000A3F800041846815440F225512948FFF7BB
:104420000CFD40F224412748FFF7CCFC90B140F24C
:1044300024412448FFF701FD0120284981F80204A6
:1044400008E040F225511F48FFF7F7FC01202349FF
:1044500081F8020410BD10B50020204981F8020443
:10446000A1F800044FF480611C4807F07CFB10BDEC
:104470002DE9F04107460C46154601220821104857
:10448000FDF770FC00260FE02278501C20701146CA
:104490003846FFF7D1FB00BF80213846FFF77CFC90
:1044A0000028F9D0701C86B2AE4219E00014014019
:1044B0000000024000100140000C024000080240D1
:1044C000001C024000440040004800400018024028
:1044D0007A0000207C00002080000020B80200202C
:1044E000D2DB002208210248FDF73CFCBDE8F08148
:1044F000001C02401CB501218720FEF79DF84320D7
:10450000009000208DF8040002208DF805000020A6
:104510008DF8070069462B48FDF7A4FB05200090A5
:1045200069462948FDF79EFB102000906946274800
:10453000FDF798FB0420009069462548FDF792FBA3
:104540001CBD10B5002003F050FFA820FFF78CFC25
:104550004FF4E130FFF7B8FD4FF4E130FFF7F6FD1F
:104560004FF4E130FFF7F2FEFCF79EFBFFF7C2FFCE
:1045700000F034F817490870FCF7BAFEFF224FF438
:104580002051154807F0E7FA12480078FFF755FE6A
:10459000FCF760FCFDF740F800F038F800F0F3F8A5
:1045A000FCF719FF002280216420FCF71FFE0A207F
:1045B000FCF784FE0A20FCF788FE0A20FCF78CFE3C
:1045C00010BD00000000024000040240000802404C
:1045D000001C024064000020583900207CB50121F5
:1045E0000820FEF729F8FF20009000208DF8040035
:1045F00002208DF807006946F748FDF733FBF648BF
:10460000FDF79BFBC4B2254628467CBD1CB50121A5
:104610000846FEF711F84FF4E850009001208DF89D
:10462000040000208DF806008DF8070003208DF8A7
:1046300005006946E948FDF715FB4FF4E851E748E6
:10464000FDF78EFB01210220FDF7F6FF4FF46040DD
:10465000009001208DF8040000208DF806008DF8F0
:10466000070003208DF805006946DD48FDF7FAFADA
:104670004FF46041DA48FDF773FB01210420FDF798
:10468000DBFF4FF45070009001208DF804000020F3
:104690008DF806008DF8070003208DF805006946A7
:1046A000D048FDF7DFFA4FF45071CE48FDF758FBC4
:1046B00001210820FDF7C0FF4FF46E40009001205B
:1046C0008DF8040000208DF806008DF80700032007
:1046D0008DF805006946C048FDF7C4FA4FF46E41F5
:1046E000BD48FDF73DFB01214020FDF7A5FF4FF43C
:1046F000DC70009001208DF8040000208DF8060089
:104700008DF8070003208DF805006946B648FDF7CF
:10471000A9FA4FF4DC71B448FDF722FB0121802097
:10472000FDF78AFF4FF4E050009001208DF804005F
:1047300000208DF806008DF8070003208DF8050095
:104740006946AA48FDF78EFA4FF4E051A748FDF7F5
:1047500007FB01210802FDF76FFF302000900120C8
:104760008DF8040000208DF806008DF80700032066
:104770008DF8050069469E48FDF774FA30219C4883
:10478000FDF7EEFA1CBD1CB501210420FDF754FF16
:104790004EF20700009000208DF8040001208DF8F3
:1047A000070069468F48FDF75DFA01211020FDF7EB
:1047B00043FF7020009000208DF8040001208DF848
:1047C000070069468B48FDF74DFA01212020FDF7CF
:1047D00033FF4FF40060009000208DF804000120AA
:1047E0008DF8070069468448FDF73CFA012108026C
:1047F000FDF722FF4FF47060009000208DF8040058
:1048000001208DF8070069467948FDF72BFA1CBD99
:104810002DE9F04105460E4617464FF0000801F01D
:10482000A9B9002401F0A1B94FF00041E140286886
:10483000084060B30120092828D2DFE800F02705EE
:10484000090D11161A1F230001206C4908601DE094
:1048500001206B49086019E001206A49086015E0F1
:10486000012068491031086010E0012066490860A5
:104870000CE0012064491031086007E00120634921
:10488000086003E001206249086000BF2CE00120BD
:10489000092828D2DFE800F02705090D11161A1F94
:1048A00023000020554908601DE00020544908609D
:1048B00019E000205349086015E0002051491031EB
:1048C000086010E00020504908600CE000204E49CC
:1048D0001031086007E000204C49086003E0002028
:1048E0004B49086000BF00BF4FF00041E1406868DD
:1048F000084060B30220092828D2DFE800F027052D
:10490000090D11161A1F230001203C4908601DE003
:1049100001203B49086019E001203A49086015E090
:10492000012038491031086010E001203649086044
:104930000CE0012034491031086007E001203349C0
:10494000086003E001203249086000BF2CE002202B
:10495000092828D2DFE800F02705090D11161A1FD3
:1049600023000020254908601DE00020244908603C
:1049700019E000202349086015E00020214910318A
:10498000086010E00020204908600CE000201E496B
:104990001031086007E000201C49086003E0002097
:1049A0001B49086000BF00BF4FF00041E140A8680C
:1049B000084078B30320092847D2DFE800F0460515
:1049C000092C3035393E420001200C4908603CE09A
:1049D00001200B49086038E0000C02400000024052
:1049E000000402400008024000180240001C02407F
:1049F000002002400010024000140240A8824342FE
:104A0000B4824042A48241428C024342A00241420D
:104A1000A80240421AE00120F849086015E0012090
:104A2000F6491031086010E00120F54908600CE0FB
:104A30000120F3491031086007E00120F1490860C6
:104A400003E00120F049086000BF2CE003200928A2
:104A500028D2DFE800F02705090D11161A1F2300E0
:104A60000020EA4908601DE00020E949086019E0DB
:104A70000020E249086015E00020E049103108609C
:104A800010E00020DE4908600CE00020DC49103115
:104A9000086007E00020DB49086003E00020DA49F5
:104AA000086000BF00BF4FF00040E040E9680140EF
:104AB00061B30420092828D2DFE800F02705090D9A
:104AC00011161A1F23000120D04908601DE00120A3
:104AD000CF49086019E00120C849086015E00120AD
:104AE000C6491031086010E00120C54908600CE09B
:104AF0000120C3491031086007E00120C149086066
:104B000003E00120C049086000BF2CE00420092810
:104B100028D2DFE800F02705090D11161A1F23001F
:104B20000020BA4908601DE00020B949086019E07A
:104B30000020B249086015E00020B049103108603B
:104B400010E00020AE4908600CE00020AC491031B4
:104B5000086007E00020AB49086003E00020AA4994
:104B6000086000BF00BF4FF00041E14028690840E5
:104B700060B30520092828D2DFE800F02705090DD9
:104B800011161A1F23000120A04908601DE0012012
:104B90009F49086019E001209849086015E001204C
:104BA00096491031086010E00120954908600CE03A
:104BB000012093491031086007E001209149086005
:104BC00003E001209049086000BF2CE0052009287F
:104BD00028D2DFE800F02705090D11161A1F23005F
:104BE00000208A4908601DE000208949086019E01A
:104BF00000208249086015E00020804910310860DB
:104C000010E000207E4908600CE000207C49103153
:104C1000086007E000207B49086003E000207A4933
:104C2000086000BF00BF4FF00041E14068690840E4
:104C300060B30620092828D2DFE800F02705090D17
:104C400011161A1F23000120704908601DE0012081
:104C50006F49086019E001206849086015E00120EB
:104C600066491031086010E00120654908600CE0D9
:104C7000012063491031086007E0012061490860A4
:104C800003E001206049086000BF2CE006200928ED
:104C900028D2DFE800F02705090D11161A1F23009E
:104CA00000205A4908601DE000205949086019E0B9
:104CB00000205249086015E000205049103108607A
:104CC00010E000204E4908600CE000204C491031F3
:104CD000086007E000204B49086003E000204A49D3
:104CE000086000BF00BF4FF00041E140A8690840E4
:104CF00060B30720092828D2DFE800F02705090D56
:104D000011161A1F23000120404908601DE00120F0
:104D10003F49086019E001203849086015E001208A
:104D200036491031086010E00120354908600CE078
:104D3000012033491031086007E001203149086043
:104D400003E001203049086000BF2CE0072009285B
:104D500028D2DFE800F02705090D11161A1F2300DD
:104D600000202A4908601DE000202949086019E058
:104D700000202249086015E0002020491031086019
:104D800010E000201E4908600CE000201C49103192
:104D9000086007E000201B49086003E000201A4972
:104DA000086000BF00BF4FF00041E140E8690840E3
:104DB00018B30820092835D2DFE800F03405090DC2
:104DC00011161A2C30000120104908602AE0012039
:104DD0000F49086026E001200849086022E0012010
:104DE0000649103108601DE001200549086019E0FE
:104DF000012003491031086014E014E0A48241420C
:104E00008C024342A0024142A8024042A88243428F
:104E1000B48240420120F949086003E00120F849CA
:104E2000086000BF2CE00820092828D2DFE800F045
:104E30002705090D11161A1F23000020F1490860EB
:104E40001DE00020F049086019E00020EF490860EB
:104E500015E00020ED491031086010E00020EC4919
:104E600008600CE00020EA491031086007E00020EB
:104E7000E249086003E00020E149086000BF00BF8C
:104E80004FF00040E0403168014091B30120092813
:104E90002ED2DFE800F02D050A0F14191E2328007A
:104EA0000120D849091D086022E00120D649091DCA
:104EB00008601DE00120D549091D086018E00120A7
:104EC000D2491431086013E00120D149091D08605E
:104ED0000EE00120CE491431086009E00120C749E5
:104EE000091D086004E00120C549091D086000BFD4
:104EF00033E0FFE7012009282ED2DFE800F02D057E
:104F00000A0F14191E2328000020BE49091D08603D
:104F100022E00020BC49091D08601DE00020BB49BB
:104F2000091D086018E00020B8491431086013E03A
:104F30000020B749091D08600EE00020B449143173
:104F4000086009E00020AD49091D086004E0002068
:104F5000AB49091D086000BF00BF4FF00041E140B0
:104F60007068084090B3022009282ED2DFE800F0D4
:104F70002D050A0F14191E2328000120A149091D1F
:104F8000086022E00120A049091D08601DE0012001
:104F90009E49091D086018E001209C4914310860F1
:104FA00013E001209A49091D08600EE0012098498C
:104FB0001431086009E001209049091D086004E0EF
:104FC00001208F49091D086000BF33E0FFE7022080
:104FD00009282ED2DFE800F02D050A0F14191E2330
:104FE000280000208749091D086022E0002086492A
:104FF000091D08601DE000208449091D086018E0B3
:10500000002082491431086013E000208049091D06
:1050100008600EE000207E491431086009E000209D
:105020007649091D086004E000207549091D0860E3
:1050300000BF00BF4FF00041E140B068084090B3AE
:10504000032009282ED2DFE800F02D050A0F1419DD
:105050001E23280001206B49091D086022E0012061
:105060006949091D08601DE001206849091D0860A3
:1050700018E0012065491431086013E001206449FB
:10508000091D08600EE0012061491431086009E043
:1050900001205A49091D086004E001205849091DF2
:1050A000086000BF33E0FFE7032009282ED2DFE8C5
:1050B00000F02D050A0F14191E2328000020514965
:1050C000091D086022E000204F49091D08601DE00D
:1050D00000204E49091D086018E000204B4914319A
:1050E000086013E000204A49091D08600EE0002016
:1050F00047491431086009E000204049091D086053
:1051000004E000203E49091D086000BF00BF4FF0C9
:105110000040E040F168014091B3042009282ED2FC
:10512000DFE800F02D050A0F14191E2328000120C6
:105130003449091D086022E001203349091D086037
:105140001DE001203149091D086018E001202F49A8
:105150001431086013E001202D49091D08600EE09C
:1051600001202B491431086009E001202349091D61
:10517000086004E001202249091D086000BF33E0F7
:10518000FFE7042009282ED2DFE800F02D050A0FE2
:1051900014191E23280000201A49091D086022E066
:1051A00000201949091D08601DE000201749091D4C
:1051B000086018E0002015491431086013E0002051
:1051C0001349091D08600EE00020114914310860E0
:1051D00009E000200949091D086004E00020084991
:1051E000091D086000BF00BF4FF00041E140306979
:1051F000084080B30520092836D20BE0A0024142C6
:10520000A8024042A8824342B4824042A482414262
:105210008C024342DFE800F02805090D11161A2020
:1052200024000120F84908601EE00120F7490860C9
:105230001AE00120F649086016E00120F449103117
:10524000086011E00120F34908600DE00120F149F8
:105250001031086008E008E00120EF49086003E031
:105260000120EE49086000BF2CE00520092828D263
:10527000DFE800F02705090D11161A1F2300002092
:10528000E14908601DE00020E049086019E00020C5
:10529000DF49086015E00020DD491031086010E0AA
:1052A0000020DC4908600CE00020DA491031086079
:1052B00007E00020D849086003E00020D7490860D3
:1052C00000BF00BF4FF00040E0407169014061B392
:1052D0000620092828D2DFE800F02705090D11165D
:1052E0001A1F23000120C84908601DE00120C7499A
:1052F000086019E00120C649086015E00120C44992
:105300001031086010E00120C24908600CE0012063
:10531000C0491031086007E00120BF49086003E080
:105320000120BE49086000BF2CE00620092828D2D1
:10533000DFE800F02705090D11161A1F23000020D1
:10534000B14908601DE00020B049086019E0002064
:10535000AF49086015E00020AD491031086010E049
:105360000020AC4908600CE00020AA491031086018
:1053700007E00020A849086003E00020A749086072
:1053800000BF00BF4FF00040E040B169014061B391
:105390000720092828D2DFE800F02705090D11169B
:1053A0001A1F23000120984908601DE00120974939
:1053B000086019E001209649086015E00120944931
:1053C0001031086010E00120924908600CE00120D3
:1053D00090491031086007E001208F49086003E020
:1053E00001208E49086000BF2CE00720092828D240
:1053F000DFE800F02705090D11161A1F2300002011
:10540000814908601DE000208049086019E0002003
:105410007F49086015E000207D491031086010E0E8
:1054200000207C4908600CE000207A4910310860B7
:1054300007E000207849086003E000207749086011
:1054400000BF00BF4FF00040E040F169014061B390
:105450000820092828D2DFE800F02705090D1116D9
:105460001A1F23000120684908601DE001206749D8
:10547000086019E001206649086015E001206449D0
:105480001031086010E00120624908600CE0012042
:1054900060491031086007E001205F49086003E0BF
:1054A00001205E49086000BF2CE00820092828D2AE
:1054B000DFE800F02705090D11161A1F2300002050
:1054C000514908601DE000205049086019E00020A3
:1054D0004F49086015E000204D491031086010E088
:1054E00000204C4908600CE000204A491031086057
:1054F00007E000204849086003E0002047490860B1
:1055000000BF00BF4FF00040E0403968014091B358
:10551000012009282ED2DFE800F02D050A0F14190A
:105520001E23280001203849091D086022E00120BF
:105530003649091D08601DE001203549091D086034
:1055400018E0012032491431086013E0012031498C
:10555000091D08600EE001202F490C39086009E0A0
:1055600001202E490C39086004E001202B49091D57
:10557000086000BF33E0FFE7012009282ED2DFE8F2
:1055800000F02D050A0F14191E23280000201E49C3
:10559000091D086022E000201C49091D08601DE06B
:1055A00000201B49091D086018E00020184914312B
:1055B000086013E000201749091D08600EE0002074
:1055C00015490C39086009E0002014490C390860BD
:1055D00004E000201149091D086000BF00BF4FF022
:1055E0000041E1407868084078B30220092836D2AB
:1055F000DFE800F03505161A1E23272C30000120A5
:105600000149091D08602AE0AC824342B882404249
:10561000A882414290024342A4024142AC0240426D
:105620000120F84908601AE00120F749086016E0F7
:105630000120F5491031086011E00120F3490860AC
:105640000DE00120F249086009E009E00120F1497C
:10565000086004E00120EF491031086000BF2CE031
:105660000220092828D2DFE800F02705090D1116CD
:105670001A1E22000020E84908601DE00020E149D0
:10568000086019E00020E049086015E00020DE49CC
:105690001031086010E00020DC4908600CE00020B8
:1056A000DB49086008E00020DA49086004E00020D7
:1056B000D8491031086000BF00BF4FF00041E14001
:1056C000B868084060B30320092828D2DFE800F05A
:1056D0002705090D11161A1E22000120CE49086067
:1056E0001DE00120C749086019E00120C649086093
:1056F00015E00120C4491031086010E00120C349C1
:1057000008600CE00120C249086008E00120C1499E
:10571000086004E00120BF491031086000BF2CE0A0
:105720000320092828D2DFE800F02705090D11160B
:105730001A1E22000020B84908601DE00020B1496F
:10574000086019E00020B049086015E00020AE496B
:105750001031086010E00020AC4908600CE0002027
:10576000AB49086008E00020AA49086004E0002076
:10577000A8491031086000BF00BF4FF00040E04072
:10578000F968014061B30420092828D2DFE800F05D
:105790002705090D11161A1E220001209E490860D6
:1057A0001DE001209749086019E001209649086032
:1057B00015E0012094491031086010E00120934960
:1057C00008600CE001209249086008E0012091493E
:1057D000086004E001208F491031086000BF2CE010
:1057E0000420092828D2DFE800F02705090D11164A
:1057F0001A1E22000020884908601DE0002081490F
:10580000086019E000208049086015E000207E490A
:105810001031086010E000207C4908600CE0002096
:105820007B49086008E000207A49086004E0002015
:1058300078491031086000BF00BF4FF00040E040E1
:105840003969014061B30520092828D2DFE800F05A
:105850002705090D11161A1E220001206E49086045
:105860001DE001206749086019E0012066490860D1
:1058700015E0012064491031086010E001206349FF
:1058800008600CE001206249086008E001206149DD
:10589000086004E001205F491031086000BF2CE07F
:1058A0000520092828D2DFE800F02705090D111688
:1058B0001A1E22000020584908601DE000205149AE
:1058C000086019E000205049086015E000204E49AA
:1058D0001031086010E000204C4908600CE0002006
:1058E0004B49086008E000204A49086004E00020B5
:1058F00048491031086000BF00BF4FF00040E04051
:105900007969014061B30620092828D2DFE800F058
:105910002705090D11161A1E220001203E490860B4
:105920001DE001203749086019E001203649086070
:1059300015E0012034491031086010E0012033499E
:1059400008600CE001203249086008E0012031497C
:10595000086004E001202F491031086000BF2CE0EE
:105960000620092828D2DFE800F02705090D1116C6
:105970001A1E22000020284908601DE0002021494D
:10598000086019E000202049086015E000201E4949
:105990001031086010E000201C4908600CE0002075
:1059A0001B49086008E000201A49086004E0002054
:1059B00018491031086000BF00BF4FF00040E040C0
:1059C000B969014051B30720092835D2DFE800F05A
:1059D0003405090D1116272B2F0001200E490860F0
:1059E0002AE001200749086026E0012006490860F6
:1059F00022E001200449103108601DE00120034924
:105A0000086019E0BC824042AC82414294024342A9
:105A100098024142A0024042B08243420DE0012080
:105A2000FE49086008E00120FD49086004E001200B
:105A3000FB491031086000BF2CE00720092828D25C
:105A4000DFE800F02705090D11161A1E22000020BC
:105A5000F44908601DE00020F349086019E00020C7
:105A6000F249086015E00020F0491031086010E0AC
:105A70000020EF4908600CE00020E849086008E0D9
:105A80000020E749086004E00020E5491031086083
:105A900000BF00BF4FF00040E040F969014061B332
:105AA0000820092828D2DFE800F02705090D111683
:105AB0001A1E22000120DB4908601DE00120DA499E
:105AC000086019E00120D949086015E00120D74994
:105AD0001031086010E00120D54908600CE0012079
