:020000040800F2
:1000000088690020450100089F0E0008C909000802
:10001000690E0008010700085717000800000000DB
:10002000000000000000000000000000FD100008BB
:100030000507000800000000110F0008E911000882
:100040005F0100085F0100085F0100085F01000810
:100050005F0100085F010008290700085F01000830
:100060005F0100085F010008610700085F010008E8
:100070005F0100085F0100085F0100085F010008E0
:100080005F0100085F0100085F0100085F010008D0
:100090005F0100085F0100085F0100089507000884
:1000A0005F0100085F0100085F0100085F010008B0
:1000B000AD1200085F0100085F0100085F01000841
:1000C0005F0100085F0100085F0100085F01000890
:1000D0005F010008911400080D1500085F01000879
:1000E0005F0100085F0100085F0100085F01000870
:1000F0005F0100085F0100085F0100085F01000860
:100100005F0100085F0100085F0100085F0100084F
:10011000211400085F0100085F0100085F0100086A
:100120005F0100085F0100085F0100085F0100082F
:10013000DFF80CD000F0D2FA00480047A5260008EE
:10014000886900200648804706480047FEE7FEE72A
:10015000FEE7FEE7FEE7FEE7FEE7FEE7FEE7FEE777
:100160004D1200083101000810B540EA01040346B1
:10017000A40703D009E010C9121F10C3042AFAD241
:1001800003E011F8014B03F8014B521EF9D210BDE8
:10019000D2B201E000F8012B491EFBD270470022C9
:1001A000F6E710B513460A4604461946FFF7F0FF76
:1001B000204610BD421C10F8011B0029FBD1801AFB
:1001C00070472DE9FE4F804681EA0300C00F0C46C0
:1001D000009021F0004123F00045B8EB0200A94156
:1001E00005D24046214690461C460B46024623F067
:1001F0000040104347D0270DC7F30A00C3F30A514C
:100200000290401A019040286BDAC3F3130040F4C7
:10021000801B0098924620B10023D2EB030A63EBC7
:100220000B0B01985946C0F14002504600F041F9CD
:1002300006460D4650465946019A00F059F910EB12
:1002400008006141002487EA115284EAE7731A43E7
:1002500040D0009A62B3019A012A4FEA075215DC96
:10026000001B61EB02014FF0004202EA0752CDE9A8
:100270000042001C41F5801132462B4600F059F92E
:1002800003B0BDE8F08F40462146F9E7001B61EB63
:100290000201001C41F5801300185B412018A2F5F3
:1002A000001747EB030140EAD570B6196D4111E024
:1002B0006D084FEA360645EAC0754FEA0752001B43
:1002C00061EB0201001C41F5801149084FEA300042
:1002D0000019514132462B4603B0BDE8F04F00F003
:1002E00019B90098012240000023D0EB020263EB11
:1002F000E073009821464FEAE074B8EB000061EB30
:100300000401E9E783F000435BE781F0004158E72F
:100310002DE9FE4F81EA030404F0004421F000417E
:1003200000944FF0000B23F0004350EA01045ED02C
:1003300052EA03045BD0C3F30A54C1F30A552C44B8
:10034000A4F2F3340194A0FB0254C1F3130141F46D
:100350008011C3F3130343F4801301FB024400FB39
:10036000034E840A970A44EA815447EA8357A4FB60
:10037000076802958D0A05FB07854FEA932C04FB5D
:100380000C542705029D4FEA065847EA1637B5EB8D
:1003900008056EEB070C870E920E47EA811742EABA
:1003A0008312A7FB0201B6EB0B0164EB00042B0DDB
:1003B00043EA0C335E1844EB1C50DA465146E7FB27
:1003C0000201C5F313044FEA0B3343EA14534FEA17
:1003D0000432019C43EA0603A4F10C040294009C3D
:1003E000CDE900B400F0A5F803B0BDE8F08F00201F
:1003F0000146F9E730B5041E71F1000404DB4FF04B
:100400000044404264EB0101141E73F1000405DB5B
:100410001C464FF00043524263EB0403994208BF6D
:10042000904230BD30B50B46014600202022012409
:1004300009E021FA02F59D4205D303FA02F5491BB2
:1004400004FA02F52844151EA2F10102F1DC30BDC8
:100450002DE9F05F0546002092469B4688460646F9
:10046000814640241BE0284641464746224600F08C
:100470002FF853465A46C01A914110D311461846D8
:10048000224600F016F82D1A67EB01084F46224667
:100490000120002100F00DF817EB00094E41201E4D
:1004A000A4F10104DFDC484631462A464346BDE854
:1004B000F09F202A04DB203A00FA02F10020704766
:1004C0009140C2F1200320FA03F319439040704792
:1004D000202A04DB203A21FA02F00021704721FA99
:1004E00002F3D040C2F12002914008431946704700
:1004F000202A06DBCB17203A41FA02F043EAE073E8
:1005000006E041FA02F3D040C2F1200291400843D4
:100510001946704710B5141E73F1000408DA401C28
:1005200041F1000192185B411A4301D120F0010012
:1005300010BD2DE9F04D92469B4611B1B1FA81F202
:1005400002E0B0FA80F220329046FFF7B2FF044694
:100550000F4640EA0A0041EA0B0153465A46084357
:1005600013D0114653EA010019D0C8F14002504699
:10057000FFF7AEFF05460E46504659464246FFF786
:1005800098FF084305D0012004E020463946BDE825
:10059000F08D0020054346EAE0762C4337430A9865
:1005A0006305E40AA0EB08000022FD0A44EA475470
:1005B0000A3002D500200146E9E70105101969411A
:1005C000DDE9084500196941BDE8F04DA2E72DE9D4
:1005D000F04D81EA030404F0004B21F0004514467D
:1005E0004FF0000A23F0004150EA050220D054EAFF
:1005F00001021DD0C5F30A570246C5F31303C1F328
:100600001300C1F30A5640F4801543F48013A7EB9E
:100610000608101BD64608F2FD3873EB050002D31E
:1006200008F1010801E092185B41B8F1000F03DA0C
:1006300000200146BDE8F08D00204FF480110646F1
:1006400084460EE0171B73EB050705D3121B63EB03
:10065000050306434CEA010C49084FEA30009218A2
:100660005B4150EA0107EDD152EA030012D082EA61
:10067000040083EA0501084305D0101BAB4106D2F4
:100680000122002306E000224FF0004302E06FF059
:10069000010253101AEB06004CEB085110EB0A0054
:1006A00041EB0B01BDE8F04DFFF734BFC1F30A5237
:1006B000C1F3130140F2FF3341F480119A4202DA90
:1006C00000200146704740F233439A42A2F233427F
:1006D00002DC5242FFF7FCBEFFF7EBBE064C074DB3
:1006E00006E0E06840F0010394E807009847103402
:1006F000AC42F6D3FFF720FD982F0008B82F000872
:1007000000BFFEE7704700000021064A1160114655
:10071000486000BF03490968024A52689142F9D310
:10072000704700004800002010B50C48007840B920
:100730000A480078401C09490870012000F062F85E
:1007400010BD06480078012805D100200349087033
:10075000012000F057F800BFF2E700000000002081
:1007600010B500F079FC0A48007830B9032000F099
:1007700067FC01200649087005E0032000F054FCE6
:10078000002003490870102000F03CF810BD000064
:100790000100002010B500F05FFC202000F038F8C8
:1007A000012812D11548007830B9022000F048FC29
:1007B00001201249087005E0022000F035FC0020FD
:1007C0000E490870202000F01DF8402000F020F8AD
:1007D000012812D10A48007830B9012000F030FC1D
:1007E00001200749087005E0012000F01DFC0020F1
:1007F00003490870402000F005F810BD02000020F9
:100800000300002001490860704700001404014003
:10081000014600200022074B1B6803EA0102054B3A
:1008200014331B680B4013B10AB1012000E0002013
:1008300070470000000401402DE9F0410246002508
:100840000026002000230024002791F803C00CF0AC
:100850000F0591F803C00CF0100CBCF1000F03D091
:1008600091F802C04CEA050591F800C0BCF1000FF8
:1008700031D0146800202BE04FF0010C0CFA00F38B
:10088000B1F800C00CEA03069E4220D183004FF06D
:100890000F0C0CFA03F7BC4305FA03FC4CEA040402
:1008A00091F803C0BCF1280F06D14FF0010C0CFAEF
:1008B00000FCC2F814C00AE091F803C0BCF1480F74
:1008C00005D14FF0010C0CFA00FCC2F810C0401C1E
:1008D0000828D1D31460B1F800C0BCF1FF0F34DD9B
:1008E000546800202EE000F1080C4FF0010808FACF
:1008F0000CF3B1F800C00CEA03069E4221D183003C
:100900004FF00F0C0CFA03F7BC4305FA03FC4CEA5A
:10091000040491F803C0BCF1280F05D100F1080CC4
:1009200008FA0CF8C2F8148091F803C0BCF1480F23
:1009300007D100F1080C4FF0010808FA0CF8C2F8D2
:100940001080401C0828CED35460BDE8F08141617E
:10095000704701617047000070B51A4890F8680050
:1009600000B970BD174890F86600811E1548401CFC
:1009700000F07CFA84B2134890F86600801E11499A
:10098000491C0A5C481E90F86600401E085C02EB99
:10099000002085B2AC420CD1481E4078491E91F827
:1009A000D510884205D107488078032801D100F08E
:1009B0001BF80020034981F8660081F8680000BF39
:1009C000CFE700006800002006E004A000F0C6FEAB
:1009D0004FF47A70FFF798FEF7E70000D3B2BCFE41
:1009E000B4EDCEF30D0A00002DE9F0411248C678AF
:1009F000002500241CE0201D0F4F7F1C17F800C0AD
:100A0000E01C385C0CEB0023201D3A5CE01C395CD8
:100A10000AA000F0A3FE201D39460A5CE01C085C19
:100A200002EB00200F4921F81500681CC5B2A41C78
:100A3000B442E0DBBDE8F0816800002054656D70D1
:100A40005F486269743D2025642054656D705F4C79
:100A50006269743D2025642074656D703D202564B5
:100A60000D0A0000480100202DE9F04107460C4620
:100A70001546304880F8D57080F8CD70032180F895
:100A8000CE102046E11704EB11610A0A294981F8CA
:100A9000CF20E11704EB11610912A4EB0121CAB2C6
:100AA000244981F8D0202846E91705EB11610A0A8C
:100AB000204981F8D120E91705EB11610912A5EB56
:100AC0000121CAB21B4981F8D22006211948CD3034
:100AD00000F0CCF986B23046F11706EB116109122D
:100AE000A6EB0121CAB2134981F8D320F11706EB16
:100AF00011610A0A0F4981F8D42000F0E1FA0822B6
:100B00000C49CD310C4802F0E3F84FF000080AE040
:100B10000848CD3010F8081008A000F01FFE08F1BA
:100B2000010000F0FF08B8F1080FF1DB00F0C0FA97
:100B3000BDE8F081680000200044004025780900ED
:100B400030B50246002300BF0846CD1701EB5565BE
:100B5000ED11A1EBC515ECB2CD1701EB5565E9110F
:100B6000002901DD44F0800418465B1C1454002960
:100B7000EADC184630BD0000401C802801DA401C29
:100B80000AE0B0F5804F01DA801C05E00349884295
:100B900001DAC01C00E0001D70470000FFFF1F00CD
:100BA0002DE9FE4305460E461446029500200190AD
:100BB000009000274FF0FF38204600F0A5F80746C8
:100BC0008146FFF7D9FFB04202DD6FF001088FE0E8
:100BD00000208DF80400019820F0F0001030019002
:100BE0009DF8041002A802F0A8F839460298FFF711
:100BF000A7FF029908440290207A042808D13EA158
:100C000002A802F086F8042102A802F096F807E094
:100C10003BA102A802F07DF8032102A802F08DF8A2
:100C200000208DF80000A17E009861F34100009043
:100C3000E07E08B1012100E00021009861F382000C
:100C400000900098C0F3800058B194F83D100098CF
:100C500061F3C400009094F83C10009861F34510D3
:100C60000090206C08B9A06C20B1009820F08000A2
:100C700080300090E06C08B9606D20B1009820F0E1
:100C80004000403000909DF8001002A802F055F896
:100C9000218B02A802F057F802A8D4E90423E168E6
:100CA00002F069F8E07E58B102A8D4E90A23616A2B
:100CB00002F061F802A8D4E90D23216B02F05BF881
:100CC0000098C0F3C01028B102A8D4E91123216C08
:100CD00002F051F80098C0F3801028B102A8D4E9BE
:100CE0001423E16C02F047F80298A0EB050800BF5E
:100CF0004046BDE8FE8300004D5154540000000002
:100D00004D5149736470000070B504460025207A87
:100D1000032801D10C2503E0207A042800D10A25FC
:100D2000D4E90412E06800F093F8801C0544E07EEA
:100D300068B1D4E90A12606A00F08AF8861CD4E926
:100D40000D12206B00F084F83044801C0544206CA8
:100D500008B9A06C30B1D4E91112206C00F078F819
:100D6000801C0544E06C08B9606D30B1D4E9141200
:100D7000E06C00F06DF8801C0544284670BD2DE93C
:100D8000F04F87B005460F4690461C46DDE915B684
:100D9000DDE9109A069500200590049003900096D6
:100DA000204612A90EC900F042F804900290FFF705
:100DB000E3FEB84203DD6FF00100039033E00598D5
:100DC00020F0F00030300590059868F3C3000590DE
:100DD000059864F342000590059869F300000590BA
:100DE0009DF8141006A801F0A8FF04990698FFF7D3
:100DF000A7FE06990844069006A812A90EC901F09C
:100E0000BAFF002C03DD514606A801F09CFF3246D4
:100E100059460698FFF7A8F90698304406900698B8
:100E2000401B039000BF039807B0BDE8F08F7FB56B
:100E30000546089E002401A807C800F009F8801C98
:100E400030440444002D00DDA41C204604B070BDD5
:100E500037B50024009820B10098FFF7ABF904469D
:100E600000E0019C20463EBD00BFFEE770B5024693
:100E70000B464FF6FF7000210EE0565C70400024D8
:100E800007E000F00105400815B14AF20106704084
:100E9000641C082CF5D3491C9942EED370BD7047F1
:100EA00070B5002100230F22C47804B3154C2468C8
:100EB00004F4E064C4F5E064210AC1F10403CA400B
:100EC000447804FA03F184781440214309010E4C5C
:100ED0000678A155047804F01F050124AC4005787C
:100EE0006D11AD0005F1E025C5F8004109E0047879
:100EF00004F01F050124AC40044D0678761145F836
:100F0000264070BD0CED00E000E400E080E100E070
:100F10007047000029B1064AD2690243044BDA61E6
:100F200004E0034AD2698243014BDA617047000052
:100F30000010024029B1064A92690243044B9A61AB
:100F400004E0034A92698243014B9A6170470000B2
:100F50000010024030B500210022002400232D4D56
:100F60006D6805F00C0121B1042905D0082923D1B1
:100F700005E0294D056022E0274D05601FE0254D65
:100F80006D6805F47012234D6D6805F480340225F8
:100F900005EB92421CB9214D554305600BE01D4DF8
:100FA0006D6805F400351DB11C4D5543056002E028
:100FB000194D5543056002E0174D056000BF00BFA5
:100FC000144D6D6805F0F0010909154D6B5C05685D
:100FD000DD4045600F4D6D6805F4E061090A104D74
:100FE0006B5C4568DD4085600A4D6D6805F46051B5
:100FF000C90A0B4D6B5C4568DD40C560054D6D68E9
:1010000005F44041890B074D6B5CC568B5FBF3F5F2
:10101000056130BD0010024000127A0000093D0059
:10102000110000202100002004490968421D01230D
:1010300093401943014A1160704700000C080140B9
:1010400004490968421D012393409943014A1160F4
:10105000704700000C0801401348806940F004000C
:10106000114988611148006820F07F400F490860ED
:10107000081D006820F00F00091D0860081F0068A7
:1010800040F04C50091F0860081D006840F0030044
:10109000091D086005480C30006840F4E070034901
:1010A0000C31086070470000001002400008014049
:1010B00010B510210148FFF74AFC10BD000801409F
:1010C00010B510210148FFF744FC10BD0008014095
:1010D00008B501F043FD01210420FFF72BFF10208C
:1010E0008DF80300ADF8000003208DF8020069467A
:1010F0000148FFF7A1FB08BD00080140704710B58B
:1011000000F002F810BD00000CB500200190009026
:101110003348006840F480303149086000BF3048EF
:10112000006800F4003000900198401C0190009885
:1011300018B90198B0F5A06FF1D12948006800F402
:10114000003010B10120009001E0002000900098D4
:10115000012843D12348006840F01000214908606D
:101160000846006820F0030008600846006840F068
:10117000020008601A4840681949486008464068FB
:1011800048600846406840F480604860084640680F
:1011900020F47C1048600846406840F4E81048603D
:1011A0000846006840F08070086000BF0C48006886
:1011B00000F000700028F9D00948406820F00300D2
:1011C000074948600846406840F00200486000BF98
:1011D0000348406800F00C000828F9D10CBD00005D
:1011E000001002400020024011480068401C1049D5
:1011F000086010480068401C0E4908600E480068EE
:10120000401C0D4908600D480068401C0B490860EF
:101210000B480068401C0A4908600A480068401CE6
:101220000849086008480068401C07490860704782
:10123000400000202800002030000020380000205E
:1012400048000020500000205800002010B513482E
:10125000006840F0010011490860084640681049E4
:1012600008400E494860084600680E4908400B498E
:1012700008600846006820F480200860084640683E
:1012800020F4FE0048604FF41F008860FFF737FF2E
:101290004FF000600449086010BD000000100240DB
:1012A0000000FFF8FFFFF6FE08ED00E010B5012199
:1012B000880700F043F858B30121880700F02FF8A1
:1012C000144890F8670098B1124890F86500401CE7
:1012D000104981F86500084690F86500082807DB8A
:1012E000002081F86700012081F8680081F8D600AD
:1012F0000848D0F8D800401C0649C1F8D800084674
:10130000D0F8D800B0F57A7F02DD012081F8DC004A
:1013100010BD000068000020CA4302827047CA4323
:101320000282704721B1028842F00102028004E08B
:1013300002884FF6FE731A400280704730B50246AD
:10134000002000230024158A05EA0103958905EA97
:10135000010413B10CB1012000E0002030BD1AB12E
:1013600083890B43838102E083898B4383817047A8
:1013700001894FF6F87211400181704700220288FE
:101380001D4B98420ED01D4B98420BD0B0F1804FB0
:1013900008D01B4B984205D01A4B984202D01A4BEA
:1013A000984204D14FF68F731A404B881A43174B5B
:1013B000984207D0164B984204D04FF6FF431A408C
:1013C000CB881A4302808B8883850B8803850A4B60
:1013D00098420BD0094B984208D00E4B984205D04A
:1013E0000D4B984202D00D4B984201D10B7A0386E7
:1013F0000123838270470000002C0140003401402B
:101400000004004000080040000C004000100040B4
:1014100000140040004001400044014000480140E9
:1014200070B540F22551174800F0D0F80546012D5F
:1014300015D140F22551134800F0A0F8114800F0F2
:1014400081F9C4B2104804801048B0F80018B0F810
:101450000008401C0D4AA2F800081046445440F20F
:101460002441084800F0B2F8012809D1074981F861
:10147000020804480088C4B20248001D0088C4B2B3
:1014800070BD0000004C00400438014052010020B3
:1014900010B540F225511A4800F098F801281BD1E8
:1014A00040F22551164800F069F8154800F04AF955
:1014B00014490870084601781348B0F80028B0F8BD
:1014C0000008401C104BA3F80008184681540D4832
:1014D00000780B49091D088040F22441084800F0BB
:1014E00075F801280AD1084981F8020804480088E3
:1014F000044908700248001D0088087010BD0000F3
:101500000038014004000020580D002070B540F262
:101510002551174800F05AF80546012D26D140F212
:101520002551134800F02AF8114800F00BF9C4B215
:1015300010480480104890F86800012800D170BD60
:101540000D4890F8661090F86600401C0A4A82F830
:101550006600501C44540020114681F8650008467E
:1015600090F86600012801D181F8670000BFE6E726
:1015700000440040043801406800002010B50022FB
:10158000002340F66A14A14200D100BF0A120124D0
:101590009440A3B2DC43048010BD21B1828942F49F
:1015A0000052828104E082894DF6FF731A408281E5
:1015B000704702460020B1F5007F00D100BF1388BC
:1015C0000B400BB1012000E00020704770B50246CF
:1015D000002400230025002040F66A16B14200D105
:1015E00000BFC1F3421501F01F03012606FA03F301
:1015F000012D02D19689334006E0022D02D1168AD0
:10160000334001E0968A33400C12012606FA04F4B6
:101610001688344013B10CB1012000E0002070BDE9
:10162000F0B50346002400260025002040F66A1786
:10163000B94200D100BF1846C1F3421401F01F06A1
:10164000012707FA06F5012C01D10C3004E0022C29
:1016500001D1103000E014301AB107682F43076041
:1016600002E00768AF430760F0BD00002DE9F047D6
:1016700086B005460E460024A24600BFA1460027BC
:10168000B08900B100BF2F462C8A4CF6FF70044091
:10169000F08804432C82AC894EF6F3100440B088E5
:1016A00031890843718908430443AC81AC8A4FF601
:1016B000FF400440B0890443AC8201A8FFF74AFC14
:1016C0001F48874202D1DDF810A001E0DDF80CA030
:1016D000A88900F4004040B10AEBCA0000EB0A10F0
:1016E00031684900B0FBF1F807E00AEBCA0000EBF3
:1016F0000A1031688900B0FBF1F86420B8FBF0F003
:1017000004012009642101FB1089A88900F400402C
:1017100040B1322000EBC900B0FBF1F000F007004F
:10172000044308E0322000EB09106421B0FBF1F023
:1017300000F00F0004432C8106B0BDE8F0870000E4
:101740000038014001468888C0F308007047C1F3A3
:1017500008028280704700BFFEE700000FB4054B0F
:1017600010B503A9044A029800F0EEF810BC5DF829
:1017700014FB0000ED240008640000200FB4084BA7
:1017800010B504A902AA039800F0DEF8044602A9E5
:10179000002000F070FC204610BC5DF814FB000037
:1017A0007720000802E008C8121F08C1002AFAD1F9
:1017B00070477047002001E001C1121F002AFBD1D1
:1017C000704700002DE9FF5F82B00021DDE90430A1
:1017D000020DDDF840B0034318D044F61050A2F2D9
:1017E000FF3242431514119801281FD0A5EB0B00BE
:1017F000401C5FEA000A4FF000064E4FDFF83891B8
:10180000B046504615D5CAF1000413E011980124E2
:101810004AA3012801D16FEA0B010298119AC0E98D
:101820000031C0E9024206B0BDE8F09FCBF10000F4
:10183000DFE704460021404A491842EB0450CDE955
:10184000001012E0E00707D032463B4640464946CA
:10185000FEF75EFD8046894632463B4610461946F5
:10186000FEF756FD06460F466410002CEAD1DDE96E
:101870000401DDE90023BAF1000F06DAFEF748FDA6
:1018800042464B46FEF744FD05E0FEF7A0FE424609
:101890004B46FEF79CFE04460E460022284BFEF700
:1018A000A9FD03D84FF0FF30014607E00022254B89
:1018B00020463146FEF785FCFEF7F8FE102409E0CD
:1018C000002C0ADB0A220023FEF7C2FD039B303204
:1018D0001A55641E50EA0102F2D1641C039AC4F145
:1018E00011031444119A012A03D0012208430DD197
:1018F0000AE0084304D000204FF0110B119072E76A
:10190000A3EB0B056D1E0DE05B4504DD4FF00002FF
:1019100005F1010504E003DA4FF00002A5F101052D
:10192000002AECD002981199C0E90231C0E90045C3
:1019300079E70000000014400000F03F3000000094
:101940000000F0430000E03F2DE9FF4F95B09B46BB
:101950008946064600250FE2252877D10024274630
:10196000F84A0121059400E0044316F8013F203BAA
:1019700001FA03F01042F7D130782A2811D06FF025
:101980002F033078A0F13002092A16D8059A44F0C6
:10199000020402EB820203EB42021044761C059023
:1019A000EFE759F8042B0592002A03DA504244F479
:1019B0000054059044F00204761C30782E2816D18D
:1019C00016F8010F44F004042A280DD06FF02F02FE
:1019D0003078A0F13003092B09D807EB870302EB1D
:1019E0004303C718761CF3E759F8047B761C30785C
:1019F0006C280FD006DC4C2817D068280DD06A2838
:101A000014D104E0742810D07A280FD10DE044F4EA
:101A100000140AE044F4801401E044F440147278A5
:101A2000824202D104F58014761C761C3078662838
:101A30000BD013DC582877D009DC002875D0452856
:101A4000F6D04628F4D047281AD19DE118E0632843
:101A500035D0642879D0652812D195E1702873D0EB
:101A600008DC6728F1D069286FD06E280DD06F2868
:101A700006D1B5E073282CD0752875D0782874D09D
:101A80005A46179990476D1C75E1C4F3025002281D
:101A900009D003280DD0D9F8001004280DD00D600E
:101AA00009F1040967E1D9F80010EA17C1E9005209
:101AB000F6E7D9F800100D80F2E70D70F0E719F89D
:101AC000041B8DF8001000208DF80100EA4601206B
:101AD00003E059F804AB4FF0FF3061074FF000010D
:101AE00002D40DE008F101018846B9420FDA8045C1
:101AF000F8DB1AF808100029F4D108E008F1010118
:101B000088468142FADB1AF808100029F6D10598B8
:101B10005B46A0EB080721463846179A00F094FA76
:101B2000284400EB080507E04DE029E10DE01AF834
:101B3000010B5A4617999047B8F10108F7D25B4656
:101B400021463846179A13E142E00A220092C4F374
:101B500002524FF0000A022A08D059F804CB032A97
:101B60004FEAEC710AD00DE029E02AE009F1070103
:101B700021F00702F2E802C1914609E00FFA8CFC5D
:101B80004FEAEC71042A03D14FFA8CFC4FEAEC7156
:101B9000002907DA0A460021DCF1000C61EB0201A2
:101BA0002D2202E0220504D52B228DF804200122EB
:101BB00003E0E20701D02022F7E7904659E00A212E
:101BC00002E010220DE010214FF0000A00910BE01E
:101BD00010224FF0000A44F004040827009203E0AA
:101BE00008224FF0000A0092C4F30252022A05D0E4
:101BF00059F804CB0021032A08D009E009F10701B4
:101C000021F00702F2E802C1914605E01FFA8CFCC0
:101C1000042A01D10CF0FF0C4FF00008220728D550
:101C2000702806D0009B83F0100353EA0A0305D006
:101C30000EE040228DF80420012208E05CEA010257
:101C400006D030228DF804208DF80500022290463F
:101C5000009B83F0080353EA0A030AD15CEA0102FD
:101C600001D1620705D530228DF804204FF001081C
:101C70007F1E582804D034A003900EA802900DE0D7
:101C800036A0F9E753466046009AFEF7E1FB84462A
:101C90000398825C0298401E029002705CEA010088
:101CA000F0D1029806A9081A00F1200A600702D5AF
:101CB00024F4803400E00127574502DDA7EB0A0039
:101CC00000E0002000EB0A01009005984144401A12
:101CD0000590E00306D45B462146179A059800F06C
:101CE000B3F90544002706E001A85A46C05D1799DC
:101CF00090476D1C7F1C4745F6DBE0030CD55B4627
:101D00002146179A059800F09FF9054404E0302019
:101D10005A46179990476D1C0099481E009000295B
:101D2000F5DC08E0029802995A460078491C0291B5
:101D3000179990476D1CBAF10001AAF1010AF1DC74
:101D400065E100000928010030313233343536377F
:101D500038396162636465660000000030313233F7
:101D60003435363738394142434445460000000097
:101D700000F058F90544761C307800287FF4ECAD6B
:101D800019B02846BDE8F08F620700D4062709F194
:101D9000070222F0070CFCE80223E14603F00048AA
:101DA0005FEA080C02D00FF2702C0DE05FEA045CD1
:101DB00002D50FF2682C07E05FEAC47C02D00FF274
:101DC000602C01E0AFF2700C4FF0FF3823F00043BD
:101DD000CDF850C065280CD006DC452809D046282F
:101DE0001DD047283DD13DE0662818D067287ED118
:101DF00038E00021112F01DB112000E0781CCDE933
:101E0000000106A90EA8FFF7DDFCDDE90F010E9A1F
:101E100003910021009207F1010A04914DE04FF077
:101E200000400097CDE9011006A90EA8FFF7CAFCF3
:101E3000DDE90F0203920E9B11990022DDF80CA040
:101E40000093049211B9791C00EB010AB7EB0A0068
:101E500004D4C0F1FF3007F1010A0490AAEB070097
:101E6000019044E0012F00DA01270021112F01DD4C
:101E7000112000E03846CDE9000106A90EA8FFF7C1
:101E8000A1FCDDE90F010E9A03910021049100925B
:101E9000BA4621070CD40399514500DA8A46BAF1B3
:101EA000010F05DD009AAAF10101515C302908D02B
:101EB000B84202DA10F1040F06DA0121CDE901106F
:101EC00015E0AAF10101E9E7002805DC04990144C5
:101ED0000491AAEB000102E0411C514500DD8A4655
:101EE0000499401A401C01904FF0004002902007D6
:101EF00004D40198504501DBCDF8048000208DF812
:101F00004F0002980DF14F07B0F1004F25D02B2064
:101F10000E9002984FF0020800280CDA404202901E
:101F20002D200E9007E00A210298FEF77BFA30314F
:101F3000029007F8011DB8F10001A8F10108F2DCD8
:101F400002980028EFD1791E0E980870307800F0C2
:101F5000200040F0450007F8020D12A8C01B00F158
:101F600007081498007800B1012000EB0A010198DD
:101F700001EBE07105984144401A401E0590E003D2
:101F800006D45B462146179A059800F05DF8054493
:101F90001498007818B15A46179990476D1CE003C1
:101FA00024D55B462146179A059800F04DF8054464
:101FB0001CE00498002807DBDDE90301884203DD0B
:101FC0000098405C179901E0179930205A469047D5
:101FD000049805F10105401C04900198401E0190F1
:101FE00004D12E205A46179990476D1CBAF1000172
:101FF000AAF1010ADDDC05E017F8010B5A46179932
:1020000090476D1CB8F10001A8F10108F4DC5B46B3
:102010002146179A0598ABE62D0000002B00000022
:10202000200000002DE9F041044600251E46174619
:10203000880404D405E039462020B0476D1C641E96
:10204000F9D52846BDE8F0812DE9F0410446002588
:102050001E469046C80301D5302700E0202788049B
:1020600004D505E041463846B0476D1C641EF9D5DD
:102070002846BDE8F0810A68531C0B601070704759
:1020800070B506460D4600246D4890F802080128F8
:1020900004D06CA0FFF762FB002070BD00206849EF
:1020A00081F8020808460078AA2807D10846407837
:1020B000FD2803D108468078552810D066A0FFF788
:1020C0004DFB5F4968A0FFF749FB4FF400615C4896
:1020D000FEF765F800205A49A1F80008DDE75848E6
:1020E000C4784FF6FF7000EA042455480079044391
:1020F000A01E84B2214662A0FFF730FB50495AA0CF
:10210000FFF72CFB43F69820844201DD0020C4E752
:102110004B484079612806D0622819D063282CD01A
:1021200064284CD13AE05BA0FFF718FB444846799D
:1021300041795CA0FFF712FB002005E0C11D404A79
:10214000515C2954411C88B2A042F7DB0120A4E76E
:1021500059A0FFF703FB3A484679417951A0FFF7B0
:10216000FDFA002005E0C11D354A515C2954411C8F
:1021700088B2A042F7DB01208FE753A0FFF7EEFA09
:102180002F484679002005E0C11D2D4A515C295495
:10219000411C88B2A042F7DB01207EE74EA0FFF78A
:1021A000DDFA27484679002005E0C11D244A515C2C
:1021B0002954411C88B2A042F7DB01206DE720487A
:1021C0008079802802D048A0FFF7C8FA1C4880799F
:1021D000022813D003DC38B101281ED109E00328FE
:1021E00011D0102819D113E044A0FFF7B7FA00204E
:1021F00053E745A0FFF7B2FA00204EE746A0FFF7ED
:10220000ADFA002049E747A0FFF7A8FA002044E70D
:102210004CA0FFF7A3FA00203FE753A0FFF79EFA78
:1022200000BF00BF00BF00BF4FF400610448FDF7CE
:10223000B6FF00200249A1F8000800BF2DE700000A
:1022400052010020BDD3CAD5B1EAD6BECEBBCEB4B2
:10225000D6C3310D0A000000B7C7CCD7BDD3D7D63F
:10226000CAFDBEDD0D0A0000657370383236362EA9
:1022700052585F64617461203D2025730D0A00008F
:10228000CAFDBEDDC7F8CAFDBEDDB3A4B6C82025B1
:10229000640D0A00736F636B6574204120CAFDBE34
:1022A000DD0D0A00736F636B6574206964203D2047
:1022B00025780D0A00000000736F636B657420427F
:1022C00020CAFDBEDD0D0A00736F636B6574204389
:1022D00020CAFDBEDD0D0A00736F636B6574204478
:1022E00020CAFDBEDD0D0A00CDF8C2E7B7B5BBD8E8
:1022F000CAFDBEDDB4EDCEF30D0A0000B0FCCDB7D3
:10230000B4EDCEF300000000CAFDBEDDB3A4B6C834
:10231000B4EDCEF300000000B2CECAFDB4EDCEF3B2
:1023200000000000D0A3D1E9CEBBB4EDCEF3A3AC46
:10233000C7EBBCECB2E9D0A3D1E9BACDBDE1B9FBA2
:1023400000000000B7A2CBCDCAA7B0DCA3A8B2CED4
:10235000CAFDD5FDC8B7B5ABCAC7B7A2CBCDCAA712
:10236000B0DCA3A9000000006572726F720D0A0054
:1023700070B5ADF5806D05460E4614464FF480618C
:102380006846FDF70CFF55208DF80000FD208DF804
:102390000100AA208DF8020000208DF80300A01C87
:1023A000C0B28DF804008DF8055000208DF80600AD
:1023B000072005E0C11F715C0DF80010411C88B2B8
:1023C000E11D8842F6DB9DF806002844C1B2E01DFD
:1023D0000DF8001000200AE0E11D1DF80110325C2C
:1023E0001144CAB2E11D0DF80120411C88B2A0427F
:1023F000F2DB4FF400610B48FDF7D1FE00200949E4
:10240000A1F8000808A0FFF7A9F904F10800C2B27A
:1024100069460D4800F090FB0CA0FFF79FF90DF501
:10242000806D70BD52010020CDA8B9FDB4AEBFDAF9
:10243000CBC4B7A2CBCDB7A2CBCDCCD7BDD3D7D64B
:10244000CAFDBEDD0D0A0000004C0040B7A2CBCD96
:10245000CDEAB3C90D0A000030B5ADF5017D0546E2
:1024600000244FF4007101A8FDF799FE0D480068A3
:10247000A84213D90CA0FFF771F901A92046FFF774
:10248000FFFD012807D121460EA0FFF767F901A93A
:1024900011A0FFF763F90020024908600DF5017DE6
:1024A00030BD0000380000200D0A64617461616E67
:1024B000616C797369735F74696D655F7363616C77
:1024C000650D0A00736F636B65745F6964203D205E
:1024D00025780D0A00000000736F636B65745F64FC
:1024E000617461203D2025730D0A000070B504461B
:1024F0000D46E1B2024800F0FDFB204670BD000031
:102500000038014010B59CB0702208496846FDF7BC
:102510002BFE7024214606A0FFF720F922466946CB
:102520006120FFF725FF1CB010BD00000C2E000835
:10253000CCECC6F8CAFDBEDDB3A4B6C82025640D38
:102540000A00000010B5044612480068A0421FD9D6
:1025500011A0FFF703F91648007858B915A0FFF746
:10256000FDF800F0CBFA012011490870002009495C
:1025700008600DE00E480078012809D112A0FFF78D
:10258000EDF8FFF7BFFF0020094908700149086016
:1025900010BD0000300000200D0A6765746461748E
:1025A000615F74696D655F7363616C650D0A00003E
:1025B000600000200D0A616C6979756E2075706489
:1025C0006174610D0A0000000D0A77656174686529
:1025D000722067657420646174610D0A0000000058
:1025E00008B501211420FEF7A5FC28208DF8030072
:1025F0000120ADF8000003208DF80200694607486D
:10260000FEF71AF948208DF803007020ADF800009D
:1026100069460348FEF710F908BD000000080140B4
:10262000001001401249896941F04001104A91614E
:1026300010490968042202EB80030F229A4091435B
:102640000C4A116011460968042202EB8003032240
:102650009A401143074A116006490C310968421C2F
:10266000012393401943034A0C3211607047000064
:10267000001002400018014010B5044605480068EB
:10268000A04206D90421044800F008F800200149BE
:10269000086010BD2800002000180140C2684A40B0
:1026A000C260704700F068F900F0B2FA00F0C6F9B5
:1026B000FEF7D2FC0120FFF7B5FF00F087F9FEF727
:1026C00007FDFFF78DFF0AA0FFF748F80FE04FF472
:1026D000FA60FFF7D1FF4FF47A70FFF7BDFE41F2C9
:1026E0008830FFF72FFF40F6B83000F009F8EEE72A
:1026F000C4E3BAC3A3ACCAC0BDE70D0A0000000022
:1027000010B5044610480068A0421BD90FA0FFF77F
:1027100025F8042200210120FEF7A6F9114890F8BF
:10272000D60060B110A0FFF719F800200D49C1F8DC
:10273000D80081F8DC0081F8D600FEF70DF9002002
:102740000149086010BD0000400000200D0A6D6FB7
:10275000646275735F74696D655F7363616C650D49
:102760000A00000068000020E8BF9BE585A5E68E12
:10277000A5E694B6E587BDE695B00D0A0000000019
:102780002DE9F0418AB005460C469046002007909E
:1027900008900990079526463046FDF70BFD074641
:1027A000CDE9056007A807C802AB07C30020009069
:1027B000034602464FF4806101901148FEF7DFFAAC
:1027C0001049A1F8040C0020A1F800080EA0FEF7A3
:1027D000C5FF0C4890F8042C0949104800F0ACF9EA
:1027E0000848B0F8041C0EA0FEF7B8FF0548B0F882
:1027F000042C03496220FFF7BBFD0AB0BDE8F0815D
:1028000055090020520100206D717474C6B4BDD307
:10281000BAAFCAFDC4DA0D0A00000000003801405A
:10282000CAFDBEDDB3A4B6C825640D0A00000000D1
:1028300000B597B058221A4901A8FDF795FC194830
:1028400004903C20ADF81C0001208DF81E001648B5
:10285000149016A0119000201949A1F8040C01AAA7
:102860004FF480611748FEF79BF91549A1F8040C55
:102870000020A1F800084FF400611148FDF78FFC1B
:102880000F4890F8042C0F490F4800F055F90C48F8
:10289000B0F8042C0B496220FFF76AFD17B000BDA9
:1028A000B42D0008C02E00087C2E00084454557436
:1028B000657374266B3061793868627A6D74740060
:1028C00052010020550900200038014000B5ADF24A
:1028D0000C4D4FF4806103A8FDF761FC0D48C088E2
:1028E0000C498988CDE900100A48438802880A49C2
:1028F00003A8FEF743FF09A0FEF730FF06490CA02E
:10290000FEF72CFF0DA203A90EA0FFF739FF0DF271
:102910000C4D00BD48010020102F00080D0AC9CF42
:10292000B4ABCAFDBEDDBAAFCAFDC4DA0D0A000001
:10293000CAFDBEDD2025730D0A00000073756363B8
:10294000657373002F7379732F6B30617938686208
:102950007A6D74742F445455746573742F74686958
:102960006E672F6576656E742F70726F7065727406
:10297000792F706F7374000030B51149481EB0F1A3
:10298000807F00D31BE0481E4FF0E02250615017BB
:102990000F22002804DB13071C0E0A4B1C5406E010
:1029A00013071D0E084B00F00F04241F1D5500BF18
:1029B00000204FF0E02290610720106100BF30BD81
:1029C0004019010000E400E018ED00E01FB501210E
:1029D0000846FEF79FFA4FF08040FEF7C9FC002042
:1029E000ADF80A00ADF806000920ADF8080041F680
:1029F0001F40ADF8040000208DF80C0001A94FF035
:102A00008040FEF7BBFC01218807FEF785FC012210
:102A100011469007FEF7A3FC1C208DF80000012052
:102A20008DF803008DF801008DF802006846FEF76E
:102A300037FA01218807FEF775FC1FBD00B587B086
:102A400001211020FEF776FA18208DF81B004FF4B4
:102A50008060ADF8180003208DF81A0006A92548FB
:102A6000FDF7EAFE04208DF81B004002ADF81800C7
:102A700006A92048FDF7E0FE0121C804FEF74AFA46
:102A8000002002900390049005904FF4E1300290F2
:102A90000020ADF814000C20ADF812000020ADF8B5
:102AA0001000ADF80E00ADF80C0002A91248FEF7B8
:102AB000DDFD012240F225510F48FEF7B1FD012254
:102AC00040F224410C48FEF7ABFD34208DF80400A1
:102AD00001208DF8070004208DF8050000208DF8F6
:102AE000060001A8FEF7DCF901210348FEF755FDB9
:102AF00007B000BD00100140004C004010B5084870
:102B0000007850B907A0FEF729FEFFF791FE0448B0
:102B10000078401C0249087001E0FFF7D7FE10BDA5
:102B200010000020BFAACABCC1ACBDD3B0A2C0EF88
:102B3000D4C60D0A000000002DE9F04107460D46FD
:102B40001646002405E0295D384600F0D3F8601CE5
:102B5000C4B2B442F7DBBDE8F081000000B587B035
:102B600001210420FEF7E6F918208DF81B0004204F
:102B7000ADF8180003208DF81A0006A92248FDF7C9
:102B80005BFE04208DF81B000820ADF8180006A994
:102B90001D48FDF751FE01214804FEF7BBF9002056
:102BA00002900390049005904FF4E13002900020D1
:102BB000ADF814000C20ADF812000020ADF81000A4
:102BC000ADF80E00ADF80C0002A91048FEF74EFD5E
:102BD000012240F225510D48FEF722FD26208DF8F6
:102BE000040001208DF8070004208DF80500002066
:102BF0008DF8060001A8FEF753F901210348FEF7FE
:102C0000CCFC07B000BD00000008014000440040BB
:102C100000B587B001210420FEF78CF918208DF84B
:102C20001B004FF40070ADF8180003208DF81A0057
:102C300006A92548FDF700FE04208DF81B000002C0
:102C4000ADF8180006A92048FDF7F6FD012188031C
:102C5000FEF770F9002002900390049005904FF465
:102C6000E13002900020ADF814000C20ADF8120005
:102C70000020ADF81000ADF80E00ADF80C0002A970
:102C80001248FEF7F3FC012240F225510F48FEF7EF
:102C9000C7FC012240F224410C48FEF7C1FC25206C
:102CA0008DF8040001208DF8070004208DF8050040
:102CB00000208DF8060001A8FEF7F2F80121034874
:102CC000FEF76BFC07B000BD000801400038014072
:102CD0002DE9F04107460D461646002400BF05E0E9
:102CE000295D384600F006F8601C84B2B442F7DB78
:102CF000BDE8F08170B504460D4600BF4021204676
:102D0000FEF757FC0128F9D129462046FEF71FFDA2
:102D100070BD70B504460E463046FDF74BFA0546C9
:102D20002946204600F00FF82A4631462068FDF774
:102D30001BFA20682844206070BD02681170026888
:102D4000521C0260704710B50A46CB1701EB1363A3
:102D50001B0A046823700268521C02600A46CB17E3
:102D600001EB13631B12A1EB0323046823700268B9
:102D7000521C026010BD1FB50446029800280DDDEC
:102D800020460299FFF7DFFFDDE902212068FDF709
:102D9000EBF920680299084420600AE0019820B10C
:102DA00020460199FFF7B5FF03E000212046FFF719
:102DB000CAFF1FBD4D515443000000000400000035
:102DC0000000000000000000000000003C000100C6
:102DD0004D515457000000000000000000000000AA
:102DE00000000000000000000000000000000000E3
:102DF00000000000000000000000000000000000D3
:102E000000000000000000000000000047455420C2
:102E100068747470733A2F2F6170692E73656E69D0
:102E200076657273652E636F6D2F76332F776561CC
:102E3000746865722F6E6F772E6A736F6E3F6B6565
:102E4000793D5374766753634B68324E6577585FAC
:102E5000717542266C6F636174696F6E3D7A686547
:102E60006E677A686F75266C616E67756167653D20
:102E7000656E26756E69743D630D0A0039386233DC
:102E800038306236643862643135336434653563B2
:102E900030336264616164623132303265363032BF
:102EA0003338383632366531313635346363396319
:102EB00061613833643536623536353300000000E1
:102EC0006B3061793868627A6D74742E445455742D
:102ED0006573747C7365637572656D6F64653D328F
:102EE0002C7369676E6D6574686F643D686D6163AE
:102EF0007368613235362C74696D657374616D70F9
:102F00003D313639393434353139313437307C005C
:102F10007B226964223A31363939343935323630D8
:102F20003139362C22706172616D73223A7B2274C2
:102F3000656D7065726174757265223A25642C2224
:102F400048756D6964697479223A25642C22484376
:102F5000484F223A25642C22636F32223A25647D41
:102F60002C2276657273696F6E223A22312E3022DE
:102F70002C226D6574686F64223A227468696E67EA
:102F80002E6576656E742E70726F70657274792E10
:102F9000706F7374227D0000B82F000800000020BD
:102FA00068000000A4170008203000086800002016
:102FB00020690000B41700080000000000000000B5
:102FC00000000000000000000000000000010203FB
:102FD00004010203040607080902040608000000B1
:102FE00000000000F4010000000000008813000051
:102FF00000000000E803000000000000E8030000FB
:1030000000000000000000000000000000000000C0
:1030100000000000000000000000000000000000B0
:0400000508000131BD
:00000001FF
