:100EE20068656C6C6F0D0A006E6F775F74656D706C
:070EF2003A25302E326600A4
:060D96000414000000003F
:100DE400538EFD120EF9120EC9120EAAD2AF7BFF5A
:100DF4007A0E79E27D077C00120E5A7BFF7A0E7917
:100E0400E21207517B007A007914120B5E7BFF7AA1
:100E14000E79EA8517288516278515268514251247
:0B0E240007517FF47E01120E2F80D0DA
:100D9C000410000000000408000001F4040C000022
:020DAC0001F450
:03000B00020CDF05
:100CDF00C0E0C0F0C083C082C0D075D000C000C0DB
:100CEF0001C002C003C004C005C006C007E513243D
:100CFF0001F513E43512F512E43511F511E4351051
:100D0F00F5100509E50970020508050DE50D7002DE
:100D1F00050C12000ED007D006D005D004D003D09A
:100D2F0002D001D000D0D0D082D083D0F0D0E0322A
:100E2F00EF2513F528EE3512F527E43511F526E4F5
:100E3F003510F525AF13AE12AD11AC10AB28AA27A4
:0A0E4F00A926A825D312066A50EA6E
:010E59002276
:100EF900438E805389F0758A40758CA2C28DD28C3D
:030F0900D2A92248
:060F2000FAC5BFFACAC4C5
:100DAE0060200003000000000000000000000000B2
:100DBE000000000000000000000000000000000025
:100DCE00000000004100010042002300004100002D
:050DDE000041000200CD
:100EC900759850438E40538EFE53890F758B8F75DD
:090ED9008DFDC2ABD28EC2AC2229
:080003008F993099FDC299228A
:080F18008F993099FDC2992266
:100E5A008B228A238924ED1DAE0470011C4E601773
:100E6A00AB220524E524AA237002052314F91206ED
:080E7A0004FF12000380DF22D7
:100EAA005392FC5391FC759A50438E0475D78F75F3
:0F0EBA00D6FD438E10539AFD439A0143AF012298
:0C0F0C008F9BE59A540260FA539AFD2274
:100E82008B258A268927ED1DAE0470011C4E601742
:100E9200AB250527E527AA267002052614F91206B6
:080EA20004FF120F0C80DF2297
:03004300020D3F6C
:100D3F00C0E0C083C082C0D075D000C006C007E538
:100D4F009A30E036539AFE900002E59BF090002314
:100D5F00E4F0A304F0900000E0701F900002E0FFA9
:100D6F00900001E0FE04F074032EF582E43400F5E8
:100D7F0083EFF0900001E0541FF0D007D006D0D0E1
:070D8F00D082D083D0E032D6
:10000E00D3900024E09400900023E094004024A3B9
:10001E00E004F07006900023E004F0D3900024E09A
:10002E009464900023E094004009E4F0A3F0900063
:04003E000004F022A8
:060B5E008B228A2389248A
:100B6400E4900025F0A3F0A3F078287C007D017BBD
:100B7400FF7A0F7920FE7F061205DE7B017A007969
:100B8400287D067C00120E82900000E070197F011F
:100B9400FE120E2F900026E004F0E0D394647480DB
:100BA400948040E4020C4D900000E0640160030274
:100BB4000C3EA3E064096003020C3E900026F09012
:100BC4000001E0FF14FE900026E0FDC39E501A745D
:100BD400032DF582E43400F583E0FE900027E02E37
:100BE400F0900026E004F080D674022FF582E434FD
:100BF40000F583E0FF900027E0B5073E900006E093
:100C0400FCE41201E8E4FBFA79C87842120141C01D
:100C140004C005C006C007900005E0FCE41201E82A
:100C2400D003D002D001D00012004DAB22AA23A9D8
:100C34002412067B9000257401F0E4900001F090EA
:0E0C44000023F0A3F0900000F0900025E0FFE8
:010C5200227F
:03000000020C539C
:0C0C530078EFE4F6D8FD75813D020C9AA4
:10004600020251E86480F8E933E83360110460F095
:10005600ED33EC337009E8FCE9FDEAFEEBFF220420
:1000660060DED3EB9FEA9EE99DE8C2E78CF0C2F71B
:1000760095F0400CE8CCF8E9CDF9EACEFAEBCFFBE7
:1000860012021C85D0F05804700320D5B3E8047022
:10009600075002B2D502025B92D5EC0460F7E4CCBD
:1000A600C0E0C398F8603B94186008400DD0E0FBB0
:1000B600020233E4FBFAC9FC8028E830E406E4C90E
:1000C600FBE4CAFCE830E305E4C9CACBFCE8540704
:1000D6006010F8C3E913F9EA13FAEB13FBEC13FC0F
:1000E600D8F130F52FC3E49CFCEF9BFFEE9AFEEDB2
:1000F60099FDD0E0FBEF4E4D4C701222DB0302025D
:1001060058EC2CFCEF33FFEE33FEED33FDED30E71C
:10011600EB020233EF2BFFEE3AFEED39FDD0E0FBAA
:1001260050130BBB000302025BED13FDEE13FEEF53
:0801360013FFEC13FC0202337D
:10013E0002025BEC5D046005E85904700302025193
:10014E0012021C580460F6EC4860F2EC7004FDFEDE
:10015E00FF22C860DB2481C85009C3986002500694
:10016E000202589850CAF582E9294B4A7005AB82B3
:10017E0002024775F0007C1A7880C3EF9BEE9AED71
:10018E0099400DC3EF9BFFEE9AFEED99FDE842F00C
:10019E00DC23ACF0D0E0FFD0E0FED0E0FDAB82205F
:1001AE00E7101BEB60BAEC2CFCEF33FFEE33FEEDE9
:1001BE0033FD020233E803F830E705C0F075F000B6
:1001CE00EF2FFFEE33FEED33FD40B830E7C280AACD
:1001DE0075F020800E75F010800575F0087D007E9C
:1001EE00007F003392D530D50312065CEC334010FD
:1001FE00EF33FFEE33FEED33FDEC33FCD5F0ED22A5
:0E020E00E5F0247EA2D513CC92E7CDCEFF22E0
:1006EF00E5392425F8E605392278223007027825E6
:1006FF00E475F0011206950206042000EB7F2ED25E
:10070F00008018EF540F2490D43440D4FF30040BE2
:10071F00EF24BFB41A0050032461FFE53A600215BD
:10072F003A053DE53D7002053C30070D7822E47532
:10073F00F001120695EF02064A020F187403D20752
:10074F008003E4C207F5398B228A238924E4F53A22
:10075F00F53CF53DE53A60077F2012072A80F575D5
:10076F003BFFC201C200C202C203C205C206C208D9
:10077F001206F8FF700D3007057F0012073BAF3DE3
:10078F00AE3C22B4255FC2D5C2041206F8FF24D0B6
:10079F00B40A00501A75F00A783A30D50508B6FF3A
:1007AF000106C6A426F620D5047002D20380D924F0
:1007BF00CFB41A00EF5004C2E5D204020A28D201C6
:1007CF0080C6D20080C0D20280BCD2D580BAD205FA
:1007DF0080B47F2012072A2002077401B53A004027
:1007EF00F11206EFFF12072A020763D208D2068022
:1007FF00951206EFFB1206EFFA1206EFF94A4B704D
:10080F0006791F7A0B7BFF20022EE53A602A7E00C5
:10081F008E8275830012061D60060EEE653B70F02A
:10082F00C2D5EBC0E0EAC0E0E9C0E0EE120A88D022
:10083F00E0F9D0E0FAD0E0FB120604FF60AAEBC0AB
:10084F00E0EAC0E0E9C0E012072AD0E02401F9D0C5
:10085F00E03400FAD0E0FBE53B0460DCD53BD98007
:10086F0087D20280A2120A6B60F7E53B7001041277
:10087F000266A93B600DE53B600914F53B120B12B4
:10088F00EF60F3EA30E702F404C3995077EAF425F6
:10089F003B0430E701E404F53B800D120A6B60C1A5
:1008AF00EA053B253B120266EA7838F630E701E4A9
:1008BF00253B04D53B0420050114120A88E4C0E04F
:1008CF00120B127838E6601320E70714F61207129E
:1008DF00802204F6D0E014C0E07F00120712E53B3F
:1008EF006007120709153B800B300503120709D06B
:1008FF00E0020763D0E00480C5120A6B60A0E53BFD
:10090F00041202667838EAF6E53B2005026001041E
:05091F002404120A8807
:1009240074FF04C0E0120B12120712E53B2005020B
:100934006003120709D0E0B53BE87F4512071C7835
:1009440038E67F2B30E7047F2DF404C0E012072A39
:10095400D0E075F00A84C0F0120713D0E012071338
:10096400020763791080027908C206C2088008D29F
:10097400D5790A8004790AC2D5E53B047002F53BB7
:10098400E4FAFDFEFF1206EFFC7B082001131206B9
:10099400EFFD7B1030000A1206EFFE1206EFFF7B1C
:1009A40020EC3382D592D55013C3E43000069FFF68
:1009B400E49EFEE42001039DFDE49CFCE4CBF8C22C
:1009C40001EC700CCFCECDCCE824F8F870F380178E
:1009D400C3EF33FFEE33FEED33FDEC33FCEB33FBBF
:1009E400994002FB0FD8E9EB300105F8D0E0C44888
:1009F400B201C0E00AEC4D4E4F78207B0070C2EA91
:100A0400B53B0040BCC0E0120A8AD0F0D0E020011F
:100A140004C4C0E0C4B201C0F0120713D0F0D5F092
:100A2400EB0207631206A508005309675807D14C67
:100A340007CD42096B4F09734409734907E643091B
:100A4400795508AA460908450874470B3F5007D54D
:100A54002D07D92E07FC2B07DD2307FA200B282AA4
:100A6400079548000007F4E53BB4FF03753B061205
:100A740006EFFC1206EFFD1206EFFE1206EFFF78FA
:100A840031020295790AA2D5200314300509B91060
:100A9400020404B9080104A2D5200602500104206E
:100AA40002689202B53A005034C0E07F2030031946
:100AB4007F30A20272067205500F120AE1C202C20E
:100AC40006C205C2087F30800F300503E9C0E0127A
:100AD400072A300503D0E0F9D0E0B53ACC30051749
:100AE4007F30B9100C12072A7F583004077F7880B2
:100AF40003B9080312072A3002057F2D02072A7F53
:100B0400202008F87F2B2006F322920280CF7F005A
:100B1400B4070050052431F8E6FF22286E756C6C8A
:100B24002900D2011206EF3001F8C201783A30D51B
:100B34000108F60207952D504349581206EF240385
:100B4400B405004001E4900B3A9312071B743A1267
:0A0B5400071BD203753A040209677B
:10021C00E9D2E7C933E833F892D5EDD2E7CD33EC28
:07022C0033FC5002B2D522A1
:10023300EC30E7100FBF000C0EBE00080DBD00042C
:100243000BEB6014A2D5EB13FCED92E7FD2274FFD8
:10025300FCFDFEFF22E480F8A2D574FF13FC7D8031
:03026300E480EF45
:10026600F920E72824F950037907E4F42402FB185F
:10027600DBFDE624FB5014E9600DE4F618E604F60F
:0F028600B40A08E4F6D9F57401F60A22C2D522AB
:10029500ED33EC3392D5FA602AB4FF33EDC2E77B38
:1002A500FF60067A0279BAE4227A0279C320D5047E
:1002B5007A0279BE224E614E002B494E46002D49E9
:1002C5004E4600E47A08F608DAFC7B00740722E85B
:1002D500C0E0ECC0E0EDC0E0EEC0E0EFC0E0EA75E4
:1002E500F010A4CAABF075F04DA42BFBE435F0FC7F
:1002F500EA2410FAEB34C5FBEC34D9FCEDC2E7FF78
:1003050075F056A4F42411C5F0F434C58FF0A42A71
:10031500E5F03BE43CF620E7141204CED0E0FFD034
:10032500E0FED0E0FDD0E0FC1201418014F404129F
:1003350004CED0E0FFD0E0FED0E0FDD0E0FC12031B
:1003450098D0E0F8E6FAEDD2E7CD33EC332482FB22
:10035500E4C3CF33CFCE33CECD33CD33DBF37B0701
:1003650075F00A846004F6081B0AE5F0F6088FF0BC
:10037500740AA4FFACF08EF0740AA42CFEACF05005
:10038500010C8DF0740AA42CFDE435F0F608DBDED3
:03039500740722C8
:10039800EC4D6011E8497017ED33EC3304600DE45F
:1003A800FCFFFEFD22E933E8330470F80202511223
:1003B800021C58046009E4CC248150062850090224
:1003C800025B284003020258C0E0EB4A7044B9803F
:1003D80006D0E0FB020247EF4E701CBD8008EBFF21
:1003E800EAFEE9FD80EBE98DF0A4FEE5F002048168
:1003F800E9CDF9EAFEEBFFEF89F0A4FCE5F0CE8940
:10040800F0A42EFFE435F0CD89F0A42DFEE435F0FC
:100418008067EF4E7005BD80D780C3EF8BF0A4AC2A
:10042800F0EE8BF0A42CFCE435F0F8EF8AF0A42C65
:10043800E5F038FCE433CB8DF0A42CFCE5F03BF878
:10044800EE8AF0A42CFCE5F038F8E433CF89F0A468
:100458002CFCE5F038CF3400CE89F0A42FFFE5F06E
:100468003EFEE433C98DF0A42EFEE5F039CD8AF0C6
:10047800A42FFFE5F03EFEE43DFD33D0E0FB50073E
:100488000BBB000F02025BEC2CFCEF33FFEE33FEDC
:06049800ED33FD0202330A
:10049E003F8000004120000042C80000447A000066
:1004AE00461C400047C35000497424004B189680E8
:1004BE004CBEBC205A0E1BCA6753C21C749DC5AEDF
:1004CE00FB60065407601C23231204FCEB543860B7
:1004DE00091204E81204F7120398ECF8EDF9EEFA9B
:1004EE00EFCB22EB1204F780F1543803241C900456
:1004FE009EFE93FC0EEE93FD0EEE930ECE93FF2218
:100C5F00020DE4E493A3F8E493A34003F68001F2BA
:100C6F0008DFF48029E493A3F85407240CC8C33396
:100C7F00C4540F4420C8834004F456800146F6DF65
:100C8F00E4800B0102040810204080900D96E47E52
:100C9F00019360BCA3FF543F30E509541FFEE4935A
:100CAF00A360010ECF54C025E060A840B8E493A321
:100CBF00FAE493A3F8E493A3C8C582C8CAC583CA4C
:100CCF00F0A3C8C582C8CAC583CADFE9DEE780BE04
:010DE300000F
:10050E00E709F608DFFA8046E709F208DFFA803ECF
:10051E0088828C83E709F0A3DFFA8032E309F608BC
:10052E00DFFA8078E309F208DFFA807088828C8324
:10053E00E309F0A3DFFA806489828A83E0A3F608D8
:10054E00DFFA805889828A83E0A3F208DFFA804CB2
:10055E0080D280FA80C680D4806980F28033801089
:10056E0080A680EA809A80A880DA80E280CA8033F2
:10057E0089828A83ECFAE493A3C8C582C8CCC5836A
:10058E00CCF0A3C8C582C8CCC583CCDFE9DEE7803A
:10059E000D89828A83E493A3F608DFF9ECFAA9F0B9
:1005AE00EDFB2289828A83ECFAE0A3C8C582C8CC0F
:1005BE00C583CCF0A3C8C582C8CCC583CCDFEADE28
:1005CE00E880DB89828A83E493A3F208DFF980CC8A
:1005DE0088F0EF60010E4E60C388F0ED2402B40483
:1005EE000050B9F582EB2402B4040050AF2323452A
:0605FE00822390055E73EC
:10060400BB010689828A83E0225002E722BBFE02F4
:09061400E32289828A83E4932227
:10061D00BB010CE58229F582E5833AF583E0225092
:10062D0006E92582F8E622BBFE06E92582F8E222DC
:0D063D00E58229F582E5833AF583E49322F6
:10064A00BB010689828A83F0225002F722BBFE018F
:02065A00F32289
:0E065C00C3E49FFFE49EFEE49DFDE49CFC22AF
:10066A00EB9FF5F0EA9E42F0E99D42F0E89C45F0E6
:01067A00225D
:10067B00BB010789828A830206D75005E9F8020677
:0A068B00CBBBFE05E9F80206E322EE
:10069500FAE6FB0808E6F925F0F618E6CA3AF62266
:1006A500D083D082F8E4937012740193700DA3A3E4
:1006B50093F8740193F5828883E4737402936860F8
:0606C500EFA3A3A380DFF8
:0C06CB00ECF608EDF608EEF608EFF6225B
:0C06D700ECF0A3EDF0A3EEF0A3EFF02296
:0C06E300ECF208EDF208EEF208EFF22253
:00000001FF
